:020000040000fa
:10000000f03f00207545000033270000332c00002e
:1000100000000000000000000000000000000000e0
:100020000000000000000000000000007b2e000027
:1000300000000000000000007b2e00007b2e00006e
:100040007b2e00007b2e00007b2e0000f13d000087
:100050007b2e00007b2e00007b2e00007b2e0000fc
:100060007b2e0000214100007b2e00007b2e000033
:100070007b2e000000000000000000007b2e00002e
:10008000000000007b2e00007b2e00007b2e000075
:100090001d4c00007b2e00007b2e00007b2e0000fc
:1000a0007b2e00007b2e00007b2e00007b2e0000ac
:0c00b0007b2e00007b2e00007b2e000049
:020000040000fa
:1000bc00f8b5c046f8bc08bc9e46704755450000d4
:1000cc00f8b5c046f8bc08bc9e4670472d450000ec
:020000040000fa
:0800dc00742500000100000082
:020000040000fa
:1000e4002c3500201c0000000000000048330020d4
:1000f4007000000000000000cc340020200000004c
:1001040000000000ff0f00200100000000000000bc
:1001140007240020010000000000000077340020c4
:1001240001000000000000006e3800200200000002
:10013400010000000201000008310020c00100009d
:10014400000000000834002040000000000000000f
:10015400003600200800000000000000a834002041
:100164002400000000000000b83500200c0000004e
:1001740000000000a734002001000000000000007f
:1001840075350020010000000000000054360020f6
:100194000300000000000000c43500200c00000033
:1001a400000000005736002001000000000000009d
:1001b40000000020ff0f000000000000e6350020d2
:1001c4000200000000000000f235002002000000e0
:1001d4000000000000100020ff0f000000000000dd
:1001e400fe350020020000000000000076350020eb
:1001f4001200000000000000083600200800000083
:100204000000000058360020080000000000000034
:100214008835002020000000000000006036002027
:10022400020000000000000010360020080000005a
:10023400000000007a3800200100000001000000e6
:100244000100000068360020780000000100000072
:1002540087f10000583800200c0002008af10000e9
:10026400643800200a00020097f100007038002072
:100274000a00020089f1000048350020180002003d
:1002840089f00000903800200800020080f100008e
:10029400883800200800020090f100004438002053
:1002a4001100020084f10000dc3500200a01020084
:1002b400160200006035002015000200faf000006c
:1002c4007c38002009000200623600200200000091
:1002d40000000000a835002010000000000000000d
:1002e400ec3400202000000000000000c832002090
:1002f400800000000000000008240020000400002a
:1003040000000000ac37002048000000010000009d
:1003140010b50300222803d00020332b07d010bdd2
:100324000a4b5208da610a4a01201a80f7e71000e2
:1003340013004030891a5c5810c38342fbd1034b2d
:100344005208da61034a01201a80e8e700400041bc
:1003540002a5ffff04a5ffff603500201500000083
:1003640000000000dc3500200a000000000000004e
:100374000c3500202000000000000000483500205b
:100384001800000000000000883800201000000061
:100394000100000042543a422e30310048573a429c
:1003a4002e312e30583800200c00000001000000cf
:1003b400343238303331302d525730327c380020cb
:1003c400090000000100000030303030303030309f
:1003d40030000000643800200a0000000100000022
:1003e400333139370000000000000000703800206d
:1003f4000a00000001000000454849535f464c00d4
:10040400000000004438002011000000010000003a
:10041400ffffffffffffffffffffffffffffffffe8
:10042400ff000000f437002030000000010000004d
:1004340000003d000000000000000008c95000005a
:1004440001003c000000000000000008094b00000f
:100454000100ff0000000000000000082b3b00002a
:100464007b3800200100000001000000ff000000b4
:100474006436002003000000000000002036002045
:100484000c000000000000002c36002004000000d6
:10049400000000006736002001000000000000009a
:1004a4005538002001000000010000000100000098
:1004b400483400202f0000000000000078340020a1
:1004c4002f000000000000000828002000080000a1
:1004d4000000000056380020010000000100000068
:1004e4000100000030360020080000000000000079
:1004f400e83500200a00000000000000f435002068
:100504000a0000000000000038360020040000004b
:10051400000000000830002000010000000000007e
:100524003c3600200400000000000000403600209b
:1005340008000000000000009838002004000000bb
:100544000100000001000000483600200400000003
:1005540000000000b833002050000000000000003c
:100564004c3600200400000000000000e0360020ab
:100574006c00000001000000ec360020e83600208a
:10058400ec360020000000002500000007200020b9
:100594000004000000000000000000000000000053
:1005a4000000000000000000000000000000000047
:1005b40000000000af5b000000000000000000002d
:1005c40000000000000000008d3d0000000000005d
:1005d4000000000000000000000000000000000017
:1005e40000000000ff1f00200804000000000000bd
:1005f4002438002020000000010000000100000059
:1006040003000000000000000000000000000000e3
:1006140000000000000000001836002018360020fa
:100624000800000000000000503600200400000014
:10063400000000004c3700206000000001000000b2
:1006440001000000030000000000000000000000a2
:10065400000000000000000000000000693f0000ee
:10066400000000000000000000000000095b000022
:100674001b4c00000000000000000000000000000f
:100684000000000000000000000000000000000066
:100694000000000000000000000000000000000056
:1006a400d03500200c000000000000000000000015
:1006b400000000006666666666666666666666666e
:020000040000fa
:1006c4000023f0b506001500b1b007910393079914
:1006d4000b78002b00d10ce101235b420c9310ab8f
:1006e40000240e9380230b940d940f930b5d002b29
:1006f40001d0252b2ad1002c06d02200300004f092
:10070400e1f8079b1b190793079b1a78252a00d049
:10071400e4e0013304930793022301219c4610274c
:10072400079803782b2b1ad025d8202b1ad0232beb
:100734001dd02a2b28d004f049f80d90079b1a7875
:10074400303a092a31d801330793f7e70134cde76a
:100754000b9b05930b4301300b930790e0e70423b5
:100764000b9a0fe00b9b0593059a08230ae00b9b59
:1007740005933b43efe72d2bead0302bd9d16246ca
:100784000b9b05931343e6e72b6801301a1d1b6886
:1007940007902a600d93002b07da0b9a5b420592af
:1007a400012205990d934a400b920b9bda0702d55f
:1007b400022293430b93079b1a782e2a0ed1002210
:1007c400581c0c9207905a782a2a27d1023307938f
:1007d4002b681a1d1b682a6005930c9307a804f064
:1007e40083fa079b0700187805f022f9692800d1dd
:1007f40082e034dc632800d1dbe01adc252800d158
:10080400e8e0612858d0049b012207930023524258
:100814000c920b930d9300930232e5e003f0d6ffa4
:100824000c90079b1a78303a092ad7d801330793da
:10083400f7e7642860d06728e5dc2a00390008a8b7
:1008440004f09dfb002800d1afe0079b0ba95a1cc4
:1008540007921b7808aa300005f0a3f93de0702840
:1008640000d17de016dc6e2800d197e06f28cad154
:100874002b000022390008a802f09efa002800d1bb
:1008840093e0079b08aa01330ba93000079305f0f6
:1008940086f922e0752840d078284fd07328b2d149
:1008a400802f00d081e0079b2a6801330793131d32
:1008b4002b601268002388e02a00390008a804f09d
:1008c4005efb002800d170e0079b0ba95a1c07921d
:1008d4001b7808aa300005f064f92418039b1c193e
:1008e400a34200dc82e04f22414b1a6001235b42a9
:1008f4000393039831b0f0bd2b000122390008a8fe
:1009040002f05afa002850d0079b08aa01330ba919
:100914003000079302f066fbdfe72b00002239006a
:1009240008a802f049fa00283fd0079b08aa01331f
:100934000ba93000079305f032f9cee72b00002213
:10094400390008a802f038fa00282ed0079b5a1c58
:1009540007921b7808aa0ba9300001f04df8bce7f8
:100964002b000022f02108a802f026fa00281cd04f
:10097400079b099a01330793089b13430cd11d4f1e
:10098400380004f0f1fe390002000b9b00930d9b2c
:10099400300002f0e3ffa0e77823dbe7039b390094
:1009a4001a1908a82b0003f0f3f8079b01330793e7
:1009b40094e7802ff9d1079b013307932b681a1d05
:1009c4001b682a6008aa137001230ba9300005f0e4
:1009d400eaf882e7802fe8d10122079b01330793cd
:1009e4000b9b049300930d9b0349d1e703946ee69c
:0c09f40048360020725b0000785b0000b9
:020000040000fa
:100a0000f0b5de4657464e464546e0b5a1b00591e5
:100a1000531e0793002a00d127e18346fde000988a
:100a2000019000922a004046884619003b781b0638
:100a30007e7836041e43fb783343be7836021e436d
:100a4000029b40c3029306231500dd4105331400c9
:100a5000dc4123006b4019251400ec416340009ced
:100a60001440019d954365405b194c4620cca1463e
:100a70005b199e19564402230c00dc4125000b3300
:100a80000c00dc4123006b4016250c00ec41634058
:100a90004446444025000d404446044065405b19ef
:100aa000039c3519f31804370390019eb24620ac1d
:100ab000029eb442b3d1e3460598403005906e489b
:100ac000824610270292894601999c465b460f9305
:100ad00006e0029a009202953500c846e1469c461f
:100ae0007b1c0f20019303409b0010aa9c580723f6
:100af0002200da410b332600de4172400492e40802
:100b00003e000e36330003409b0010aa9b5811266e
:100b10001a00f241934602361a00f24116005a4674
:100b200056409b0a02003a4009370740bf00900038
:100b3000049a624010ac04590494a3465a4410ac81
:100b40003c5912197340d31810aa8350062228006a
:100b5000d041070005322800d04102007a40192018
:100b60002c00c441624002982840009c2600ae43fd
:100b700037004740d219564601ceb2461218d31854
:100b8000591802236246da410b336046d84103000c
:100b9000534016226046d04143404a4640464240b8
:100ba0006046024048464646304042409b18039a01
:100bb0008e18cb18424603922100019f402f88d106
:100bc000029a49464446180063460f9fbb46089f59
:100bd000bc4660445f4638600998844663447b6045
:100be0000a9b9c466144b9600b9b9c466444fc6034
:100bf0000c9b9c4666443e610d9b9c4665447d6112
:100c0000069b9c466244ba610e9b009a94466344dc
:100c1000fb61079b5a1e079227d35b461968089110
:100c20005c6809949b680a935a46d5680b951269cb
:100c30000c92584646690d96806906905f46ff699a
:100c400038000e97059f029710afbc460b4fb94670
:100c50000700069801900096ba46029f0395a046a9
:100c6000604602901800dc46e0e621b03cbc9046ad
:100c70009946a246ab46f0bdd42100009421000065
:020000040000fa
:100c8000f0b5c64600b584b00191437898467f26fa
:100c90001e4081780c02c7783c43894b1b88a342d5
:100ca00000d1bae0864a0123958aa54200d1b5e079
:100cb00001339bb21432052bf6d1712302aa1370b3
:100cc000130042465a709970df70012e00d19fe0e8
:100cd0001221312003f0defb04b004bc9046f0bdcd
:100ce0003121312003f0d6fbf6e73321312003f028
:100cf000d1fbf1e71321312003f0ccfbece7714a83
:100d000093420ad0704a9342e6d1042102a804f02b
:100d10003ffa012004f0c6fedee7002302aa1371a9
:100d20000521100004f034fad6e7684b5b7e0b2bec
:100d300004d02221312003f0adfbcde70430102197
:100d400004f0f7fe002818d1002302aa1371b02383
:100d50001b025e4a12689a4207d05c4b04225a7604
:100d6000052102a804f014fab6e70c21013003f0c3
:100d7000a3ff564b0c225a76f2e7032302aa137103
:100d8000524b0a225a760a21012003f095ffe7e729
:100d900003791b06427912041343c2791343827903
:100da00012021343494ce360027a1206417a0904a5
:100db0000a43c17a0a43817a09020a432261b022b6
:100dc0001202934202d1637e042b04d022213120ef
:100dd00003f060fb80e73d4c05236376052101208d
:100de00003f06aff2169e06804f07ffe002807d065
:100df000002302aa13710521100004f0c9f96be762
:100e0000324b06225a767221312003f043fb63e70e
:100e10003121312003f03efb5ee70023712202ac5a
:100e200022702200444654709170d770012e00d079
:100e30004ee71d009a00d2189200214ca218947817
:100e4000234a1278944200d04ae79a00d3189b00b4
:100e50001b4ad318da781f4b1b789a4200d944e713
:100e6000ab005b199b00164ad3181b79019a934279
:100e700000d03fe7ab005d19ad00114beb5a164aad
:100e8000934200d151e700d839e7ff221202934282
:100e900000d17de7114a934200d01de70b4b5b7eea
:100ea00008229343043b5a4253415b42022293433c
:100eb000033302aa13710521100004f069f90be74e
:100ec000603c00000302000001dd0000a8340020a7
:100ed000613600205836002002dd000001ff0000ce
:020000040000fa
:100ee00010b582b00c00072a0dd1431e9841013085
:100ef0006d4b18700a781309012b51d0002b04d0c8
:100f0000022b00d179e002b010bd684b1b780222a1
:100f10009343f8d1022802d14b783e2b01d003f045
:100f200083fd624b1b78022b1ed00023009301939c
:100f300021780f3319404b1e052be4d85a4b1b78f0
:100f4000022b19d05a4b198001235a48e25cc25433
:100f50000133072bfad1584b06221a80574b5b6896
:100f6000002257489847cee7534b1988534b5b688c
:100f7000062253489847d8e763783e2be2d13d3ba1
:100f80006a46501ee25cc2540133072bfad14b4b28
:100f90005b68002268469847012004f00bf9b2e72d
:100fa000424b1b7802229343add103f03dfd2078e4
:100fb0000002f0231b0118406378184306286ed9fd
:100fc0003b4b1880002302343d49e25cca54013394
:100fd000052bfad1384b05221a803a4b043a1a7085
:100fe000394b95321a60394b00221a70334b1b680b
:100ff00098472e4b02221a7085e72c4b1b78022b48
:1010000000d080e72f4b1b785bb2012b00d07ae732
:101010000e331a402c4b196800201860002925d087
:101020002a4b1b780133dbb20f2b25d827490b70d5
:10103000264b1b78934223d11f4b18880123411e56
:101040001f4a8918e25cca540133072bfad10630d3
:1010500080b2194a1080164a1188884218d3194b59
:1010600000221a70154b5b681548984703f0dcfcaa
:101070000e4b00221a7046e7144b00211970d7e777
:101080000d4b19880d4b5b6804220d489847ede71e
:101090000c4b01221a700c4b95321a6033e7034b4c
:1010a00000221a702fe7c046753500205736002001
:1010b000e6350020ffffff1ff2350020b835002085
:1010c0000000002054360020c4350020a734002042
:020000040000fa
:1010d000f8b56b4b00225a6005786a4b1d70102dd5
:1010e0000ed0694a01231e001478ac4209d00133a6
:1010f00010320e2bf7d11121280003f0cbf9f8bde7
:101100000026624b1b78012b09d0022b13d0032b36
:101110000cd132015e4b9b189b7a5bb204e032012a
:101120005b4b9b181b7a5bb2012b0ad07f212800f6
:1011300003f0b0f9e3e73201554b9b185b7a5bb2e1
:10114000f2e7544b1b78022b0cd0427889b27f24f3
:1011500014402b00103bdfb2752f3fd8bb004e4f21
:10116000fb589f4632014a4b9b18db7a5bb2002b3f
:10117000c5d0eae78b1e5c4263415bb2002b2dd0e9
:101180003401434b1b195c7b444b1b789c4271d848
:1011900034013f4b1b190c241c570023012c63d036
:1011a0003f4a13703e2d61d03601394b9e1973684a
:1011b0009847a4e78b1e5c4263415bb2dee70b1fde
:1011c0005c4263415bb2d9e7631e012b04d90a2c50
:1011d000d6d1022902d1d3e70329d1d01321280087
:1011e00003f058f98be702238b429b415b42c5e732
:1011f000092c04d00a2cc3d11229efd1c0e702294f
:10120000ecd1bde701238b429b415b42b6e704234f
:101210008b429b415b42b1e7cb1e5c4263415bb2b8
:10122000ace703238b429b415b42a7e70a238b4237
:101230009b415b42a2e701238b429b415b429de7be
:101240004b1e5c4263415bb298e78b1e5c4263417c
:101250005bb293e78b1e5c4263415bb28ee78b1ef1
:101260005c4263415bb289e7d30999e7044b0d4abd
:101270005a6099e73321280003f00cf93fe7c04694
:10128000103600206036002024280000613600203f
:101290001428000075350020a812000058360020e0
:0812a0005d36002088130000f8
:020000040000fa
:1012a80074110000b4110000dc110000dc11000012
:1012b800be110000dc110000dc110000dc11000090
:1012c800dc110000c8110000dc110000dc11000076
:1012d800dc110000dc110000dc1100005e120000cf
:1012e800dc110000dc110000e6110000dc11000038
:1012f800dc110000dc110000dc110000f01100001e
:1013080018120000dc110000dc110000dc110000e4
:10131800dc110000dc110000041200000e120000b5
:10132800dc11000022120000dc110000dc110000ba
:101338002c120000dc1100003612000040120000e0
:10134800dc110000dc110000dc110000dc110000e1
:10135800dc110000dc1100004a120000dc11000062
:10136800dc110000dc110000dc110000dc110000c1
:10137800dc110000dc110000dc110000dc110000b1
:10138800dc110000dc110000dc110000dc110000a1
:10139800dc110000dc110000dc110000dc11000091
:1013a800dc110000dc110000dc110000dc11000081
:1013b800dc110000dc110000dc110000dc11000071
:1013c800dc110000dc110000dc110000dc11000061
:1013d800dc110000dc110000dc110000dc11000051
:1013e800dc110000dc110000dc110000dc11000041
:1013f800dc110000dc110000dc110000dc11000031
:10140800dc110000dc110000dc110000dc11000020
:10141800dc110000dc110000dc110000dc11000010
:10142800dc110000dc110000dc110000dc11000000
:10143800dc110000dc110000dc110000dc110000f0
:10144800dc110000dc110000dc110000dc110000e0
:10145800dc110000dc110000dc110000dc110000d0
:10146800dc110000dc110000dc110000dc110000c0
:08147800dc1100005412000019
:020000040000fa
:10148000f0b5c64600b584b05a4b00221a700478f5
:101490004178002914d0584b01321a700023574a62
:1014a0001370574a02211170564a1370552c00d000
:1014b00083e0514b02221a70524b00221a707ce0da
:1014c0004d4b1a78052a00d989e093004e48c3583d
:1014d0009f46002c71d1484b01221a706de03f23ca
:1014e0001c404a4b9b78a34223d0484b9b7ca34291
:1014f0001ed046492223cb5c1100a34219d0404b99
:101500001b781901414a8a5c012a15d0002a54d15e
:101510001b013e4ad318db6800209847384b022253
:101520001a70364b00221a70334b03321a7044e0a3
:101530000121334b1970e2e72f4b03321a703ce064
:10154000304b1b780133dbb2082b02d82d4a1370c5
:1015500033e02c4b00221a70274b01321a702ce01a
:10156000274b1a78254801784b1cdbb20370100119
:10157000264a12185118cc70d27a9a421dd81e4ba6
:1015800005221a7019e01e4b1b7898461f4f1d014b
:101590007e19b07803f0defb0335ed19f27a2900ed
:1015a00003f0eafa84420cd0134b01221a70134b59
:1015b00000221a70124b02321a7004b004bc90461a
:1015c000f0bd01ac43462370082229006b46581d2c
:1015d00004f05cf921000e4803f0e9fae4e7064b59
:1015e00001221a70054b00221a70054b02321a7044
:1015f000e3e7c046072400206f380020ff0f0020db
:101600006e380020773400204c560000f43700205c
:04161000483400203a
:020000040000fa
:1016140030b587b00400514b1b78022b00d096e004
:1016240042787d331340092b06d00a2b32d0122185
:10163400272002f02dff8ee0494b1c68002c0cd1b2
:10164400484b1b78012b0dd1474b19001031002258
:101654001a7001338b42fbd107e03721272002f0b7
:1016640017ff78e0404804f05efa404b01221a70fc
:1016740001ab66321a705e3a5a703b4901abe3180b
:10168400625c9a700134102cf8d1122101a803f085
:101694007dfd60e0354b1b78002b36d0334b0022a8
:1016a4001a70304b1b78012b34d0314d1022290095
:1016b4002d4804f034faa01c1022290004f018fa72
:1016c40000282cd02b4b1b78002b03d12a4a1378eb
:1016d40001331370284c2178072003f0ebfa2378a8
:1016e400022b2fd91e4b254a1a603621272002f0df
:1016f400cffe204b1b78002b2dd01e4b00221a70de
:101704001d4a13780133137025e02421272002f0a9
:10171400bffe20e02421272002f0bafe1be001a82e
:10172400672303705d3b4370022103f02ffd0d4bd3
:1017340001221a70104b00221a700021072003f0b6
:10174400b9fa08e03521272002f0a2fed1e77e2174
:10175400272002f09dfe07b030bdc0466136002050
:101764001036002058360020983500205c360020c2
:10177400883500205f3600205e36002010270000e8
:020000040000fa
:10178400f0b5ce46474680b593b000af78600e0002
:101794003a611d007b61102002f0c4fa0400f86075
:1017a400102002f0bffa0200b8602100280002f005
:1017b40023fa3509330751d06a1c12016b469b1a70
:1017c4009d46e846e9460021684604f067f8320081
:1017d4007968684604f058f880234a4693552801ee
:1017e4004044ba68010003f0e1ff0023bb62fb62de
:1017f4003b637b63002d15dd44462e0146441023d4
:1018040018203a18d2182100381803f0cfff7a694b
:10181400102318203918c918381803f0adf81034fb
:10182400b442ecd129014144102318203a18d218ab
:101834000400381803f0baff7a693969381903f0db
:101844009bf8f86802f0a2ffb86802f09fff3869bd
:10185400bd4613b00cbc90469946f0bd002d12d184
:101864000023bb63fb633b647b6432007968202400
:101874001833f818001904f007f81822ba181219c6
:1018840090469146a8e7013d0f2334009c43e31d95
:10189400db08db006a46d31a9d46e8462200002195
:1018a400684603f0fbff32007968684603f0ecfffa
:1018b400200010386844fa68010003f077ff94e7c9
:020000040000fa
:1018c40070b582b0002300930193464b5b7eda1f10
:1018d400012a07d9023b012b04d92421362002f026
:1018e400d7fd5fe0404b994217d88d1e4478012cf8
:1018f40018d03e4b1b78a34218d03a4a5369eb18d0
:101904005268934204d83a4eb54217d8934215d040
:101914007121362002f0bcfd44e03121362002f072
:10192400b7fd3fe0314b00221a70e6e7314b1b78dc
:101934005bb2012b2ad0002bdfd108e0294bdb69f5
:101944009c4231d10133ff2b33d0264ad361b023db
:101954001b02244a12689a422fd0224b03225a7641
:10196400e9b2023002f0bafd224b1870204b9d42be
:1019740004d9a3021b4a5268934202d1194b09228b
:101984005a761c4b1b785bb2002b23d0174b1c7070
:10199400144b1c6276236a46137054700221684605
:1019a40003f0f4fb02b070bd7321362002f070fd29
:1019b400f8e70c4b0122da61c9e70a4b08225a7690
:1019c40002398ab2811ca3b2180000f055fd094bfc
:1019d4001870cbe7034b0a225a767221362002f0a4
:1019e40057fddfe7a8340020020400005b36002026
:0819f400ff0300007a38002017
:020000040000fa
:1019fc00f0b58fb00d934b680c9006938b680d006f
:101a0c000793cb6816000393069b0f68002b44dbef
:101a1c0002239f4310233b400a93079b04930a9b8a
:101a2c00002b07d0726833681343079a02d0130057
:101a3c00023b049308233b400b935a1e9341049a98
:101a4c00d31a04933368039a0893736809932b6928
:101a5c005c1e00231355069b0593012c20dc0a9b6e
:101a6c00002b51d10b9b002b03d02023039a013c5c
:101a7c0013552b6900975a1e039b121b19190c98ae
:101a8c00079b01f067ff0c9b5b68db0503d56b685c
:101a9c00984200da18000fb0f0bd01230693b9e7a5
:101aac00089b099a13430bd1059b002b08dc069a63
:101abc00049b9b1a059a9b18002bd0ddbb07ced537
:101acc000f23089a013c134018005730092b01dcf6
:101adc00303318000d9b413b192b06d820230343b0
:101aec00613b192b01d803f0a6ff039b1855059bee
:101afc00013b0593099b1a07089b1b091a43099b79
:101b0c0008921b090993a8e70cce1343aad0039b98
:101b1c000d9a1b19013b1a703023039a023c135582
:021b2c00a0e730
:020000040000fa
:021b2e007047fe
:020000040000fa
:101b300010b500f095f8414b5b68002b04d0012be9
:101b40000cd0013b3d4a53603c4b1b68002b04d03a
:101b5000012b5dd0013b394a136010bd374b002289
:101b60005a60374b1b78032b24d0022becd1354c19
:101b7000617e354803f04afc637e012b01d90c2bb2
:101b800004d1012003f094ff03f04afb2c4b012207
:101b90001a7000232d4a1370284a13602c4b1b78af
:101ba000002b30d100232a4a13702a4a1370254a89
:101bb0005376c9e7224b01221a700023234a13707f
:101bc0001e4a13601f4b597e234803f01ffc204b15
:101bd0001b78002b12d11b4b5b7e012b01d90c2be8
:101be00004d1012003f064ff03f01afb0023184a1c
:101bf0001370184a1370134a5376a5e70021072083
:101c000003f05af8e7e70021072003f055f8c9e789
:101c10000a4b00221a600e4c21780139c9b221709a
:101c2000072003f049f82378002b03d1094b002249
:101c30001a7092e7094b01221a70f7e7103600205c
:101c400061360020a83400209c4c0000583600204b
:101c50005e3600205c360020844c00005f36002099
:020000040000fa
:101c600030b583b0002002f0c3fe00280bdb01205a
:101c700002f0befe002810db022002f0b9fe0028b0
:101c800012db03b030bd02f0cffe334b1988334b6b
:101c90005b68032232489847e9e702f0c5fe2f4b04
:101ca0009b6802209847e7e72e4b1b780133dbb295
:101cb0000f2b02d82b4a137002e02a4b00221a7015
:101cc000294b1888294bc018294b1c88254b19789b
:101cd000284a00926b469a809a710f230b4020226b
:101ce00013436a461370002c0dd00022002311000c
:101cf0006944855c4d7001339bb29c4205d0013232
:101d0000062bf4d10ce0230002e02300052c07d8b9
:101d1000cc211a006a44517001339bb2052bf8d9cb
:101d20000721684602f0b8fe231c062c00d90623c2
:101d30009ab20d490b88d3180b800d490b889b1a5a
:101d40009bb20b80002b03d00b4b0a229a6098e7c2
:101d500002f06afe95e7c046f2350020b835002053
:101d600000000020563600207635002000100020ac
:0c1d7000fe350020ccccccccc4350020cb
:020000040000fa
:101d7c00f0b5d6464f464646c0b53d4b1b7e9b063e
:101d8c000bd53b4b20221a763a4b1b6a002b04d006
:101d9c00384b596a1b6a042098470426354da846cf
:101dac00a946344b9a465be04a46126a002a42d056
:101dbc00796a3b6a01209847bb6a01333a6b9342bc
:101dcc009241134037e05246926a5200e0b22a49df
:101ddc0088540132240a8c543ce003f099fb254bc7
:101dec001b6a002bddd0234b596a3c23214ad35c60
:101dfc00002b06d0936b9842d3d3136a00209847dc
:101e0c00cfe71c4b9b6b9842cbd11a4b1b6a002023
:101e1c009847c6e7164b1b7e334223d0144b1c8dc0
:101e2c00a4b2ab6a01332a6b9342924113404246ef
:101e3c00d26a9a42b8d00f4ad26a9a42ead00c4a75
:101e4c00516807220a40012abdd00a4a926ae4b2bc
:101e5c0009498c54074a93623423d35c002bbcd1c0
:101e6c00044fd7e71cbc90469946a246f0bdc0462d
:0c1e7c000004004208340020c83100209f
:020000040000fa
:101e8800f8b503f005fe68281dd13a4b4621597173
:101e98004c229a71384bd9711a723649022003f0d4
:101ea80071fb364c364a5423d05a210002f0def832
:101eb8002100072003f066fb01f038f8002858d10c
:101ec800304e002543e003f0e3fd692808d1294b93
:101ed8004621597152229a71274bd9711a72dce73f
:101ee80003f0d6fd6a2808d1224b522159714c22a1
:101ef8009a71214bd9711a72cfe703f0c9fd6b288b
:101f0800cbd11c4a5223537193711b4ad37113725c
:101f1800c3e71a4ad7540133dbb202799a4208d987
:101f28000268d2181778002ff3d1144ff9541170a2
:101f3800f1e7092c18d0e90089b200220f4801f016
:101f48008ffc0134e4b2092c13d801350c36ecb2fd
:101f5800e31f012bf5d9032cf7d030003379002b80
:101f6800e7d000232021dbe701224821034801f0c4
:101f780077fcf8bd70380020603500200c35002053
:081f8800683600206c360020d1
:020000040000fa
:101f9000f0b5de4657464e464546e0b583b080462e
:101fa00000296ed00024384f0726384b9c469b46ac
:101fb0009946009108e03648415549468a60621cbe
:101fc0000134009991424cd97a683240012a16d0e6
:101fd0009d68da6892466a1c19698a4289410a40fa
:101fe00092453fd04146095d786830400128e2d1f2
:101ff0006d0027484155013500214155dde7624616
:102000009568d26892466a1c614609698a4289418c
:102010000a40924526d0610001204044405c000205
:1020200082464046415c5046014301917868304009
:10203000012809d0694609798a461549504648550c
:1020400059468a60621cbbe7690068460079104dfa
:10205000aa4668540d0001350199090a50464155b8
:10206000eee7140003f04cfa002802d0064b0122e0
:102070009a75200003b03cbc90469946a246ab46f8
:10208000f0bd0c00eee7c04600040042083400201a
:0420900048320020b2
:020000040000fa
:10209400637c777bf26b6fc53001672bfed7ab7621
:1020a400ca82c97dfa5947f0add4a2af9ca472c0cc
:1020b400b7fd9326363ff7cc34a5e5f171d8311539
:1020c40004c723c31896059a071280e2eb27b2755a
:1020d40009832c1a1b6e5aa0523bd6b329e32f84d2
:1020e40053d100ed20fcb15b6acbbe394a4c58cfca
:1020f400d0efaafb434d338545f9027f503c9fa89e
:1021040051a3408f929d38f5bcb6da2110fff3d26b
:10211400cd0c13ec5f974417c4a77e3d645d19731f
:1021240060814fdc222a908846eeb814de5e0bdb19
:10213400e0323a0a4906245cc2d3ac629195e47950
:10214400e7c8376d8dd54ea96c56f4ea657aae08aa
:10215400ba78252e1ca6b4c6e8dd741f4bbd8b8a45
:10216400703eb5664803f60e613557b986c11d9eab
:10217400e1f8981169d98e949b1e87e9ce5528df22
:102184008ca1890dbfe6426841992d0fb054bb164e
:020000040000fa
:10219400982f8a4291443771cffbc0b5a5dbb5e9ce
:1021a4005bc25639f111f159a4823f92d55e1cab42
:1021b40098aa07d8015b8312be853124c37d0c55d0
:1021c400745dbe72feb1de80a706dc9b74f19bc118
:1021d400c1699be48647beefc69dc10fcca10c2408
:1021e4006f2ce92daa84744adca9b05cda88f976ec
:1021f40052513e986dc631a8c82703b0c77f59bf56
:10220400f30be0c64791a7d55163ca066729291481
:10221400850ab72738211b2efc6d2c4d130d38531e
:1022240054730a65bb0a6a762ec9c281852c7292e0
:10223400a1e8bfa24b661aa8708b4bc2a3516cc70e
:1022440019e892d1240699d685350ef470a06a1047
:1022540016c1a419086c371e4c774827b5bcb03496
:10226400b30c1c394aaad84e4fca9c5bf36f2e6834
:10227400ee828f746f63a5781478c8840802c78cc3
:10228400faffbe90eb6c50a4f7a3f9bef27871c6c6
:020000040000fa
:1022940070b505000c000e002836886e8023335478
:1022a4000130382843d83822121a3018002103f09c
:1022b400f5fa636a190e6022a154190c0132a15473
:1022c400190a0132a1540132a354236a190e0132ae
:1022d400a154190c0132a154190a0132a15401323a
:1022e400a354663a31002000fef788fb0023a3665e
:1022f40040220021300003f0d1fae36e1c2b23d0de
:10230400202b30d03ed8032b3ed900229300e35833
:10231400190e2970190c6970190aa970eb70013231
:102324000435e36e9b089342f0d8012029e0402253
:10233400121a3018002103f0b1fa012231002000f2
:10234400fef75cfb0020aee722001c3408ca190e1d
:102354002970190c6970190aa970eb700435a2422e
:10236400f4d101200de02200203408ca190e29708e
:10237400190c6970190aa970eb700435a242f4d1e2
:0c238400012070bd0020fce70120fae7fa
:020000040000fa
:10239000f0b5de4657464e464546e0b5cbb00aabf3
:1023a00062221a704b1e142b0ed801295fd9431cd0
:1023b0009a4602390123994303318bb201930022db
:1023c00001239b4601213be01321222002f062f809
:1023d00046e002a9404601f04dfe0aab98193a7a50
:1023e00002a903f053fa397a711889b20122013433
:1023f000a4b20c350a2c19d02f002b884345f6d1f6
:102400000aab4a4612785a548e1cb6b2013189b2d0
:102410004a4652785a54082cdbd0032cd9d00aab48
:1024200098192a7a696803f031fadce75b460233cf
:102430009bb29b4602239c46e244019b9b450ad0eb
:10244000d14653461b781b025046407803439846ba
:10245000094d0024d0e7012a09d10aa802f098fe0c
:102460004bb03cbc90469946a246ab46f0bd3121ec
:0c247000222002f00ff8f3e7683600208d
:020000040000fa
:10247c00f0b5de4657464e464546e0b583b080463d
:10248c000091019293059b0d9a4610d0930a01334b
:10249c009b4653469c084346013b5a4653439b027a
:1024ac00b022120291469944009f00261be0019b2a
:1024bc009b0a9b4637d08023db009a46e9e74b46c4
:1024cc009d192549280001f0edfc2349280002f054
:1024dc00b5fc002829d001368023db009c466744dc
:1024ec00f3b29b451dd980220121d20049421a48e2
:1024fc0003f0d0f95346032be1d917483a000021d9
:10250c00d3781b0695782d042b4315782b435578df
:10251c002d022b4308c0013189b20432a142efd302
:10252c00cde7050002e0002500e00500019a0099c6
:10253c004446404601f012f9012c07d0280003b0a4
:10254c003cbc90469946a246ab46f0bda302013b6b
:0c255c009bb2002bfbd1f1e7082400200b
:020000040000fa
:1025680010b582b042787f231340502269460a7022
:102578004b7001228a70f332ca7000220a71c83285
:102588004a71022b40d0032b27d0012b04d01221f3
:10259800102001f07bff14e00024244b1c70244b16
:1025a8001c70002001f0dbf8224b1c7006216846e5
:1025b80002f0eafd204b1b78022b04d01e4b0122af
:1025c8001a7002b010bd1d4b5b7e012b01d90c2b7c
:1025d800f4d1012003f068faf0e7174b1b78022bbf
:1025e8000dd0144b00221a70134b03321a700621b7
:1025f800684602f0c9fd124b124a5a60e1e77e2193
:10260800102001f043ffdce70b4b1b78012b07d0b0
:10261800094b02221a700621684602f0b5fdd0e780
:102628007e21102001f032ffcbe7c0465a36002049
:10263800593600205836002061360020a834002082
:08264800103600208813000089
:020000040000fa
:10265000f0b5060085b00f0015001c008b4265d850
:1026600001d1824262d82100280003f073f83900ba
:102670000090300003f06ef8009b21001b1a1a0036
:102680002800039303f05af800900191019bbb428c
:1026900046d802d1009bb34242d8009b019c039aca
:1026a00001200021f61aa74103f048f8039b002bf4
:1026b0002fd0019b009adb0754081c43019b5d0847
:1026c000039b9c46bd422ed801d1b4422bd8320088
:1026d0003b00121bab41012692185b410027b61844
:1026e0005f4101235b429c446346002bead1801981
:1026f0007941039a04000d003000390003f012f80c
:10270000039a06000f0003f019f8241a8d412000e7
:1027100029000a9b002b01d01e605f6005b0f0bd50
:1027200000200021c2e7b6197f41dae7002000212e
:02273000efe7d1
:020000040000fa
:02273200fee7c0
:020000040000fa
:10273400f0b5ce46474680b583b00125314ca0465e
:10274400314a304eff23994616e058002f4f3f5c24
:10275400bc466f466146b97101302c49085cf8717a
:1027640001331ae06b4606331b8849460b40138538
:10277400244b1b7d002b20d1137e2b423dd0a0681f
:10278400e368984236d05768072038400128dcd0e7
:102794001e48c75c684687710133306983428041b3
:1027a40003401848c360506807230340012bd9d164
:1027b4006b4606331b881385dae703f015f8114bd3
:1027c4001b68002bbcd0434659681b7f002b08d0e4
:1027d4000c4b9b699842b3d30a4b1b680320984760
:1027e400aee7084b9b699842aad1064b1b680320ad
:1027f4009847a5e7044b01221a7503b00cbc904618
:102804009946f0bd083400200004004248320020fc
:020000040000fa
:10281400100200006925000001010101010000000f
:1028240011020000c13a0000010101010100000091
:102834001404000011470000010101010000000020
:1028440022030000912300000101010100000000a7
:10285400270200001516000001010100000000001d
:10286400280300005d3500000001010101000000a3
:102874002e0100009d300000010101010001000053
:1028840031040000810c000001010100000000007f
:10289400340b0000f52800000001000000010000d6
:1028a40036020000c518000000010000000100000d
:1028b40037010000d14a00000001000000010000bf
:1028c4003e020000c94100000101010101000000b5
:1028d400850200001d42000000000101010000000b
:1028e4001f0200004d310000010101010100000040
:020000040000fa
:1028f40010b582b00023009301930b2946d1c2780e
:10290400120603791b041a4383791a4343791b0281
:102914001a432a490a60c3791b06047a2404234310
:10292400847a2343407a000203434b6000204861c9
:102934009805990a002800d0013120488160204878
:1029440020495118814233d8b02109028a4222d049
:102954001a4a02215176194af82189000b4059423a
:102964004b411376742369460b70543b4b701c3bec
:102974008b70023bcb705b0253830123d3611362e0
:102984000421684602f002fc02b010bd1321342079
:1029940001f07efdf8e7094a527e052a03d1074a71
:1029a40007215176d7e77021342001f071fdebe760
:1029b4003121342001f06cfde6e7c046a834002044
:0829c400ff4f01000050ffff6e
:020000040000fa
:1029cc00f0b587b001900e00150003f05ff8010020
:1029dc00284802f015fd03f059f869281ad102a90c
:1029ec000023254c254f1a5dd85d42400a700133f7
:1029fc000131102bf7d102ab320029000198fef700
:102a0c00bbfe02ab00221a70013306a98b42fad12d
:102a1c0007b0f0bd03f03af86a280cd102a90023e4
:102a2c00174c184f1a5dd85d42400a7001330131c2
:102a3c00102bf7d1dfe703f029f86b280cd002a993
:102a4c000023114c114f1a5dd85d42400a700133be
:102a5c000131102bf7d1cee702a900230c4c0d4ffe
:102a6c001a5dd85d42400a7001330131102bf7d149
:102a7c00c1e7c0468c5a0000d4590000e45900004c
:102a8c00b4590000c459000094590000a459000026
:082a9c00f4590000045a000087
:020000040000fa
:102aa40010b582b00c004b1e9bb2264a934247d805
:102ab400062915d8052b43d8234b00936a469380e7
:102ac4009371117000231a006a44c15c5170013380
:102ad4009ab29442f7d80721684601f0dbff2fe051
:102ae4001a4b01221a7000231949c25cca540133db
:102af4009ab29442f9d80022164b1a706b465a8047
:102b04009a809a71230a102213436a4613705470f0
:102b140000231a006a44c15c91700133052bf8d17b
:102b24000721684601f0b6ff0b4b00221a700b4bcd
:102b34000a329a600a4b053a1a80053c094b1c80fc
:102b440002b010bdfe0f0000cccccccc5736002018
:102b5400001000205636002055360020c4350020d1
:082b640076350020fe3500204b
:020000040000fa
:102b6c00f8b5ce46474680b504000e00151e34d08d
:102b7c00026aeb009b189a4202d9426a0132426205
:102b8c006a0f616a8c46624462622362a76e002ff0
:102b9c003ed028239946a1443f2d02d8eb193f2b58
:102bac0020d94023db1b98464b46d81942463100ae
:102bbc0002f066fe012249462000fdf71bff464449
:102bcc00403fed190023a36640220021484602f045
:102bdc0061fe3f2d11d8002d1dd101200cbc90465b
:102bec009946f8bd380048442a00310002f048feee
:102bfc00a36e9c466544a566efe7aa093100200048
:102c0c00fdf7f8fe3f232a009a43b618ad1ae2e707
:102c1c00aa093f2df2d8a566200028302a003100e1
:062c2c0002f02efed9e7c4
:020000040000fa
:022c3200fee7bb
:020000040000fa
:102c3400294b5a6852031b68db0c13439b029b0a03
:102c4400264a936300235375110004228b691a42a8
:102c5400fcd122491022cb681a42fcd01f4a137db2
:102c640080210b4313751e4b00229a611a611d4b80
:102c74001d4a1a62190004224b681a42fcd1194aef
:102c840088234021d15010004831402243581a4231
:102c9400fcd0144acc234021d15010008c31402266
:102ca40043581a42fcd00f4ad0234021d15010007f
:102cb4009031402243581a42fcd00a4af82340215a
:102cc400d1501000b831402243581a42fcd0074b6f
:102cd400074ada617047c046206080000010004057
:102ce40000140040001c00400601010000080040e0
:042cf40006100000c6
:020000040000fa
:102cf800f0b5c64600b582b00190002002f0f3fda1
:102d08002a4b1b78012b1cd0294b1b789846ff2394
:102d1800184002f0dbfe019f3d003e001036ff2404
:102d280002f0e4fcc3171b0ec0182040c01a38700c
:102d38000137b742f4d1404602f0c8fe002400270c
:102d48000be0030adbb29846184b00221a70dee744
:102d58000137ffb20135b54212d002f0c7fcc217e5
:102d6800120e8018ff2303409b1a28784340dbb2d9
:102d78002b70ff2becd0002becd10134e4b2e9e747
:102d8800102f09d0102c0cd002f09afe084b1870a6
:102d980002b004bc9046f0bd019ad37b013bd373cb
:102da800f2e7019ad37b0133d373ede76336002052
:042db800623600205f
:020000040000fa
:102dbc0010b588293cd015dc81294dd003dc802945
:102dcc004ad0002010bd822911d08429f9d119686c
:102ddc00002a26d00a1d1a6000228b5e0360db17c6
:102dec00436011e0a02930d010dc9029e9d119689a
:102dfc000724002a2ed00919a1430a0008321a60b0
:102e0c000b684c68036044600120dbe7c02901d0eb
:102e1c00f029d6d11a68111d1960136803600023bc
:102e2c00dee70c1d1c600b689bb203604260ebe795
:102e3c001968002a04d00a1d1a600023cb56cde76e
:102e4c000c1d1c600b68dbb2efe71a68111d1960d2
:102e5c001368c3e70731cfe71968002a03d00a1dae
:0e2e6c001a600b68bae70c1d1c600b68dde7ee
:020000040000fa
:022e7a00fee771
:020000040000fa
:102e7c00f0b5de464f464646c0b584b0884693460c
:102e8c001c0001929600009635003200010040466d
:102e9c0002f0f6fc013427013400be422adb04b0f8
:102eac001cbc90469946a346f0bd03a802f08df8d1
:102ebc0002f012fb03ae0199200000f095f9194bba
:102ecc00181804a933780278534033700136013056
:102edc008e42f7d143465b1b4b4403aa04ae1978d0
:102eec0010784140595501330132b242f7d10434c4
:102efc00bc42d4daa1464346191f0919042203a87f
:102f0c0002f0befc0099200000f0b8f90029ccd0ea
:102f1c005b46062bded91029dcd103a802f0dcfac3
:082f2c00d8e7c046d44e0000b6
:020000040000fa
:102f3400f0b5ce46474680b589b0202200216846c8
:102f440002f0acfc234c2100234802f0f1fc234b9b
:102f54009846a446012608af20e001330130dab2d6
:102f6400954211d90278202af7d00c68e45c944287
:102f7400f3d0002421001a4802f046fa200009b0d8
:102f84000cbc90469946f0bd092e21d80136f6b204
:102f94000c239946c84414339946cc443300083b67
:102fa400012bf1d9042ef1d068460300644604cc09
:102fb400150e1d70150c5d70150a9d70da700433c2
:102fc400bb42f4d141460d79002dddd00023c9e781
:102fd4000124cfe708280020000440006c360020bc
:042fe400a8550000ec
:020000040000fa
:102fe800f0b54b6889b005930b6807009c460793ba
:102ff800cb680c008e68049310685168cd0f44d0dc
:103008000b000200002150429941059b002b08db70
:103018000222634693430793002d02d1079b5a0768
:103028002ad5731e07aa02920a22009301920b0066
:103038000200200000f0cdfc002d02d1079b5a07aa
:103048001ed501382d23002d00d1023b049a1354bc
:1030580023695a1e049b121a1918079b38000093fb
:10306800330000f079fc7b68db0503d56368984280
:1030780000da180009b0f0bd1b07db0ff31ad1e71f
:103088001b07e5d501382023e0e7059b002bbfdab5
:02309800c4e78b
:020000040000fa
:02309a0070477d
:020000040000fa
:10309c0070b582b005004478240283781c436e23fb
:1030ac006a461370244b1b88a3420fd0234a01237a
:1030bc001e001088a0420ad001330c320a2bf7d123
:1030cc0031212e2001f0e0f902b070bd0026730012
:1030dc009b199b00184ad3185b7a002bf0d0730015
:1030ec009b199b00d3181a7ad31c994204d0132134
:1030fc002e2001f0c9f9e7e7e91c73009e19b60010
:10310c000d4b9e1970680e0002f0bafb31002000c6
:10311c0000f0d2fd002804d172212e2001f0b4f968
:10312c00d2e76b786a465370ab789370032168468c
:10313c0002f028f8c8e7c046683600207436002034
:020000040000fa
:10314c0010b582b004005f236a4613704378537045
:10315c00012b0ed0022b14d0032b1ed0102b20d001
:10316c00272b23d00f2b26d00078112101f08cf9be
:10317c0005e0002393700321684602f003f802b0c7
:10318c0010bd02f083fc6b46987063780f2bf2d164
:10319c000621684601f0f6fff1e700236a469370ba
:1031ac00e9e70f4b1b786a469370e4e70d4b1b78ed
:1031bc006a469370dfe780780006e3781b041843b7
:1031cc006379184323791b02184302f0dcfc030ecd
:1031dc006a469370030cd370030a13715071d4e7d1
:0831ec00613600205836002076
:020000040000fa
:1031f400002941d010b4041c4c40a44601230022f1
:10320400002900d54942002800d5404288422cd3e9
:1032140001242407a14204d2814202d209011b01e4
:10322400f8e7e400a14204d2814202d249005b00e3
:10323400f8e7884201d3401a1a434c08a04202d34b
:10324400001b5c0822438c08a04202d3001b9c088c
:103254002243cc08a04202d3001bdc0822430028ee
:1032640003d01b0901d00909e3e7101c6446002cb4
:1032740000d5404210bc704701b5002002f098fc14
:1032840002bdc0460029f7d003b5fff7b3ff0ebc5b
:083294004243891a1847c046a5
:020000040000fa
:10329c00f0b5d6464f464646c0b582461e4ad36a5e
:1032ac00956a002933d0ab4234d0040001201b4a6c
:1032bc0094469046184e12e04246d25c91465246d5
:1032cc00013a4f4617540133326b934292411340eb
:1032dc00884214d2421c0234ab4211d01000104a66
:1032ec00576807223a40012ae6d15a006746bf5c6c
:1032fc00277001326746ba5c62700133e4e71d0047
:10330c00054bdd621cbc90469946a246f0bd1d00e3
:10331c000800f5e70020f3e708340020c83100204e
:04332c000004004257
:020000040000fa
:10333000f0b5de4657464e464546e0b589b003aa8d
:103340001e4b32cb32c21b6813608246031d9b4664
:103350001030019008ab984653461b7802aa1375ab
:1033600053465b78537553469b7893755346db7889
:10337000d37503ab99465746009707ad4e460024d8
:103380002978307800f0ecff4440e4b20136013592
:103390004545f5d1009b1c70013704239c46e14450
:1033a0005f45e9d1e244e344019b9a45d4d109b099
:1033b0003cbc90469946a246ab46f0bdac520000dc
:020000040000fa
:1033c000002934d00123002210b488422cd30124d8
:1033d0002407a14204d2814202d209011b01f8e76d
:1033e000e400a14204d2814202d249005b00f8e726
:1033f000884201d3401a1a434c08a04202d3001b52
:103400005c0822438c08a04202d3001b9c08224384
:10341000cc08a04202d3001bdc082243002803d0c2
:103420001b0901d00909e3e7101c10bc704701b566
:10343000002002f0bffb02bd0029f8d003b5fff762
:0c344000c1ff0ebc4243891a1847c04669
:020000040000fa
:10344c0010b51f4a137801210b4313701100012290
:10345c004b681a42fcd11a490b78102210200343f6
:10346c000b7080239b03cb6100230b6220338b6199
:10347c000b61144b1a819a821a849a851a874420fc
:10348c0005241c520c301a520c301a520c301a52a1
:10349c000c301a520c301a520c301a520c301a5280
:1034ac000c301a520c301a520c301a520b78022271
:1034bc0013430b7002224b681a42fcd110bdc0465c
:0834cc00002800400831002037
:020000040000fa
:1034d4001d4b1e4a1a601e4a9a81c02292025a60eb
:1034e4001a00d369002bfcd1174a136802210b433d
:1034f4001360d369002bfcd1164b00221a629a6226
:10350400da6234215a5408315a549a630021da8712
:103514001a609a60da60197519779a610a4b5a68c9
:1035240007231340012b09d00a4b80221a631a6126
:10353400054b80229a755c3a9a757047054b402278
:103544001a631a61f4e7c0460004004204211044df
:083554009c4000000834002037
:020000040000fa
:10355c0000b583b042787f2313408278002b07d0cc
:10356c00032b1bd01221282000f08eff03b000bdce
:10357c00013a022a0dd80023144a1370144a13700e
:10358c00682269460a704b700221684601f0fafd08
:10359c00ece73121282000f077ffe7e7013a022a17
:1035ac000ed80123094a1370094a137067336a460f
:1035bc001370653b53700221684601f0e3fdd5e7bb
:1035cc003121282000f060ffd0e7c0465a36002099
:0435dc00593600203c
:020000040000fa
:1035e000f0b5c64600b50500036801332cd0466827
:1035f000174801f091fd02f0a8fa02f0aefa01f0ce
:103600003afc144c802398469b004246a350bff3db
:103610004f8fbff36f8fc0277f00e35101f056fe3d
:1036200002f097fa72b601235b424246a350e3517f
:10363000094b9d60bff34f8fbff36f8f074b1e6029
:10364000b04704bc9046f0bd054801f065fdf8e7c1
:103650007c53000000e100e000ed00e03036002087
:043660006c530000a7
:020000040000fa
:10366400f0b51600050002278369426987b002930a
:10367400d31a03939b1904910596019302ac3a0063
:103684002100286801f06efd019b984208d1ab68c7
:10369400ea68ab619a18aa626b61300007b0f0bdaa
:1036a40000280cda102200236968ab620a43ab617c
:1036b4006b616a60022f12d06368f61aede7019b12
:1036c4001b1a01936368984202d9c01a0834013f57
:1036d40023681b1823606368181a6060cfe71e0014
:0236e400dbe722
:020000040000fa
:1036e600f0b5c64600b582b000af3960160020229c
:1036f600ba1815789b0098460733db08db006a4644
:10370600d31a9d467b6042460100684602f0bbf82c
:103716003100684601f097fe002d17dd10360024b3
:103726000ae07868fff701fe01343100786801f09d
:103736008afe1036ac4209da786801f05efc7868d9
:1037460000f083fb6b1ea342eed0eae7424679689f
:10375600386802f098f8bd4602b004bc9046f0bd49
:020000040000fa
:023766007047aa
:020000040000fa
:1037680030b583b00d001400012814d01a4a5368ec
:103778001b1b52699a4226d0802100230093174ac6
:10378800c900280000f036fe134b5a699446644479
:103798005c6103b030bd104a53681b1b52699a42e2
:1037a80009d080210023009301330c4ac900280066
:1037b80000f020fee8e701230093084a21002800d2
:1037c80000f018fee0e7012300930023034a2100dc
:1037d800280000f00ffed7e7a8340020ec340020c2
:020000040000fa
:1037e8001e4bf0b51c68231e0dd0002221001500c9
:1037f80013000f68bc460f6984450bd1002a06d018
:1038080017610b0010331800f0bd3900f1e7134bb6
:103818001f60f6e7844504d9002b1ad01e68b4450a
:1038280017d30a00002ff0d1002becd01f001a6824
:103838001969121a1037102a05d918603818016149
:103848000100103a02609c4206d1044b19603b000b
:10385800d9e715000b00e4e72961f8e744360020b2
:020000040000fa
:1038680070b504000e001500184b1b78002b16d1fc
:103878002200b100164bc9182000203013781b060f
:10388800547824042343d47823439478240223438c
:1038980008c104328242f1d1002d0fd170bd0b4b0b
:1038a80000221a7080320121d2004942084801f0f2
:1038b800f3ff0849084802f039f8d9e7034b012219
:1038c8001a700349044801f0abfbe7e756380020bb
:0c38d800082c00200828002000044000fc
:020000040000fa
:1038e400f8b5846a05000f001600002c0ad0ab6af4
:1038f4006a699b1ab3420cd2320039002800fff7e0
:10390400affe05e001f086fe03002000002beed0a0
:10391400f8bd002ef0d02b0034331b785bb2002ba3
:103924001adb3400dbb2621eb95c994212d1220068
:1039340039002800fff794fea042e9d33f19341b55
:1039440022003900686901f09fff6b6930001c197f
:0c3954006c61dde7141ee6d13400f1e7e1
:020000040000fa
:10396000f0b51d00012389b014000e9a06001a401c
:103970000391029201d1a5420ad822000399300096
:1039800000f0a2ffa54203d82500280009b0f0bd31
:103990002f1b01973a00102f00d91022202104a8d4
:1039a00001f07eff019b0f2b0ed80f2204a93a4095
:1039b000300000f089ff029b002be6d12200039922
:1039c000300000f081ffe0e7102204a9300000f091
:0a39d0007bff019b103b0193e4e72d
:020000040000fa
:1039da00f7b5040019000a9fe368666800933b681c
:1039ea00100001932369013b1c00002e00da012616
:1039fa000022009dea5435000123002c03dc002b31
:103a0a001cd02000febd02000a4309d1002d07dcac
:103a1a00089a921b5219002af1dd019a9207eed5f3
:103a2a00099b099adb1700f0eefe8c460099013ccf
:103a3a00130030320a55013d6146dee710233a6829
:063a4a009a433a60dde73b
:020000040000fa
:103a500010b582b0042803d0002818d002b010bde1
:103a600001f05cfd0100144c2000fff717fc00235f
:103a700023606360238101ab55221a70543a5a7057
:103a80000e4b1b68002be9d001a89847e6e701f030
:103a900045fdff210140084c2000fff7fffb01ab73
:103aa00022781a7000225a70044b1b68002bd5d064
:103ab00001a89847d2e7c046f435002034360020ec
:020000040000fa
:103ac00000b583b042787f231340012b09d0022b2d
:103ad00014d0032b1cd01221112000f0dbfc03b00a
:103ae00000bd50336a461370503b53700221684644
:103af00001f04efb012001f0dbfff0e74f336a4697
:103b000013704f3b53700221684601f041fbe6e71a
:103b10004e336a4613704e3b53700221684601f0e3
:0a3b200037fb012001f0c4ffd9e7d4
:020000040000fa
:023b2a007047e2
:020000040000fa
:103b2c0010b5154b1b78012b04d0144b1b78002bb4
:103b3c001bd110bd01f0c2ff0400114b1b78002bf0
:103b4c0005d0104b18600e4b00221a70ede70d4b90
:103b5c001b68c31a142be8d901f0d2fb094b1c606b
:103b6c00054b00221a7001f0dbfb044b00221a708b
:103b7c0001f0ddffdde7c04665360020663600202b
:083b8c00553800202c36002002
:020000040000fa
:103b940010b584291fd007dc812915d0822922d0b1
:103ba400802911d0002010bd90291cd008dc882960
:103bb400f8d119680c1d1c600b6803601a7010e0c2
:103bc400a02901d0c029edd119680c1d1c600b6817
:103bd40003601a6005e019680c1d1c600b68036023
:103be4001a800120dfe719680c1d1c600b68036054
:083bf4001a60d2175a60f4e7d1
:020000040000fa
:103bfc0030b58db00c0015000023089309930a937f
:103c0c000b9304aa04930593069307938733d373fa
:103c1c000200694608a800f0abfe6946200001f0de
:103c2c0002fd6b461b787f2b08d82100280001f081
:103c3c00fafc23787f2b07d80db030bd04aa2100e5
:103c4c00200001f0affdf0e704aa2900280001f0e4
:043c5c00a9fdf1e7e6
:020000040000fa
:103c60000302030004000000975b0000975b000064
:103c7000975b000000ff02010c000000975b000052
:103c8000975b0000975b000002dd0201140000005a
:103c9000975b0000975b0000975b000001ff02014b
:103ca00004000000975b0000975b0000975b00003a
:103cb00001dd010004000000975b0000975b00003d
:043cc000975b00000e
:020000040000fa
:103cc40070b50d00144a0023002404e00c320833bc
:103cd400dbb2502b04d011888142f7d11c00f5e7e8
:103ce4000e4e31000e4801f023fe2a00a400a41950
:103cf400203513781b06507800040343d1780b4316
:103d040090780002034308c40432aa42f1d1034963
:103d1400034801f087f970bd6836002008280020a8
:043d24000004400057
:020000040000fa
:103d280037b5164d04002b68002b0fd001f07afb35
:103d3800019001a801f022fd0f230f30984301994b
:103d480001f058fc00280cd000232b60002c00d177
:103d580001340f230f349c4304d10c222000084b5c
:103d68001a603ebd042c00d204242000fff738fd61
:103d78000028f6d0031f1c60f3e7c04698380020df
:043d88004836002099
:020000040000fa
:103d8c007fb51600c2680d0013000091591e8b41bf
:103d9c00f31a0193836804000392694602220068b7
:103dac00029301f0c7f9002808dc1822082302400e
:103dbc005340626813436360060010e0019b83422a
:103dcc00fad2a268c01ae3681018e2632064002bd0
:103ddc0005d0531ce3631378ad19013d2b703000f3
:043dec0004b070bdf2
:020000040000fa
:103df000f8b50024144d154e03e077610134102c02
:103e000020d063001b199b00eb181b89dbb2e1b2c9
:103e10008b42f3d173690127a7401f42eed06300a4
:103e20001b199b0008495b58002be6d00800630073
:103e300019198900411849681b199b001b58080073
:103e40009847dae7f8bdc046083100200028004056
:020000040000fa
:103e5000f0b5c64600b584b08446471c02abde1cf4
:103e600005240323984603ab0193221f1000d117aa
:103e7000890f531845462b405b1a9b006146091871
:103e8000cb5cb35401329442f1d1019a13783b7068
:103e900053783b7193783b72d3783b730137013e83
:0e3ea0000134082ce1d104b004bc9046f0bd02
:020000040000fa
:023eae0070475b
:020000040000fa
:103eb000f0b5c64600b507000e0001f0d6fa0500c1
:103ec000741cff34b046a023db009c46664407e028
:103ed0000c4801f021f9002d10d04034b4420dd02f
:103ee000094b9c42f4d8611eff39781eff384346c7
:103ef000c01a001901f07afa0500ece7280004bcaa
:0c3f00009046f0bdc4570000ff3f0020b9
:020000040000fa
:103f0c0000230e4a10b513600d4a13600d4a13605e
:103f1c000d4a13600d4a13600d4a5362136101334d
:103f2c00936001f079fd00f0c4f90a4c0a4b9c42f5
:103f3c0000d310bd08cc9847f8e7c0465036002097
:103f4c00c4330020c0330020b8330020bc33002021
:0c3f5c00c8330020c8000000cc000000aa
:020000040000fa
:103f680070b504000d00002801d1002070bd436821
:103f78009b0607d543698269934215d80023a3623b
:103f8800a3616361e16b236c994204d2c91a0122cf
:103f9800206801f00dfe00232364e3639d42e4d012
:103fa800206801f0effde1e70022c36a110098479d
:0c3fb8006369002be2d101204042d7e7f2
:020000040000fa
:103fc40010b5040020304c22002101f067fc0a4b9c
:103fd40023600a4b63600a4ba3600a4be3600a4bfd
:103fe40023610a4b63610a4ba3610a4be3612023fb
:103ff400e366012010bdc04667e6096a85ae67bb6b
:1040040072f36e3c3af54fa57f520e518c68059bb6
:08401400abd9831f19cde05b5d
:020000040000fa
:10401c0010b5124b06225a60114b1b681868002110
:10402c0001f068fc0f4b1b681868002101f062fc62
:10403c0001f08afc00f006fcfef7f6fd01f002fd33
:10404c0000f0b4fcfff740fafdf76bfdfff7f8f951
:10405c0000f038fb00f034f810bdc04600400041c1
:08406c00e4360020403800207a
:020000040000fa
:1040740070b50c00114a0023002504e00c3208330b
:10408400dbb2502b04d011888142f7d11d00f5e733
:104094000b4e31000b4801f04bfca9008919230099
:1040a4002034ca781a704a885a700a68120a9a70b8
:1040b40004c9da700433a342f3d170bd683600201a
:0840c400082800200004400060
:020000040000fa
:1040cc00bff35f8f62b6114bc02080001a581202ea
:1040dc00120ac02109060a431a5008221a60083035
:1040ec001a580b491140c02212020a431a5080225e
:1040fc0092001a60c52189005a58ff2082433f382c
:10410c0002435a50802252031a60704700e100e0cb
:04411c00ff00ffffa2
:020000040000fa
:1041200010b5134b9b7d002b1bd0114a137edbb2c5
:10413000927d52b2002a15db0d4a137edbb2927dce
:10414000d20703d5db0701d5fef7f4fa084a137e40
:10415000dbb2917d2422114203d01a4201d0fdf737
:104160000dfe10bd5bb2002be6da00f06df9e3e75f
:044170000004004205
:020000040000fa
:10417400f8b505000c000020002d20d000f0befe94
:10418400002c17d000200e4a0421072605e0178dc5
:104194004300ef52013084420dd0137e0b42fcd019
:1041a400538b334207d153683340012befd0138d27
:1041b4002b54efe72000201a44426041c0b2f8bdfe
:0441c40000080042ad
:020000040000fa
:1041c80000b583b0104b5b68002b03d10f4b1b78f5
:1041d800012b07d143785a0610d1db0904d00a4bca
:1041e8000b4a5a6003b000bd7e336a461370002341
:1041f80053700221684600f0c7fff0e712213e2005
:1042080000f044f9eee7c046103600206136002081
:044218008813000007
:020000040000fa
:10421c0000b583b042787f231340012b06d0022bcc
:10422c0012d01221852000f02ff90be00020fff7af
:10423c0094fac5236a461370c43b53700221684636
:10424c0000f0a0ff03b000bd0120fff786fac523e4
:10425c006a461370c33b53700221684600f092ff0c
:02426c00f0e779
:020000040000fa
:10426e00f0b5c64600b505008b0a984601f025fc50
:10427e00070000260de0312001f02bfc01f01dfca3
:10428e000700731c8022d20094466544b0450bd0c3
:10429e001e00280001f0e2f8041e05d001f00dfc0e
:1042ae00c01b8c28edd9e6e7200004bc9046f0bd7b
:020000040000fa
:0242be00704747
:020000040000fa
:1042c00070b5040016001d00022a1cd043689b062e
:1042d00019d4002908d1002d01d18025ed00280036
:1042e0000830fff721fd010020236268a16013431d
:1042f00063602300e5603433ff22012e00d10a22df
:104300001a70024be362002070bdc046e538000021
:020000040000fa
:1043100070b5104c05002368002b0cd0002d12da6c
:104320000d4b22681b68d31a6a42934208db20684f
:104330004519256006e000f0f3fc2368002bedd161
:104340000120404270bd054b22681b689b1aab429e
:10435000eddaf5e7d0350020d8350020d43500203f
:020000040000fa
:1043600030b583b001ab19706a46d41d1b2504e03b
:104370006a405a700133a34207d019784a00d2b27a
:104380005a7049b20029f5daf2e70023002101242e
:1043900001ad02e00133042b06d002001a411442a1
:0e43a000f8d05a5d5140f5e7080003b030bd7b
:020000040000fa
:1043ae0037b56b46dd1d836a04002970002b0cd0d7
:1043be006369a26a93420fd3e36a012229002000a7
:1043ce009847012805d1287805e001f01ef900284c
:1043de00eed0012040423ebd2200343212782878c1
:0e43ee0052b29042e8d05a1c62611870f3e798
:020000040000fa
:1043fc0070b505000e00141e16d0002b16d132001d
:10440c0029000c48fef7acfb0020049b002b0ad0c3
:10441c00084d29002000fdf737ff702200212800ed
:10442c0001f038fa200070bd034ce6e70148fff7b5
:0c443c00c3fde4e748330020cc3400202e
:020000040000fa
:1044480010b5104b5b8b1722134000d110bd0e4adc
:10445800d3870c4b80221a76693a5a831b7e5b07f6
:1044680005d5084b04211a8d1a7e0a42fbd1064b4a
:104478001b6a002bead0044b596a1b6a0220984732
:0c448800e4e7c0460004004208340020b5
:020000040000fa
:1044940000b583b000230093019378290ad17f23c8
:1044a4006a4613705070917003216846fef7f8fa5b
:1044b40003b000bd064b074a5a60074b1b78022b1a
:1044c400edd10b00113b012bf2d93129f0d0e6e7f5
:0c44d40010360020881300007535002011
:020000040000fa
:1044e00070b50c1e11d000230e4ac15cd1540133ab
:1044f000d9b2a142f9d3220001000b4801f070f8b3
:104500000023002801d0180070bd064d21002800ae
:1045100000f04cffa2b229000120fff725f901238a
:0c452000f1e7c046c8320020ac37002094
:020000040000fa
:10452c0010b5064c2378002b07d1054b002b02d07d
:10453c00044800e000bf0123237010bd2c3500207f
:10454c000000000000000000044b10b5002b03d04d
:10455c000349044800e000bf10bdc0460000000045
:08456c003035002000000000c2
:020000040000fa
:1045740010b50a4b98470a4b984700f0dffa094bed
:10458400ff229343084a9360084b9847084b984787
:10459400084b984700f00efcfee7c0469b30000035
:1045a4009b3000000000000000ed00e00d3f000023
:0845b4009b3000009b30000069
:020000040000fa
:1045bc0010b501f083fa142805d90c4b1b780c4a62
:1045cc001278134300d010bd094b01221a70012040
:1045dc0001f087f9c0b2074b587605380628f2d996
:1045ec00b0200002fef7f6ffede7c046673600206c
:0845fc0064360020a834002001
:020000040000fa
:1046040070b5002818d0002918d000250c4a0124c0
:10461400072605e06b00c35a13850135a94209d06a
:10462400137e2342fcd053683340012bf2d0435d08
:104634001385f2e7012070bd0020fce70120fae7b2
:044644000008004228
:020000040000fa
:1046480010b5022001f04ff90c4b984200d010bd74
:10465800012001f011fa01214942022000f028fb53
:104668000121012000f024fb054b01221a7000f003
:10467800ebfa012000f09afde9e7c046555555557b
:044688006736002071
:020000040000fa
:10468c0070b504000b002d22815c0132825c00208d
:10469c00914200d170bdeff3108672b62e25625d8b
:1046ac00d100891861180922180001f0e9f8605d41
:1046bc0001300521fef7e2fd61550120002ee9d104
:0446cc0062b6e7e704
:020000040000fa
:1046d0000c4b01221a6019000b691a42fcd1094bdc
:1046e00010221a600d3a1a73074a9a8333229a727b
:1046f000064a0021116001225a721a001369002b28
:10470000fcd17047003000427fbbffff0036002025
:020000040000fa
:1047100000b583b04278120483781b021343c27839
:1047200013430a4a934205d031211420fff7b2fe09
:1047300003b000bd100000f093f954236a461370d3
:104740000121684600f024fdf2e7c046ffffff00ac
:020000040000fa
:1047500070b501f0b9f905000a4b1c68041b0a4842
:1047600001f0bcf8002803d1084b9c4205d870bd6d
:1047700001f0aaf9034b1860f6e7024b1d6000f048
:104780004ffdf4e72836002078340020881300001d
:020000040000fa
:1047900070b5002817d001000c4e10393468002c79
:1047a00012d00d6823684019844206d12269103363
:1047b0005b190a610b60316005e01033e218914229
:1047c00002d1eb18236070bd0c61f4e74436002081
:020000040000fa
:1047d000030010b51a78202a0dd0110009390429d8
:1047e00009d900212b2a02d02d2a01d10131013310
:1047f00000200a2404e00133ece760430133801a0f
:104800001a78303a092af8d9002900d1404210bd5f
:020000040000fa
:10481000002b11d1002a0fd1002900d1002802d08d
:104820000021c943081c07b4024802a140180290a5
:1048300003bdc0468113000003b4684601b5029869
:10484000fdf706ff019b9e4602b00cbc7047c046b8
:020000040000fa
:104850008223db050c4a1a60002243215a54423954
:1048600044201954013019540b30195452315a5400
:1048700022395a5401311d385854063131385854b0
:0c48800001315a547047c046080008007f
:020000040000fa
:10488c0010b584b001900291039200280ad000293f
:10489c000bd0002a0cd0084a01ab13cb13c200205a
:1048ac0004b010bd01204042fae701204042f7e776
:0c48bc0001204042f4e7c046b83500205f
:020000040000fa
:1048c800436870b50400d80512d52569954200d90a
:1048d8001500002d0bd02a00606900f0d3ff226973
:1048e80063695b19551b0022636125611a7070bded
:0c48f800db06fcd4200000f0e3fff8e732
:020000040000fa
:104904000b00496810b50200890603d4190000f0b1
:1049140067f910bd190034310978c0b249b2814237
:1049240007d059699c6aa14203d24c1c5c610a708d
:0c493400efe711001800fff738fdeae77c
:020000040000fa
:104940001c2101231b04984201d3000c10391b0abf
:10495000984201d3000a08391b09984201d3000983
:10496000043902a2105c40187047c04604030202da
:0c49700001010101000000000000000037
:020000040000fa
:10497c00f0b583b006000d001700b020fff7cef99c
:10498c0004000a23042201003800fef771fa0a23fe
:10499c000093063b220029003000fef79efe20000b
:0a49ac00fff7f0fe280003b0f0bd95
:020000040000fa
:0249b600704748
:020000040000fa
:1049b8000a4b0b4a1a600b4a9a81c02292025a602b
:1049c8001a00d369002bfcd1044a136802210b4357
:1049d8001360d369002bfcd17047c0460008004221
:0849e800040110402bf6ffff53
:020000040000fa
:1049f000022813d883000b4a9b58002b10d0012ba0
:104a000005d08000013b074a8350012007e0800069
:104a100013000022c2500120404200e000207047f5
:084a20000020fce7c435002072
:020000040000fa
:104a28000023074a1370074a1370074a1370074a8e
:104a38001370074a1370074a1360536093607047f6
:104a480057360020543600205536002056360020b0
:084a5800a7340020c435002042
:020000040000fa
:104a600010b5c0231b04984209d00a4b98420ad0c3
:104a7000002800d010bd013000f07afdfae70020d8
:104a800000f076fdf6e7002000f072fd012000f056
:084a90006ffdefe7ffffff00df
:020000040000fa
:104a980010b50100094c601c072200f0f3fe00f07d
:104aa800f7ff20702100064800f07df8002801d0ab
:104ab800012010bd034800f02bfbf9e70836002061
:084ac80078340020745900004d
:020000040000fa
:104ad00000b583b00b4b5b7e092b05d0242137201a
:104ae000fff7d8fc03b000bd064b00225a611a76ce
:104af0000b325a7677236a4613700121684600f01c
:084b000047fbefe7a834002099
:020000040000fa
:104b080010b50400007800f0effa2378094a12780b
:104b18009a4202d07e2b06d010bd611c07220020cd
:104b280000f0f7fff8e7611c0722012000f0f1ff11
:084b3800f2e7c0467b380020c3
:020000040000fa
:104b400010b50b480168002905d14368002b02d13c
:104b5000fff7adf910bd04008368064a9bb20c3420
:104b60009b009b5842682000984780002018e9e786
:084b7000e40000007858000089
:020000040000fa
:104b780010b53e2303403c3b5c1ea3415b421840fa
:104b880080b2002a0cdd002302e00133934207dae9
:104b9800cc5c001980b2ff28f7d9ff3880b2f4e75f
:064ba800c043c0b210bdc5
:020000040000fa
:104bae0070b504000d0000f077fc0023002801d042
:104bbe00180070bd2d26a35dd800c018201809223c
:104bce00290000f05cfea05d01300521fef755fbcb
:064bde00a1550123ece7e4
:020000040000fa
:104be40013b50b006a46d41d5a68c1b22170d205b0
:104bf40005d55a69c0b2541c5c61117016bd0122fe
:104c04002100180000f05efe002801d02078f5e7ae
:064c140001204042f2e71e
:020000040000fa
:024c1a007047e1
:020000040000fa
:104c1c0010b50a4b5b7a002b0ed0084b987ac0b2b9
:104c2c0033229a72064b1b68002b05d0002803d048
:104c3c00034b59681b68984710bdc04600300042b2
:044c4c00003600200e
:020000040000fa
:104c500000b583b002230a4a1370502269460a70d5
:104c60004b70013b8b70f333cb7000230b71c83357
:104c70004b710621684600f08bfa03b000bdc046b8
:044c80006136002079
:020000040000fa
:104c8400626f6f74207175697420656f6c2c20736a
:104c9400743a2025640d0a00626f6f74207175697f
:104ca400742070726f672c2073743a2025640d0a87
:044cb4000000c046f6
:020000040000fa
:104cb800f8b505000f000a4c8022d2000021200020
:104cc80000f0eafd8026f6032100300000f02efef9
:104cd800ad002f512100300000f0a2f9f8bdc04608
:044ce8000828002078
:020000040000fa
:104cec00f0b5050000200a4a4400a65c002e02d153
:104cfc0012195078f0bd296801300f78c0b2b74254
:104d0c0003d112190131507829600a28ebd9f1e747
:044d1c009a570000a2
:020000040000fa
:104d2000074b1a68002a01d1064a1a60064a116820
:104d3000002901d1054911601a68054b1a607047b6
:104d4000d8350020a0380020d4350020a03a00201b
:044d5000d03500203a
:020000040000fa
:104d540030b53f22024055081409d3086b40634024
:104d640051094b4001214b4001210b40db019108cb
:104d74004d406840444001202040800110431843c6
:024d840030bd40
:020000040000fa
:104d860070b584b00d001400fff7e1ff2200290082
:104d9600fff7effe060001ac08222900200000f014
:104da60072fd26720921200000f095fc04b070bd4a
:020000040000fa
:104db80010b50020fff72ef9074800f0a9f90748b9
:104dc80000f0a6f900f016fa8223db0508229a61a2
:104dd80000f01ef8fce7c046785000008c50000038
:020000040000fa
:104de80070b505002023013bdbb2002bfbd1064c3c
:104df800202221000548fdf7e5fd102221002800aa
:104e080000f0eafbc0b270bda8350020ec340020e9
:020000040000fa
:104e180010b500f055fe094b1b68c31a642b01d965
:104e2800064b1860fff7c6fb00f08cfafef77afe17
:104e3800fff78afc00f0ccf910bdc04620360020f0
:020000040000fa
:104e480010b503680a689a420dd1031d8022d2006a
:104e58008418091a1a68c858904206d10433a34224
:0e4e6800f8d1012002e0002000e0002010bd83
:020000040000fa
:104e760030b58223db0544215a5c0124a2435a54ef
:104e86004522985ca04398542f345c60585c0425f6
:0e4e9600a8435854995ca94399545c6130bdff
:020000040000fa
:104ea40070b5140016000a004e430d00511e8a41cd
:104eb4005242144001003200180000f003fd864203
:0e4ec40003d02900fef77afa0400200070bd2a
:020000040000fa
:104ed40000000000010000000200000004000000c7
:104ee4000800000010000000200000004000000046
:0c4ef400800000001b00000036000000e1
:020000040000fa
:104f0000094b5b8b5b070dd0074b80221a76793af1
:104f10005a831b7e5b0705d5034b04211a8d1a7e2d
:0c4f20000a42fbd17047c0460008004266
:020000040000fa
:104f2c0010b5062000f0ddfcc0b2074b187001383c
:104f3c00c0b2fd2800d810bd68210620fff7b6fed0
:0c4f4c00014b68221a70f6e77b38002049
:020000040000fa
:104f580070b506000d00140000f04efc00280ad1c0
:104f6800012e01d0200070bd21002800fff746fb6c
:0a4f78000028f9d0f6e70020f5e765
:020000040000fa
:104f8200002380290fdb812901dd83290bd1072131
:104f9200136807338b431900083111601a685b6884
:0a4fa200026043600123180070470d
:020000040000fa
:104fac00020000234832d356591e0b4313700423be
:104fbc004268134005d01023134343600120404244
:0a4fcc0070470364c3631800fae79e
:020000040000fa
:104fd60030b583b0040001ad04220100280000f0c2
:104fe60052fc6b782370ab786370eb78a3702b78e8
:084ff600e370200003b030bda0
:020000040000fa
:1050000010b5020010321430064c1300103b197812
:10501000615c197004339342f9d101328242f4d1b8
:0850200010bdc0469420000001
:020000040000fa
:10502800f8b505000c0000f02bfa26008023db0001
:10503800e718a91b0919200000f010fc002802d06d
:085048004034bc42f5d1f8bd73
:020000040000fa
:1050500010b50b000a004032401a1c5810c393428e
:10506000fbd14908024bd961024a1a80012010bdc8
:08507000004000411ca5fffff8
:020000040000fa
:10507800626f6f742d2d2d2d2d3232323232320d5a
:10508800000000000d0a206a756d7020746f2062a0
:085098006f6f740d0000c046ab
:020000040000fa
:1050a00000b585b0044b01221a7004480449054a32
:1050b000fff7ecfb05b000bd61360020755a00001b
:0850c000d11000008559000029
:020000040000fa
:1050c80010b5074903310748fff7dcfa002800d17b
:1050d80010bd034bd91c98780822fff750fef7e75c
:0850e800f437002078340020a9
:020000040000fa
:1050f00010b50300683b032b03d8064b1b78834293
:1051000000d110bd034b187001000620fff7d4fd3d
:08511000f7e7c0467b380020e0
:020000040000fa
:1051180010b5084c2368196800f0b3f8012300287b
:1051280005db23680a20196800f023fdc30f5842e5
:0851380010bdc0464038002004
:020000040000fa
:10514000f7b5002507000c002e000192019b9e423e
:1051500001db2800febd62682168380000f084f899
:0851600001362d180834f1e7b7
:020000040000fa
:10516800f7b5002507000c002e000192019b9e4216
:1051780001db2800febd626821683800fff7e8fe01
:0851880001362d180834f1e78f
:020000040000fa
:1051900010b5054b054a5a60054b1b785bb2012bd5
:1051a00001d0fdf77ffc10bd1036002088130000f1
:0451b0005d36002048
:020000040000fa
:1051b400012804d8002803d1034b044a1a6070471d
:1051c400014b034a5a60fae710360020102700000a
:0451d400881300003c
:020000040000fa
:1051d80010b500f075fc064b1b68c31afa22920042
:1051e800934200d810bd024b186000f0a6fcf9e706
:0451f8002436002039
:020000040000fa
:1051fc0010b500f091fb00f0c3f800f023fbfff7b3
:10520c008ffefcf73bfefff745ff00f0fdfbfff7c1
:04521c0015fa10bdb2
:020000040000fa
:1052200010b5064800f05afb002800d010bd034816
:1052300000f048fa0248fff76ffff7e778340020e4
:0452400028580000ea
:020000040000fa
:1052440010b5074b0024984201d8200010bd00f08f
:1052540007fa040000f0befa0028fbd1f5e7c046c7
:04526400ffff3f0009
:020000040000fa
:1052680010b50c000023002809d10300002a06d03d
:1052780001212000fef77aff0028f9d00123180049
:0252880010bd57
:020000040000fa
:10528a0070b50e00050000f06cfa3300040002004d
:10529a0001212800fff701fe001b431e98414042ee
:0252aa0070bdd5
:020000040000fa
:1052ac0002030101010203010101020303010102d6
:1052bc000e0b0d09090e0b0d0d090e0b0b0d090e26
:020000040000fa
:1052cc00064b1b689b0707d5044a136802218b43c6
:1052dc001360d369002bfcd17047c0460004004218
:020000040000fa
:1052ec00064b1b689b0707d5044a136802218b43a6
:1052fc001360d369002bfcd17047c04600080042f4
:020000040000fa
:10530c00064a9368002bfcd1044a137802218b4384
:10531c0013709368002bfcd17047c04600200040ee
:020000040000fa
:10532c0010b5002000f0ddfa044b19780902ff23b8
:10533c00034019430020fff7b9fc10bd6236002072
:020000040000fa
:10534c0000b585b001a90548fff79af9002801d1ed
:10535c0005b000bd01a800f0a3f9f9e7483400201e
:020000040000fa
:10536c006e6f742061707020646174610d000000b8
:10537c006861732061707020646174610d00c046b7
:020000040000fa
:10538c0010b50021054800f063fb012000f0e4faa1
:10539c000121012000f06cf910bdc046513a00000b
:020000040000fa
:1053ac0010b50a00044c0100200000f069fa013429
:1053bc00024b1c6010bdc046083000203c3600205b
:020000040000fa
:1053cc0010b50200054b1b680021222098470400f1
:1053dc0000f0fcf90028fbd1200010bd3c36002069
:020000040000fa
:1053ec0010b50200054b1b6833209847040000f0f1
:1053fc00edf90028fbd1200010bdc0463c36002042
:020000040000fa
:10540c000fb407b5054b04aa1b6802ca18680192b1
:10541c0000f076f903b008bc04b0184740380020ff
:020000040000fa
:10542c0010b5054c2368002b01d1fff773fc034b1f
:10543c0018682368c01a10bdd0350020d435002060
:020000040000fa
:10544c0030b510242300103bc25ccd5c6a40c254c2
:0e545c000433a342f8d10134142cf3d130bd37
:020000040000fa
:10546a0070b504008023db00c5182000fff7a9fff0
:0e547a00002803d00134ff34ac42f6d170bddf
:020000040000fa
:1054880070b504008023db00c5182000fff7d6fea6
:0e549800002803d00134ff34ac42f6d170bdc1
:020000040000fa
:1054a60010b504002d23c05c01300521fdf7e9fe8f
:0e54b6002e23e05c081a41424841c0b210bdee
:020000040000fa
:1054c400002310b5934206d103201840421e904198
:0e54d4009b08c01810bdc45ccc540133f2e735
:020000040000fa
:1054e40010b50300041d04491a788a5c1a7001334c
:0c54f400a342f9d110bdc0469420000076
:020000040000fa
:10550000054b9868db68984201d3c01a7047024a7d
:0c55100012691018c01af9e708340020d6
:020000040000fa
:10551c00054ad36a906a834201d8c01a7047024a7e
:0c552c00126b1018c01af9e708340020b8
:020000040000fa
:10553800054a136802210b431360110002220b690c
:0c5548001a42fcd17047c04600300042ff
:020000040000fa
