:020000040800F2
:100000009004002005010008970F0008990E0008D1
:10001000950F0008370200087F110008000000005B
:100020000000000000000000000000009B0F00081E
:100030003902000800000000990F00089D0F000819
:100040001F0100081F0100081F0100081F01000810
:100050001F0100081F0100081F0100081F01000800
:100060001F0100081F0100081F0100081F010008F0
:100070001F0100081F0100081F0100081F010008E0
:100080001F0100081F0100081F0100081F010008D0
:100090001F0100081F0100081F0100081F010008C0
:1000A0001F0100081F0100081F0100081F010008B0
:1000B0001F0100081F0100081F0100081F010008A0
:1000C0001F0100081F0100081F0100081F01000890
:1000D0001F0100081F0100081F0100081F01000880
:1000E0001F0100081F0100081F010008DFF810D0E1
:1000F00000F080F80048004759170008AFF300806F
:10010000900400200648804706480047FEE7FEE7C7
:10011000FEE7FEE7FEE7FEE7FEE7FEE7FEE7FEE7B7
:1001200005100008ED000008202A04DB203A21FA1F
:1001300002F00021704721FA02F3D040C2F1200200
:10014000914008431946704740EA01039B0703D0DA
:1001500009E008C9121F08C0042AFAD203E011F806
:10016000013B00F8013B521EF9D27047D2B201E0C8
:1001700000F8012B491EFBD270470022F6E710B5AC
:1001800013460A4604461946FFF7F0FF204610BD05
:100190002DE9F05F0546002092469B4688460646BC
:1001A000814640241BE02846414647462246FFF749
:1001B000BBFF53465A46C01A914110D31146184608
:1001C000224600F029F82D1A67EB01084F46224617
:1001D0000120002100F020F817EB00094E41201EFD
:1001E000A4F10104DFDC484631462A464346BDE817
:1001F000F09F0000064C074D06E0E06840F0010368
:1002000094E8070098471034AC42F6D3FFF772FF2A
:10021000B8170008D8170008202A04DB203A00FA93
:1002200002F1002070479140C2F1200320FA03F34D
:10023000194390407047FEE7704772B6FEE7000032
:1002400006490020C8610648016941F004010161C6
:10025000016941F040010161704700007000002019
:1002600000200240064A0021D16106490A6942F095
:1002700002020A614861086940F040000861704765
:100280007000002000200240044B0022DA61044A82
:10029000136943F00103136101807047700000206F
:1002A0000020024014480022C168CB06134904D53F
:1002B000CA6942F00202CA611022C3685B0705D511
:1002C000CB6943F00103CB6142F00402C369DB0751
:1002D00007D0CB6943F00403CB61C16921F0010170
:1002E000C161A2F58071013901D0C2607047C16956
:1002F00021F00101C1617047002002407000002020
:1003000070B5054600F0C8F90646114C09E0681CB6
:1003100007D025B100F0C0F9801BA84201D9032005
:1003200070BDE068C007F2D1E068800601D52020EA
:10033000E060E068C00605D4E069C00702D1E0686B
:10034000400703D5FFF7AEFF012070BD002070BD50
:10035000002002402DE9F047054626480F460126B9
:10036000017E01290FD00121814601762868DFF83E
:1003700088804CF25034022808D0A2462046FFF76D
:10038000BFFFA8B131E00220BDE8F0872046FFF7AB
:10039000B7FF08BB0120FFF753FF2046FFF7B0FF70
:1003A000D8F81010064621F00401C8F810101CE01F
:1003B0004FF0FF303860AC6811E02046FFF752FF85
:1003C0005046FFF79DFFD8F81010060021F00201FB
:1003D000C8F8101001D03C6007E004F58064D5E94E
:1003E000020100EB8120A042E7D8002189F8181013
:1003F0003046C9E770000020002002400348016930
:1004000041F080010161002070470000002002409F
:100410002DE9F05F07461C4888460024017E1546FA
:100420001E46012909D00121814601764CF2503A3D
:100430005046FFF765FF18B122E00220BDE8F09FAB
:10044000012F02D0022F00D00427D346DFF83CA0B2
:10045000220128463146FFF767FE81B208EB4400CF
:10046000FFF712FF5846FFF74BFFDAF8102022F093
:100470000102CAF8102018B9641CE4B2BC42E7D3E8
:10048000002289F81820D9E77000002000200240DF
:10049000064900200A69120607D5054A4A60054A3E
:1004A0004A600969090600D5012070470020024012
:1004B00023016745AB89EFCD2DE9F84FDFF8B891FF
:1004C0000024A9F1040B23460F2709F1040AABF11C
:1004D000040EC9E00125A5402A40AA427DD1674EFD
:1004E000D1F804C0ACEB0608B44532D014DCBCF142
:1004F000030F3AD009DCBCF1000F2AD0BCF1010F88
:100500001CD0BCF1020F31D11DE0BCF1110F17D08E
:10051000BCF1120F2AD119E0B8F5881F19D006DCFA
:10052000B8F5803F15D0B8F5801F1FD111E0B8F5A0
:10053000001F0ED0B8F5041F18D10AE0CB6815E0F3
:10054000CB681B1D12E0CB6808330FE0CB680C337F
:100550000CE08B682BB1012B4FF0080303D04561F1
:1005600004E0042302E0056100E00023FF2A01D833
:10057000064601E000F104064FEA840501D9A5F121
:100580002005D6F8008007FA05FC28EA0C0803FAD3
:1005900005F548EA0508C6F800804D68ED0062D50B
:1005A000374DAE6946F00106AE61AD6924F0030631
:1005B00005F001050095334D06EB050CDCF80850FD
:1005C000A607360F07FA06F825EA0805DFF8B8800F
:1005D000404503D14FF0000817E044E0DFF8AC805D
:1005E000404502D14FF001080FE0DFF8A4804045FC
:1005F00002D14FF0020808E0DFF89880404502D1B0
:100600004FF0030801E04FF0040808FA06F848EA42
:100610000508CCF808804D68D9F80060ED024D4619
:1006200001D5164300E096432E604D68DAF800606D
:10063000AD02554601D5164300E096432E604D6845
:10064000DBF80060AD035D4601D5164300E096433C
:100650002E604D68DEF80060ED03754601D5164347
:1006600000E096432E60641C0D682A46E5407FF446
:1006700031AFBDE8F88F0000080401400000111000
:10068000001002400000014000080140000C014041
:1006900000100140001401400148806870470000CC
:1006A0000400002070B5040013D021684CF6CC4043
:1006B0000860216845F255500860D4E900014160A6
:1006C0002168A0688860FFF7E7FF054641F23C36E5
:1006D0000DE0012070BD00BFFFF7DEFF401BB04200
:1006E00005D92068C068800701D0032070BD20684C
:1006F000C0688007F0D121684AF6AA20086000206F
:1007000070BD00684AF6AA21016000207047000011
:10071000024881680278114481607047040000201B
:10072000074810B5016841F010010160032000F096
:1007300067F80F2000F006F800F024F8002010BD44
:100740000020024070B50D4D04464FF47A712878B0
:10075000B1FBF0F00A490968B1FBF0F000F0CEFA05
:1007600048B9102C07D200222146501E00F028F86C
:1007700000206C6070BD012070BD000004000020EE
:10078000100000200C4808B5816941F00101816129
:10079000816901F001010091C16941F08051C1619D
:1007A000C06900F0805000900448416821F0E06189
:1007B00041F00071416008BD00100240000001409E
:1007C000F0B40E4B1B680C46C3F30223C3F10705BC
:1007D000042D00D90425191D072901D2002300E0AA
:1007E000DB1E012606FA05F1491E214099409E4074
:1007F000761E16403143F0BC00F0D2BC0CED00E098
:10080000064900F0070208684FF6FF03184040EA67
:100810000220034A10430860704700000CED00E01E
:100820000000FA052DE9F0470F46050061D0434E60
:10083000306800F00700B84209D2306820F00700A5
:1008400038433060306800F00700B84251D1286862
:100850003B4C810712D5400703D5606840F4E06047
:1008600060602878000703D5606840F460506060DD
:100870006068A96820F0F000084360602878C0072D
:1008800028D06868012810D02168022810D0890774
:1008900000292EDA616821F0030101436160FFF74E
:1008A000FBFE804641F288390DE021688903EFE7BD
:1008B0008901EDE7FFF7F0FEA0EB0801494502D9F9
:1008C0000320BDE8F0876068696800F00C00B0EBB9
:1008D000810FEFD1306800F00700B8420BD93068C3
:1008E00020F0070038433060306800F00700B8425D
:1008F00001D00120E5E72878400705D56068E96860
:1009000020F4E060084360602878000706D560683E
:10091000296920F4605040EAC100606000F038F8B6
:100920006168084AC1F30311515CC8400649086078
:1009300006480068FFF706FF0020C2E700200240DB
:10094000001002409E170008100000200800002040
:100950000448054900684968044AC1F30221515C12
:10096000C84070471000002000100240AE17000879
:100970000448054900684968044AC1F3C221515C32
:10098000C84070471000002000100240AE17000859
:100990000E4A51680E4801F00C03042B11D0082BAD
:1009A0000FD10C48C1F38343C903C05C0AD5516819
:1009B000084AC1F34041921E515C054A5043B0FBC6
:1009C000F1F07047044948437047000000100240AE
:1009D00000127A008E17000800093D002DE9F84F3B
:1009E000040070D02078C04DC00749D06868C0F3BB
:1009F0008100012807D06868C0F38100022809D16E
:100A00006868C00306D52868800339D56068002867
:100A1000E7D035E06068B0F5803F0BD010B1B0F59D
:100A2000A02F11D0286820F480302860286820F496
:100A3000802002E0286840F480302860606890B12F
:100A4000FFF72AFE06460AE0286840F48020286066
:100A5000F0E700BFFFF720FE801B642873D82868EA
:100A60008003F7D50CE0FFF717FE064605E000BF50
:100A7000FFF712FE801B6428F0D828688003F7D4A3
:100A800020789A4E80074FF001094FF0000839D5C1
:100A9000686810F00C0F07D06868C0F38100022866
:100AA00009D16868C00306D42868800714D5206976
:100AB000012808D110E02069B0B1C6F80090FFF716
:100AC000EBFD074605E00AE1FFF7E6FDC01B022843
:100AD000C4D828688007F7D52868616920F0F80035
:100AE00040EAC10028600DE0C6F80080FFF7D4FDA1
:100AF000074604E0FFF7D0FDC01B022823D8286872
:100B00008007F7D4207800072CD57948A169D9B19E
:100B1000C0F80090FFF7C0FD074604E0FFF7BCFDFA
:100B2000C01B02280FD8686A8007F7D571484FF4B8
:100B3000FA510068B0FBF1F0009000BF0098411E30
:100B40000091FAD20EE080E0C0F80080FFF7A4FD2B
:100B5000074604E0FFF7A0FDC01B022875D8686AAD
:100B60008007F7D42078400760D5E8690027C000E7
:100B700008D4E86940F08050E861E869012700F096
:100B8000805000905C480168C90513D40168834611
:100B900041F480710160FFF77FFD824606E000BFEF
:100BA000FFF77AFDA0EB0A0064284ED8DBF80000BE
:100BB000C005F5D5E06801280AD008B1052813D092
:100BC000286A20F001002862286A20F0040002E070
:100BD000286A40F001002862E06841F2883B98B141
:100BE000FFF75AFD82460BE0286A40F004002862B5
:100BF000EEE700BFFFF750FDA0EB0A0159455AD8B8
:100C0000286A8007F6D50CE0FFF746FD824605E02E
:100C1000FFF742FDA0EB0A0159454CD8286A80072E
:100C2000F6D41FB1E86920F08050E861E06988B32C
:100C30006968C1F38101022944D00228C6F86080A6
:100C400004D0FFF729FD044638E034E0FFF724FD27
:100C5000074604E0FFF720FDC01B02282BD82868B8
:100C60008001F7D4206AB0F5803F05D16868A1689B
:100C700020F4003008436860D4E90801084369683B
:100C800021F4741108436860C6F86090FFF704FD12
:100C9000044606E025E000BFFFF7FEFC001B02282B
:100CA00009D828688001F7D51BE000BFFFF7F4FCE6
:100CB000001B022802D90320BDE8F88F28688001B4
:100CC000F4D40EE00128F7D06868226A00F480317D
:100CD000914204D1616A00F47010884201D0012071
:100CE000EAE70020E8E7000000100240000042426E
:100CF00080044242100000200070004010B5401EE9
:100D0000B0F1807F01D3012010BD4FF0E02460617D
:100D10000F21601700F044FA0020A0610720206135
:100D2000002010BD70B5040004D094F841000025E7
:100D300010B106E0012070BD84F84050204600F05C
:100D400023F8242084F841002068C16821F4005170
:100D5000C160204600F07EF92068016921F49041CD
:100D600001612068416921F02A0141612068C16860
:100D700041F40051C1606564202084F8410084F88A
:100D800042006563002070BD30B585B0002400943A
:100D900001940294039400681449884223D11448B2
:100DA000C16941F40031C161C16901F400310491AC
:100DB000816941F00401816180690E4D00F00400F9
:100DC00004900420009002200190032003906946C3
:100DD0002846FFF771FB0820CDE900046946284644
:100DE0000294FFF769FB05B030BD000000440040ED
:100DF00000100240000801402DE9F843044690F835
:100E00004100984616460D46202802D00220BDE833
:100E1000F88385B17EB100206064212084F8410010
:100E2000FFF73AFCA6848146E684A0682027B0F547
:100E3000805F02D003E00120E9E7206910B12E466F
:100E400000250EE000260CE08021204600F05EF92F
:100E5000A8B9C6B116F8010B21684860E08C401EA5
:100E6000E084E08C4B464FF00002CDF80080002873
:100E7000EAD14FF04001204600F048F940B184F833
:100E800041700320C3E735F8020BC0F30800E3E725
:100E900084F841700020BAE7FEE7000010B586B084
:100EA0000020029003901E48816941F01001816189
:100EB000816901F010010491816941F02001816193
:100EC000816901F020010491816941F0040181618F
:100ED000816901F004010491816941F00801816197
:100EE0008069032400F0080004904FF46040CDE9CD
:100EF000000469460B48FFF7DFFA49F6F270CDE9C6
:100F0000000469460848FFF7D7FA4FF6FF70CDE9AD
:100F1000000469460548FFF7CFFA06B010BD00008F
:100F2000001002400010014000080140000C014088
:100F3000094810B5074901600021416040F6FF7182
:100F40008160FFF7AFFB002803D0BDE81040FFF73A
:100F500074B910BD00300040180000200C4810B5D6
:100F60000A4901604FF4E1314160002181600C22A7
:100F7000C160C0E904128161C161FFF7D3FE00289E
:100F800003D0BDE81040FFF758B910BD0044004041
:100F900024000020FEE7FEE770477047FFF7B8BB6C
:100FA00030B58FB028216846FFF7E7F814210AA86A
:100FB000FFF7E3F80920012100904FF4803000246E
:100FC00004910691CDE901040225CDE907504FF4C3
:100FD000E01009906846FFF701FD08B172B6FEE720
:100FE0000F20CDE90A054FF48060CDE90C400221C5
:100FF0000AA80E94FFF716FC002801D072B6FEE78F
:101000000FB030BD704701680C3151E8002F22F459
:10101000907241E80023002BF5D10168143151E8AA
:10102000002F22F0010241E80023002BF5D1016BD3
:10103000012909D101680C3151E8002F22F010027A
:1010400041E80023002BF5D1202180F84210002137
:101050000163704770B5044600680169E26821F4D5
:101060004051114301612169A06808436169084347
:101070002168CA6841F20C639A430243CA6020683F
:101080004169A26921F44071114341611E49206800
:10109000884202D1FFF76CFC01E0FFF759FC00EB3E
:1010A000C00101EB0012606864218000B2FBF0F324
:1010B000B3FBF1F36FF018067343B2FBF0F5B2FB2C
:1010C000F0F605EB8305322303EB0515B5FBF1F5CF
:1010D000B6FBF1F605F0F00505EB0615B2FBF0F6F0
:1010E000B2FBF0F0B0FBF1F06FF01802504306EBEA
:1010F000800003EB0010B0FBF1F0216800F00F005E
:101100002844886070BD0000003801402DE9F84394
:10111000984617460D460446089E24E0701C22D0CF
:10112000FFF7BAFAA0EB0800B0421AD8CEB1206897
:10113000C168490717D5802D15D0402D13D00168FF
:10114000C94309070FD40168002540680090204674
:10115000FFF759FF0820606484F840500120BDE883
:10116000F8830320FBE72068006835EA000004D01C
:101170000020B842D2D00020F1E70120F9E7FEE7D5
:101180000FB4054B10B503A9044A029800F028F8E3
:1011900010BC5DF814FB0000351700081400002097
:1011A0000907090E002804DB00F1E02080F8001494
:1011B000704700F00F0000F1E02080F8141D704728
:1011C00002E008C8121F08C1002AFAD17047704710
:1011D000002001E001C1121F002AFBD1704700006E
:1011E0002DE9FF4F8DB09B460F460446002606E0D2
:1011F00025280BD05A460F999047641C761C2078FE
:101200000028F5D111B03046BDE8F08F0025A84682
:101210000122984900E0054314F8013F203B02FAFF
:1012200003F00842F7D120782E2817D114F8010FC7
:1012300045F004052A280ED06FF02F022078A0F187
:10124000300109290AD808EB880102EB410100EBC3
:101250000108641CF2E757F8048B641C20786C28A2
:101260000DD004DC4C2812D06A2811D104E0742877
:101270000DD07A280CD10AE045F4001507E061781A
:1012800045F48015814202D1641C05F58015641C6B
:101290002078692844D008DC0028B3D0582867D0CB
:1012A00063280FD0642808D13AE0702865D07328ED
:1012B00012D075285AD078285AD05A460F9990479C
:1012C000761CD5E017F8040B8DF8000000208DF88F
:1012D0000100E946012003E057F8049B4FF0FF307E
:1012E00069074FF0000501D40AE06D1C45450DDA91
:1012F0008542FADB19F805100029F6D106E06D1CCD
:101300008542FCDB19F805100029F8D12E4404E0D1
:1013100019F8010B5A460F9990476D1EF8D2A7E0B5
:101320000A200021CDE90801C5F3025002280CD0A3
:1013300001CFC117021E71F100020CDA0023D0EBBD
:10134000030063EB01012D2208E0FF1D27F00707D2
:10135000F7E80201EEE72A0504D52B228DF82820B4
:1013600001223CE0EA073AD02022F7E70A2000E019
:1013700010200021CDE9080107E01020002145F0F0
:101380000405CDE908014FF00808C5F30250022812
:1013900010D001CF00214FF0000A2A0720D5227873
:1013A000702A0DD0DDE908C38CF0100C5CEA030C48
:1013B0000CD015E0FF1D27F00707F7E80201EAE768
:1013C00040228DF828204FF0010A0CE050EA01037A
:1013D00006D030238DF828308DF82920022292463D
:1013E0002278582A04D024A20DF120090B9209E09A
:1013F00026A2F9E7DDE90823FEF7CAFE0B9B9B5CFA
:1014000009F8013D50EA0102F4D1ADEB09002030AA
:101410000890680701D44FF001080899884503DD5A
:101420000898A8EB000000E000208046002506E0B8
:101430000AA85A46405D0F9990476D1C761C554589
:10144000F6DB04E030205A460F999047761CB8F13D
:101450000001A8F10108F5DC05E019F8010B5A4676
:101460000F999047761C0899481E08900029F4DCD3
:10147000641CC4E609280100303132333435363774
:1014800038396162636465660000000030313233D0
:101490003435363738394142434445460000000070
:1014A000FEF7ACBF10B586B0002104910091012475
:1014B000CDE9014004A968460394FEF74BFF06B04E
:1014C000204610BDFEF7E4BF10B5014601240220FE
:1014D000FEF79EFF00B90024204610BD012080F3D6
:1014E00010887047002080F310887047F0B50346DD
:1014F000124F0320012600259C18BC4215D2002A59
:1015000013D000240DE01F7891F800C0BC4505D031
:10151000FF2F02D00220012500E00026491C5B1CA1
:10152000641C944202D2002DEDD0F0BD002DFCD100
:10153000012E01D00120F0BD0020F0BDFFFF010809
:1015400070B505460124A0F10060B0F5003F09D256
:10155000A80507D1FFF7B6FF2846FFF7A3FF04460B
:10156000FFF79EFF204670BD30B50123A0F1006457
:10157000B4F5003F0FD272B18418084D641EAC421E
:1015800009D8002304E000BF10F8014BCC545B1CC9
:101590009342F9D30023184630BD0000FFFF010835
:1015A0002DE9FC4105460020CDE90000884614469F
:1015B000204901272819884238D8BCB3A80735D15B
:1015C00041462846FFF792FF28B1FFF787FFFFF754
:1015D00079FF002611E0002728E00020CDE9000077
:1015E000D8F80000009002462846019BFFF76CFFE8
:1015F000C0B92D1D08F10408761CB6EB940FECD38E
:10160000A0070ED00020CDE9000004F003024146FF
:101610006846FEF799FDDDE900232846FFF754FFF1
:1016200000B90027FFF73CFFFFF75CFF3846BDE835
:10163000FC810000FFFF010870B59AB034221DA1A3
:101640000DA8FEF781FD28A0FFF79AFD294E304630
:10165000FFF776FF28A0FFF793FD32226946304658
:10166000FFF782FF00246D4621462A5D25A0FFF783
:1016700087FD641CE4B2322CF6D328A0FFF780FD6E
:1016800032220DA93046FFF78BFF27A0FFF778FD28
:10169000322269463046FFF767FF002421462A5D63
:1016A00018A0FFF76DFD641CE4B2322CF6D31AB01B
:1016B00070BD00000102030405060708090A0B0CAF
:1016C0000D0E0F101112131415161718191A1B1CD2
:1016D0001D1E1F202122232425262728292A2B2CC2
:1016E0002D2E2F3031320000BFAACABCB2C1B3FDCB
:1016F0000D0A0000007C0008B2C1B3FDCDEAB3C9F9
:101700000D0A0000B6C1C8A1B5DA2564B8F6CAFD55
:10171000D6B5A3BA25780D0A00000000BFAACABC3E
:10172000D0B4C8EB0D0A0000D0B4C8EBCDEAB3C901
:101730000D0A000010B5044605484FF47A730146BF
:10174000047001220348FFF757FB204610BD00003C
:101750000000002024000020FEF7E2FFFFF720FC3D
:10176000FFF79CFBFFF7E4FBFFF7F8FBFFF764FFD5
:1017700003A0FFF705FD0448FEF7C3FFFBE70000E9
:1017800073746172740D0A001800002001020203D4
:101790000405060708090A0B0C0D0E0F10100000B7
:1017A0000000000000000102030406070809000011
:1017B0000000010203040000D81700080000002008
:1017C00018000000C0110008F017000818000020E1
:1017D00078040000D01100080000000001000000A3
:1017E000100000000000000000127A00000000005D
:04000005080000ED02
:00000001FF
