:020000040804EE
:10000000D0040020490104083B100408C50E040870
:10001000391004087B0204082312040800000000C1
:100020000000000000000000000000003F10040875
:100030007D020408000000003D100408411004087F
:1000400063010408630104086301040863010408F0
:1000500063010408630104086301040863010408E0
:1000600063010408630104086301040863010408D0
:1000700063010408630104086301040863010408C0
:1000800063010408630104086301040863010408B0
:1000900063010408630104086301040863010408A0
:1000A0006301040863010408630104086301040890
:1000B0006301040863010408630104086301040880
:1000C0006301040863010408630104086301040870
:1000D0006301040863010408630104086301040860
:1000E0006301040863010408630104086301040850
:1000F0006301040863010408630104086301040840
:10010000630104086301040863010408630104082F
:10011000630104086301040863010408630104081F
:10012000630104086301040863010408630104080F
:10013000DFF810D000F080F8004800479917040855
:10014000AFF30080D00400200648804706480047EF
:10015000FEE7FEE7FEE7FEE7FEE7FEE7FEE7FEE777
:10016000FEE7FEE7A910040831010408202A04DB99
:10017000203A21FA02F00021704721FA02F3D04020
:10018000C2F12002914008431946704740EA01033A
:100190009B0703D009E008C9121F08C0042AFAD23D
:1001A00003E011F8013B00F8013B521EF9D2704701
:1001B000D2B201E000F8012B491EFBD270470022A9
:1001C000F6E710B513460A4604461946FFF7F0FF56
:1001D000204610BD2DE9F05F0546002092469B4663
:1001E00088460646814640241BE02846414647464D
:1001F0002246FFF7BBFF53465A46C01A914110D31F
:1002000011461846224600F029F82D1A67EB01081E
:100210004F4622460120002100F020F817EB00098C
:100220004E41201EA4F10104DFDC484631462A4637
:100230004346BDE8F09F0000064C074D06E0E0682D
:1002400040F0010394E8070098471034AC42F6D31D
:10025000FFF772FFBC2C0408DC2C0408202A04DB06
:10026000203A00FA02F1002070479140C2F12003C9
:1002700020FA03F3194390407047FEE7704772B6C7
:10028000FEE7000006490020C8610648016941F008
:1002900004010161016941F0400101617047000002
:1002A000B000002000200240064A0021D16106492A
:1002B0000A6942F002020A614861086940F04000A0
:1002C00008617047B000002000200240044B00226B
:1002D000DA61044A136943F0010313610180704736
:1002E000B00000200020024014480022C168CB0664
:1002F000134904D5CA6942F00202CA611022C368D8
:100300005B0705D5CB6943F00103CB6142F00402E2
:10031000C369DB0707D0CB6943F00403CB61C16934
:1003200021F00101C161A2F58071013901D0C260E3
:100330007047C16921F00101C1617047002002408E
:10034000B000002070B5054600F0D4F90646114C07
:1003500009E0681C07D025B100F0CCF9801BA84249
:1003600001D9032070BDE068C007F2D1E0688006C3
:1003700001D52020E060E068C00605D4E069C00730
:1003800002D1E068400703D5FFF7AEFF012070BD42
:10039000002070BD002002402DE9F04705462648A8
:1003A0000F460126017E01290FD0012181460176E9
:1003B0002868DFF888804CF25034022808D0A24622
:1003C0002046FFF7BFFFA8B131E00220BDE8F0876B
:1003D0002046FFF7B7FF08BB0120FFF753FF204679
:1003E000FFF7B0FFD8F81010064621F00401C8F856
:1003F00010101CE04FF0FF303860AC6811E0204670
:10040000FFF752FF5046FFF79DFFD8F81010060087
:1004100021F00201C8F8101001D03C6007E004F59B
:100420000064D5E9020100EBC120A042E7D8002119
:1004300089F818103046C9E7B000002000200240BB
:100440000348016941F0800101610020704700000C
:10045000002002402DE9F05F07461C488846002432
:10046000017E15461E46012909D0012181460176EB
:100470004CF2503A5046FFF765FF18B122E00220D7
:10048000BDE8F09F012F02D0022F00D00427D346F1
:10049000DFF83CA0220128463146FFF767FE81B213
:1004A00008EB4400FFF712FF5846FFF74BFFDAF85E
:1004B000102022F00102CAF8102018B9641CE4B21E
:1004C000BC42E7D3002289F81820D9E7B000002009
:1004D00000200240064900200A69120607D5054A95
:1004E0004A60054A4A600969090600D5012070473B
:1004F0000020024023016745AB89EFCD2DE9F84F7D
:10050000DFF8C8910024A9F1040B23460F2709F155
:10051000040AABF1040ED1E00125A54006EA05026C
:10052000AA4276D1DFF8A8C14E68A6EB0C08664552
:100530002BD00DDC032E34D005DC36B3012E19D0C0
:10054000022E2FD11BE0112E16D0122E2AD119E027
:10055000B8F5881F19D006DCB8F5803F15D0B8F57E
:10056000801F1FD111E0B8F5001F0ED0B8F5041F91
:1005700018D10AE0CB6815E0CB681B1D12E0CB68F0
:1005800008330FE0CB680C330CE08B682BB1012BE8
:100590004FF0080303D0456104E0042302E0056145
:1005A00000E00023FF2A01D8064601E000F104061E
:1005B0004FEA840501D9A5F12005D6F8008007FA95
:1005C00005FC28EA0C0803FA05F548EA0508C6F810
:1005D00000804D68ED0070D53E4DAE6946F00106D5
:1005E000AE61AD6924F0030605F0010500953A4DB2
:1005F00006EB050CDCF80850A607360F07FA06F8DC
:1006000025EA0805DFF8D480404503D14FF0000803
:1006100025E052E0DFF8C880404502D14FF00108E4
:100620001DE0DFF8C080404502D14FF0020816E01F
:10063000DFF8B480404502D14FF003080FE0DFF847
:10064000AC80404502D14FF0040808E0DFF8A080FC
:10065000404502D14FF0050801E04FF0060808FAC6
:1006600006F848EA0508CCF808804D68D9F800601B
:10067000ED024D4601D5164300E096432E604D68CD
:10068000DAF80060AD02554601D5164300E0964306
:100690002E604D68DBF80060AD035D4601D5164362
:1006A00000E096432E604D68DEF80060ED0375466D
:1006B00001D5164300E096432E60641C0A68164676
:1006C000E2407FF429AFBDE8F88F00000804014044
:1006D000000011100010024000000140000801401D
:1006E000000C0140001001400014014000180140BE
:1006F000001C014001488068704700000400002091
:10070000024881680278114481607047040000202B
:10071000074810B5016841F010010160032000F0A6
:1007200067F80F2000F006F800F024F8002010BD54
:100730000020024070B50D4D04464FF47A712878C0
:10074000B1FBF0F00A490968B1FBF0F000F0CEFA15
:1007500048B9102C07D200222146501E00F028F87C
:1007600000206C6070BD012070BD000004000020FE
:10077000100000200C4808B5816941F00101816139
:10078000816901F001010091C16941F08051C161AD
:10079000C06900F0805000900448416821F0E06199
:1007A00041F00071416008BD0010024000000140AE
:1007B000F0B40E4B1B680C46C3F30223C3F10705CC
:1007C000042D00D90425191D072901D2002300E0BA
:1007D000DB1E012606FA05F1491E214099409E4084
:1007E000761E16403143F0BC00F02CBD0CED00E04D
:1007F000064900F0070208684FF6FF03184040EA78
:100800000220034A10430860704700000CED00E02E
:100810000000FA052DE9F0470F46050061D0434E70
:10082000306800F00700B84209D2306820F00700B5
:1008300038433060306800F00700B84251D1286872
:100840003B4C810712D5400703D5606840F4E06057
:1008500060602878000703D5606840F460506060ED
:100860006068A96820F0F000084360602878C0073D
:1008700028D06868012810D02168022810D0890784
:1008800000292EDA616821F0030101436160FFF75E
:1008900031FF804641F288390DE021688903EFE796
:1008A0008901EDE7FFF726FFA0EB0801494502D9D2
:1008B0000320BDE8F0876068696800F00C00B0EBC9
:1008C000810FEFD1306800F00700B8420BD93068D3
:1008D00020F0070038433060306800F00700B8426D
:1008E00001D00120E5E72878400705D56068E96870
:1008F00020F4E060084360602878000706D560684F
:10090000296920F4605040EAC100606000F038F8C6
:100910006168084AC1F30311515CC8400649086088
:1009200006480068FFF706FF0020C2E700200240EB
:1009300000100240E6170408100000200800002004
:100940000448054900684968044AC1F30221515C22
:10095000C84070471000002000100240F61704083D
:100960000448054900684968044AC1F3C221515C42
:10097000C84070471000002000100240F61704081D
:100980000E4A51680E4801F00C03042B11D0082BBD
:100990000FD10C48C1F38343C903C05C0AD5516829
:1009A000084AC1F34041921E515C054A5043B0FBD6
:1009B000F1F07047044948437047000000100240BE
:1009C00000127A00D617040800093D002DE9F84FFF
:1009D000040070D02078C04DC00749D06868C0F3CB
:1009E0008100012807D06868C0F38100022809D17E
:1009F0006868C00306D52868800339D56068002878
:100A0000E7D035E06068B0F5803F0BD010B1B0F5AD
:100A1000A02F11D0286820F480302860286820F4A6
:100A2000802002E0286840F480302860606890B13F
:100A3000FFF760FE06460AE0286840F48020286040
:100A4000F0E700BFFFF756FE801B642873D82868C4
:100A50008003F7D50CE0FFF74DFE064605E000BF2A
:100A6000FFF748FE801B6428F0D828688003F7D47D
:100A700020789A4E80074FF001094FF0000839D5D1
:100A8000686810F00C0F07D06868C0F38100022876
:100A900009D16868C00306D42868800714D5206986
:100AA000012808D110E02069B0B1C6F80090FFF726
:100AB00021FE074605E00AE1FFF71CFEC01B0228E5
:100AC000C4D828688007F7D52868616920F0F80045
:100AD00040EAC10028600DE0C6F80080FFF70AFE7A
:100AE000074604E0FFF706FEC01B022823D828684B
:100AF0008007F7D4207800072CD57948A169D9B1AF
:100B0000C0F80090FFF7F6FD074604E0FFF7F2FD9E
:100B1000C01B02280FD8686A8007F7D571484FF4C8
:100B2000FA510068B0FBF1F0009000BF0098411E40
:100B30000091FAD20EE080E0C0F80080FFF7DAFD05
:100B4000074604E0FFF7D6FDC01B022875D8686A87
:100B50008007F7D42078400760D5E8690027C000F7
:100B600008D4E86940F08050E861E869012700F0A6
:100B7000805000905C480168C90513D40168834621
:100B800041F480710160FFF7B5FD824606E000BFC9
:100B9000FFF7B0FDA0EB0A0064284ED8DBF8000098
:100BA000C005F5D5E06801280AD008B1052813D0A2
:100BB000286A20F001002862286A20F0040002E080
:100BC000286A40F001002862E06841F2883B98B151
:100BD000FFF790FD82460BE0286A40F0040028628F
:100BE000EEE700BFFFF786FDA0EB0A0159455AD892
:100BF000286A8007F6D50CE0FFF77CFD824605E009
:100C0000FFF778FDA0EB0A0159454CD8286A800708
:100C1000F6D41FB1E86920F08050E861E06988B33C
:100C20006968C1F38101022944D00228C6F86080B6
:100C300004D0FFF75FFD044638E034E0FFF75AFDCB
:100C4000074604E0FFF756FDC01B02282BD8286892
:100C50008001F7D4206AB0F5803F05D16868A168AB
:100C600020F4003008436860D4E90801084369684B
:100C700021F4741108436860C6F86090FFF73AFDEC
:100C8000044606E025E000BFFFF734FD001B022804
:100C900009D828688001F7D51BE000BFFFF72AFDBF
:100CA000001B022802D90320BDE8F88F28688001C4
:100CB000F4D40EE00128F7D06868226A00F480318D
:100CC000914204D1616A00F47010884201D0012081
:100CD000EAE70020E8E7000000100240000042427E
:100CE00080044242100000200070004010B5401EF9
:100CF000B0F1807F01D3012010BD4FF0E02460618E
:100D00000F21601700F09EFA0020A06107202061EB
:100D1000002010BD70B5040004D094F841000025F7
:100D200010B106E0012070BD84F84050204600F06C
:100D300023F8242084F841002068C16821F4005180
:100D4000C160204600F0D8F92068016921F4904183
:100D500001612068416921F02A0141612068C16870
:100D600041F40051C1606564202084F8410084F89A
:100D700042006563002070BD70B586B00024009409
:100D8000019402940394234E036823490220032212
:100D9000224DB34219D18B6943F480438B618B6937
:100DA00003F4804304938B6943F004038B618969E6
:100DB000039201F0040104910102CDE9001069469B
:100DC0002846FFF79BFB28151BE0154EB3421FD1A9
:100DD000CB6943F40033CB61CB6903F40033049354
:100DE0008B6943F004038B618969039201F004016C
:100DF00004910421CDE9001069462846FFF77EFBE7
:100E00000820CDE90004694628460294FFF776FBE6
:100E100006B070BD003801400010024000080140DB
:100E2000004400402DE9F843044690F841009846FC
:100E300016460D46202802D00220BDE8F88385B171
:100E40007EB100206064212084F84100FFF752FC4D
:100E5000A6848146E684A0682027B0F5805F02D092
:100E600003E00120E9E7206910B12E4600250EE0DD
:100E700000260CE08021204600F09AF9A8B9C6B1FE
:100E800016F8010B21684860E08C401EE084E08C7D
:100E90004B464FF00002CDF800800028EAD14FF019
:100EA0004001204600F084F940B184F841700320ED
:100EB000C3E735F8020BC0F30800E3E784F841709C
:100EC0000020BAE7FEE7000030B585B000200290B0
:100ED00003903548816941F040018161816901F0E9
:100EE00040010491816941F010018161816901F043
:100EF00010010491816941F080018161816901F0F3
:100F000080010491816941F004018161816901F0EE
:100F100004010491816941F008018161816901F056
:100F200008010491816941F480718161816901F452
:100F300080710491816941F02001816180694FF6DF
:100F4000FF75032400F02000CDE9005404906946A9
:100F50001648FFF7D3FAA810CDE9000469461448F3
:100F6000FFF7CCFACDE9005469461248FFF7C6FAFC
:100F700049F6F210CDE9000469460F48FFF7BEFAC2
:100F8000CDE9005469460D48FFF7B8FACDE90054A1
:100F900069460B48FFF7B2FACDE9005469460948A3
:100FA000FFF7ACFA05B030BD001002400018014058
:100FB00000100140001C014000080140000C0140ED
:100FC00000200140001401400C4810B50A4901609E
:100FD0004FF4E1314160002181600C22C160C0E921
:100FE00004128161C161FFF795FE002803D0BDE8BE
:100FF0001040FFF744B910BD003801401C0000202C
:101000000C4810B50A4901604FF4E13141600021FC
:1010100081600C22C160C0E904128161C161FFF7E7
:1010200079FE002803D0BDE81040FFF728B910BDB5
:101030000044004064000020FEE7FEE77047704770
:10104000FFF75EBB30B58FB028216846FFF7B7F8D1
:1010500014210AA8FFF7B3F80920012100904FF4EA
:101060008030002404910691CDE901040225CDE9E8
:1010700007504FF4E01009906846FFF7A7FC08B14D
:1010800072B6FEE70F20CDE90A054FF48060CDE986
:101090000C4002210AA80E94FFF7BCFB002801D0E7
:1010A00072B6FEE70FB030BD704701680C3151E8F1
:1010B000002F22F4907241E80023002BF5D1016843
:1010C000143151E8002F22F0010241E80023002BE7
:1010D000F5D1016B012909D101680C3151E8002FCC
:1010E00022F0100241E80023002BF5D1202180F8E6
:1010F000421000210163704770B504460068016921
:10110000E26821F44051114301612169A06808435C
:10111000616908432168CA6841F20C639A4302433B
:10112000CA6020684169A26921F44071114341619C
:101130001E492068884202D1FFF712FC01E0FFF748
:10114000FFFB00EBC00101EB00126068642180002E
:10115000B2FBF0F3B3FBF1F36FF018067343B2FB8D
:10116000F0F5B2FBF0F605EB8305322303EB051532
:10117000B5FBF1F5B6FBF1F605F0F00505EB06154C
:10118000B2FBF0F6B2FBF0F0B0FBF1F06FF018023A
:10119000504306EB800003EB0010B0FBF1F0216838
:1011A00000F00F002844886070BD00000038014046
:1011B0002DE9F843984617460D460446089E24E05C
:1011C000701C22D0FFF796FAA0EB0800B0421AD8A4
:1011D000CEB12068C168490717D5802D15D0402DA4
:1011E00013D00168C94309070FD40168002540687E
:1011F00000902046FFF759FF0820606484F84050B3
:101200000120BDE8F8830320FBE72068006835EA89
:10121000000004D00020B842D2D00020F1E7012025
:10122000F9E7FEE70FB4054B10B503A9044A02988D
:1012300000F028F810BC5DF814FB000075170408D6
:10124000180000200907090E002804DB00F1E02047
:1012500080F80014704700F00F0000F1E02080F8E3
:10126000141D704702E008C8121F08C1002AFAD1F5
:1012700070477047002001E001C1121F002AFBD116
:10128000704700002DE9FF4F8DB09B460F46044686
:10129000002606E025280BD05A460F999047641C7B
:1012A000761C20780028F5D111B03046BDE8F08FCB
:1012B0000025A8460122984900E0054314F8013FA3
:1012C000203B02FA03F00842F7D120782E2817D1EC
:1012D00014F8010F45F004052A280ED06FF02F02F4
:1012E0002078A0F1300109290AD808EB880102EB27
:1012F000410100EB0108641CF2E757F8048B641C01
:1013000020786C280DD004DC4C2812D06A2811D12A
:1013100004E074280DD07A280CD10AE045F40015B9
:1013200007E0617845F48015814202D1641C05F51F
:101330008015641C2078692844D008DC0028B3D0CC
:10134000582867D063280FD0642808D13AE0702865
:1013500065D0732812D075285AD078285AD05A46AA
:101360000F999047761CD5E017F8040B8DF8000014
:1013700000208DF80100E946012003E057F8049BA6
:101380004FF0FF3069074FF0000501D40AE06D1CF3
:1013900045450DDA8542FADB19F805100029F6D12A
:1013A00006E06D1C8542FCDB19F805100029F8D118
:1013B0002E4404E019F8010B5A460F9990476D1E10
:1013C000F8D2A7E00A200021CDE90801C5F30250B8
:1013D00002280CD001CFC117021E71F100020CDAF5
:1013E0000023D0EB030063EB01012D2208E0FF1D79
:1013F00027F00707F7E80201EEE72A0504D52B22BC
:101400008DF8282001223CE0EA073AD02022F7E7B5
:101410000A2000E010200021CDE9080107E010209B
:10142000002145F00405CDE908014FF00808C5F397
:101430000250022810D001CF00214FF0000A2A07E5
:1014400020D52278702A0DD0DDE908C38CF0100C6D
:101450005CEA030C0CD015E0FF1D27F00707F7E846
:101460000201EAE740228DF828204FF0010A0CE043
:1014700050EA010306D030238DF828308DF829205A
:10148000022292462278582A04D024A20DF1200983
:101490000B9209E026A2F9E7DDE90823FEF79AFEA0
:1014A0000B9B9B5C09F8013D50EA0102F4D1ADEBC6
:1014B000090020300890680701D44FF0010808990E
:1014C000884503DD0898A8EB000000E00020804676
:1014D000002506E00AA85A46405D0F9990476D1C0A
:1014E000761C5545F6DB04E030205A460F999047AC
:1014F000761CB8F10001A8F10108F5DC05E019F847
:10150000010B5A460F999047761C0899481E08907F
:101510000029F4DC641CC4E60928010030313233B0
:10152000343536373839616263646566000000001F
:101530003031323334353637383941424344454609
:1015400000000000FEF77CBF10B586B0012400212A
:1015500004910091CDE9014084F3108804A9684604
:101560000394FEF719FF002080F3108806B0204690
:1015700010BDFEF7AFBF10B5014601240220FEF7F3
:1015800069FF00B90024204610BD012080F31088B7
:101590007047002080F310887047000070B515A0D8
:1015A000FFF740FE184E19A03168FFF73BFE0024FC
:1015B0004FF0006505E000BF05EBC42000F07AF8AD
:1015C000641C30688442F7D317A0FFF72BFE1B4C36
:1015D0001B492846226800F081F8194928462268EC
:1015E00000F03EF820B117A0BDE87040FFF71ABE2A
:1015F00016A0F9E775706461746120737461727488
:101600002E2E2E2E0D0A0000140000205072657040
:1016100061726520746F2065726173652025642096
:10162000706167650D0A0000777269746520626FEA
:101630006F742062696E2E2E2E0D0A00B82C0408DD
:10164000FE1704086572726F720D0A00757064618E
:10165000746520636F6D706C657465640D0A0000BD
:10166000F0B50346124F0320012600259C18BC420A
:1016700015D2002A13D000240DE01F7891F800C085
:10168000BC4505D0FF2F02D00220012500E0002636
:10169000491C5B1C641C944202D2002DEDD0F0BDAD
:1016A000002DFCD1012E01D00120F0BD0020F0BDA5
:1016B000FFFF070870B505460124A0F10060B0F5F2
:1016C000002F09D2680507D1FFF753FF2846FFF71F
:1016D0003BFF0446FFF736FF204670BD2DE9FC4175
:1016E00005460020CDE90000884614462049012720
:1016F0002819884238D8BCB3A80735D141462846B6
:10170000FFF7AEFF28B1FFF740FFFFF732FF0026DB
:1017100011E0002728E00020CDE90000D8F8000003
:10172000009002462846019BFFF725FFC0B92D1DFA
:1017300008F10408761CB6EB940FECD3A0070ED08A
:101740000020CDE9000004F0030241466846FEF7A0
:101750001DFDDDE900232846FFF70DFF00B9002736
:10176000FFF7F0FEFFF715FF3846BDE8FC810000EB
:10177000FFFF070810B5044605484FF47A73014689
:10178000047001220348FFF74DFB204610BD000006
:10179000000000201C0000200A4909480860FEF7EC
:1017A000B7FFFFF74FFCFFF78FFBFFF70DFCFFF7CD
:1017B00027FC05A0FFF736FDFFF7F0FEFEE700006F
:1017C0000000040808ED00E04150502052554E0D35
:1017D0000A000000010202030405060708090A0BBB
:1017E0000C0D0E0F101000000000000000000102A0
:1017F0000304060708090000000001020304A8040E
:10180000002049010008DB0E0008050D0008D90E74
:10181000000857020008C310000800000000000084
:1018200000000000000000000000DF0E0008590268
:10183000000800000000DD0E0008E10E0008630152
:1018400000086301000863010008630100086301E8
:1018500000086301000863010008630100086301D8
:1018600000086301000863010008630100086301C8
:1018700000086301000863010008630100086301B8
:1018800000086301000863010008630100086301A8
:101890000008630100086301000863010008630198
:1018A0000008630100086301000863010008630188
:1018B0000008630100086301000863010008630178
:1018C0000008630100086301000863010008630168
:1018D0000008630100086301000863010008630158
:1018E0000008630100086301000863010008630148
:1018F0000008630100086301000863010008630138
:101900000008630100086301000863010008630127
:101910000008630100086301000863010008630117
:101920000008630100086301000863010008DFF894
:1019300010D000F06EF80048004719140008AFF30B
:101940000080A80400200648804706480047FEE7BC
:10195000FEE7FEE7FEE7FEE7FEE7FEE7FEE7FEE75F
:10196000FEE7490F000831010008202A04DB203A75
:1019700021FA02F00021704721FA02F3D040C2F1AF
:1019800020029140084319467047D2B201E000F8A6
:10199000012B491EFBD270470022F6E710B5134613
:1019A0000A4604461946FFF7F0FF204610BD2DE910
:1019B000F05F0546002092469B46884606468146D3
:1019C00040241BE02846414647462246FFF7CDFF0C
:1019D00053465A46C01A914110D311461846224622
:1019E00000F029F82D1A67EB01084F462246012026
:1019F000002100F020F817EB00094E41201EA4F151
:101A00000104DFDC484631462A464346BDE8F09FE4
:101A10000000064C074D06E0E06840F0010394E842
:101A2000070098471034AC42F6D3FFF784FF8014C8
:101A30000008A0140008202A04DB203A00FA02F172
:101A4000002070479140C2F1200320FA03F31943AC
:101A500090407047FEE7704772B6FEE700002DE940
:101A6000F84FDFF8C8910024A9F1040B23460F2793
:101A700009F1040AABF1040ED1E00125A54006EA04
:101A80000502AA4276D1DFF8A8C14E68A6EB0C0881
:101A900066452BD00DDC032E34D005DC36B3012E89
:101AA00019D0022E2FD11BE0112E16D0122E2AD1C2
:101AB00019E0B8F5881F19D006DCB8F5803F15D0BD
:101AC000B8F5801F1FD111E0B8F5001F0ED0B8F592
:101AD000041F18D10AE0CB6815E0CB681B1D12E08B
:101AE000CB6808330FE0CB680C330CE08B682BB16C
:101AF000012B4FF0080303D0456104E0042302E00A
:101B0000056100E00023FF2A01D8064601E000F14C
:101B100004064FEA840501D9A5F12005D6F8008016
:101B200007FA05FC28EA0C0803FA05F548EA050857
:101B3000C6F800804D68ED0070D53E4DAE6946F0A8
:101B40000106AE61AD6924F0030605F001050095BC
:101B50003A4D06EB050CDCF80850A607360F07FADD
:101B600006F825EA0805DFF8D480404503D14FF098
:101B7000000825E052E0DFF8C880404502D14FF070
:101B800001081DE0DFF8C080404502D14FF0020897
:101B900016E0DFF8B480404502D14FF003080FE0B3
:101BA000DFF8AC80404502D14FF0040808E0DFF8D0
:101BB000A080404502D14FF0050801E04FF0060833
:101BC00008FA06F848EA0508CCF808804D68D9F804
:101BD0000060ED024D4601D5164300E096432E60AD
:101BE0004D68DAF80060AD02554601D5164300E0B5
:101BF00096432E604D68DBF80060AD035D4601D56D
:101C0000164300E096432E604D68DEF80060ED0359
:101C1000754601D5164300E096432E60641C0A68A1
:101C20001646E2407FF429AFBDE8F88F00000804B3
:101C300001400000111000100240000001400008A7
:101C40000140000C01400010014000140140001848
:101C50000140001C014001488068704700000400FA
:101C600000200248816802781144816070470400B6
:101C70000020074810B5016841F010010160032001
:101C800000F067F80F2000F006F800F024F80020BC
:101C900010BD0020024070B50D4D04464FF47A711E
:101CA0002878B1FBF0F00A490968B1FBF0F000F0C8
:101CB0003CFB48B9102C07D200222146501E00F0F0
:101CC00028F800206C6070BD012070BD0000040089
:101CD0000020100000200C4808B5816941F0010186
:101CE0008161816901F001010091C16941F0805178
:101CF000C161C06900F0805000900448416821F043
:101D0000E06141F00071416008BD00100240000038
:101D10000140F0B40E4B1B680C46C3F30223C3F121
:101D20000705042D00D90425191D072901D2002318
:101D300000E0DB1E012606FA05F1491E214099400C
:101D40009E40761E16403143F0BC00F0CABD0CED3B
:101D500000E0064900F0070208684FF6FF0318404C
:101D600040EA0220034A10430860704700000CED6F
:101D700000E00000FA052DE9F0470F46050061D0AC
:101D8000434E306800F00700B84209D2306820F0B6
:101D9000070038433060306800F00700B84251D186
:101DA00028683B4C810712D5400703D5606840F492
:101DB000E06060602878000703D5606840F46050F8
:101DC00060606068A96820F0F000084360602878CF
:101DD000C00728D06868012810D02168022810D0D8
:101DE000890700292EDA616821F00301014361604F
:101DF000FFF731FF804641F288390DE02168890301
:101E0000EFE78901EDE7FFF726FFA0EB0801494561
:101E100002D90320BDE8F0876068696800F00C0013
:101E2000B0EB810FEFD1306800F00700B8420BD95A
:101E3000306820F0070038433060306800F0070059
:101E4000B84201D00120E5E72878400705D5606851
:101E5000E96820F4E060084360602878000706D550
:101E60006068296920F4605040EAC100606000F0B9
:101E7000A6F86168084AC1F30311515CC8400649DD
:101E8000086006480068FFF706FF0020C2E7002050
:101E900002400010024066140008100000200800F4
:101EA00000202DE9F041FFF7D6FE304C05462068B2
:101EB00040F00100206005E000BFFFF7CCFE401BB2
:101EC000022843D820688007F7D5206820F0F80062
:101ED00040F080002060FFF7BEFE002506466560EA
:101EE00041F2883704E0FFF7B6FE801BB8422DD8D8
:101EF000606810F00C0FF6D11F491D4808601E489D
:101F00000068FFF7C8FE10B10120BDE8F081FFF7BF
:101F1000A2FE0646206820F08070206004E0FFF7F3
:101F20009AFE801B022811D820688001F7D46560D2
:101F3000FFF791FE0646206820F41020206007E09D
:101F400000BFFFF788FE801B642801D90320DCE76F
:101F500020688003F5D4206820F480202060606A27
:101F600040F080706062A5600020CEE700000010A5
:101F7000024000127A0010000020080000200448EF
:101F8000054900684968044AC1F30221515CC84010
:101F9000704710000020001002407614000804482A
:101FA000054900684968044AC1F3C221515CC84030
:101FB00070471000002000100240761400080E4AFE
:101FC00051680E4801F00C03042B11D0082B0FD1DF
:101FD0000C48C1F38343C903C05C0AD55168084A61
:101FE000C1F34041921E515C054A5043B0FBF1F0F1
:101FF0007047044948437047000000100240001237
:102000007A005614000800093D002DE9F84F04003D
:1020100070D02078C04DC00749D06868C0F38100F7
:10202000012807D06868C0F38100022809D16868D8
:10203000C00306D52868800339D560680028E7D03A
:1020400035E06068B0F5803F0BD010B1B0F5A02F3F
:1020500011D0286820F480302860286820F480207F
:1020600002E0286840F480302860606890B1FFF793
:10207000F2FD06460AE0286840F480202860F0E778
:1020800000BFFFF7E8FD801B642873D82868800331
:10209000F7D50CE0FFF7DFFD064605E000BFFFF7D0
:1020A000DAFD801B6428F0D828688003F7D42078F4
:1020B0009A4E80074FF001094FF0000839D5686843
:1020C00010F00C0F07D06868C0F38100022809D116
:1020D0006868C00306D42868800714D520690128E1
:1020E00008D110E02069B0B1C6F80090FFF7B3FD49
:1020F000074605E00AE1FFF7AEFDC01B0228C4D881
:1021000028688007F7D52868616920F0F80040EA60
:10211000C10028600DE0C6F80080FFF79CFD07466F
:1021200004E0FFF798FDC01B022823D82868800729
:10213000F7D4207800072CD57948A169D9B1C0F827
:102140000090FFF788FD074604E0FFF784FDC01B01
:1021500002280FD8686A8007F7D571484FF4FA5102
:102160000068B0FBF1F0009000BF0098411E0091A4
:10217000FAD20EE080E0C0F80080FFF76CFD074661
:1021800004E0FFF768FDC01B022875D8686A800765
:10219000F7D42078400760D5E8690027C00008D44C
:1021A000E86940F08050E861E869012700F080505C
:1021B00000905C480168C90513D40168834641F466
:1021C00080710160FFF747FD824606E000BFFFF720
:1021D00042FDA0EB0A0064284ED8DBF80000C005E1
:1021E000F5D5E06801280AD008B1052813D0286A7F
:1021F00020F001002862286A20F0040002E0286A2A
:1022000040F001002862E06841F2883B98B1FFF796
:1022100022FD82460BE0286A40F004002862EEE7C7
:1022200000BFFFF718FDA0EB0A0159455AD8286AEC
:102230008007F6D50CE0FFF70EFD824605E0FFF7BC
:102240000AFDA0EB0A0159454CD8286A8007F6D44C
:102250001FB1E86920F08050E861E06988B36968DF
:10226000C1F38101022944D00228C6F8608004D05D
:10227000FFF7F1FC044638E034E0FFF7ECFC0746DA
:1022800004E0FFF7E8FCC01B02282BD82868800177
:10229000F7D4206AB0F5803F05D16868A16820F4C2
:1022A000003008436860D4E908010843696821F4F4
:1022B000741108436860C6F86090FFF7CCFC0446D0
:1022C00006E025E000BFFFF7C6FC001B022809D886
:1022D00028688001F7D51BE000BFFFF7BCFC001B9E
:1022E000022802D90320BDE8F88F28688001F4D4C1
:1022F0000EE00128F7D06868226A00F4803191422C
:1023000004D1616A00F47010884201D00120EAE72C
:102310000020E8E700000010024000004242800474
:102320004242100000200070004010B5401EB0F185
:10233000807F01D3012010BD4FF0E02460610F21A8
:10234000601700F0CEFA0020A06107202061002075
:1023500010BD70B5040004D094F84100002510B100
:1023600006E0012070BD84F84050204600F023F8BC
:10237000242084F841002068C16821F40051C16024
:10238000204600F008FA2068016921F490410161BB
:102390002068416921F02A0141612068C16841F447
:1023A0000051C1606564202084F8410084F8420037
:1023B0006563002070BD70B586B000240094019460
:1023C00002940394234E0368234902200322224DE2
:1023D000B34219D18B6943F480438B618B6903F459
:1023E000804304938B6943F004038B6189690392F2
:1023F00001F0040104910102CDE90010694628466C
:10240000FFF72DFB28151BE0154EB3421FD1CB69FA
:1024100043F40033CB61CB6903F4003304938B693D
:1024200043F004038B618969039201F00401049174
:102430000421CDE9001069462846FFF710FB08206B
:10244000CDE90004694628460294FFF708FB06B070
:1024500070BD0038014000100240000801400044F7
:1024600000402DE9F843044690F84100984616468E
:102470000D46202802D00220BDE8F88385B17EB148
:1024800000206064212084F84100FFF7E4FBA6846B
:102490008146E684A0682027B0F5805F02D003E083
:1024A0000120E9E7206910B12E4600250EE0002644
:1024B0000CE08021204600F0CAF9A8B9C6B116F890
:1024C000010B21684860E08C401EE084E08C4B46A4
:1024D0004FF00002CDF800800028EAD14FF0400113
:1024E000204600F0B4F940B184F841700320C3E7FE
:1024F00035F8020BC0F30800E3E784F841700020D0
:10250000BAE7FEE70000002400F06BFBFFF7C9FC10
:102510004FF0E0210020086148618861411EA00061
:1025200000F1E020C0F88011C0F88012641C082C73
:10253000F5D300F05AFB06494868096881F308881A
:10254000002181F31488804703A000F0BAF9FBE76B
:102550000000000004086A756D70206572726F7269
:102560000D0A0000000030B585B0002002900390F5
:102570003548816941F040018161816901F0400184
:102580000491816941F010018161816901F01001BC
:102590000491816941F080018161816901F08001CC
:1025A0000491816941F004018161816901F00401B4
:1025B0000491816941F008018161816901F008019C
:1025C0000491816941F480718161816901F48071B4
:1025D0000491816941F02001816180694FF6FF75A6
:1025E000032400F02000CDE9005404906946164809
:1025F000FFF735FAA810CDE9000469461448FFF743
:102600002EFACDE9005469461248FFF728FA49F638
:10261000F210CDE9000469460F48FFF720FACDE932
:10262000005469460D48FFF71AFACDE9005469468F
:102630000B48FFF714FACDE9005469460948FFF743
:102640000EFA05B030BD0010024000180140001025
:102650000140001C014000080140000C0140002026
:102660000140001401400C4810B50A4901604FF4C4
:10267000E1314160002181600C22C160C0E9041297
:102680008161C161FFF765FE002803D0BDE81040FD
:10269000FFF7E2B910BD00380140180000200C48D7
:1026A00010B50A4901604FF4E131416000218160B9
:1026B0000C22C160C0E904128161C161FFF749FECB
:1026C000002803D0BDE81040FFF7C6B910BD004494
:1026D000004060000020FEE7FEE770477047FFF70C
:1026E000C0BA30B58FB028216846FFF755F91421DC
:1026F0000AA8FFF751F90920012100904FF480301A
:10270000002404910691CDE901040225CDE907508A
:102710004FF4E01009906846FFF777FC08B172B6F5
:10272000FEE70F20CDE90A054FF48060CDE90C40AB
:1027300002210AA80E94FFF71EFB002801D072B6F2
:10274000FEE70FB030BD704701680C3151E8002F33
:1027500022F4907241E80023002BF5D10168143176
:1027600051E8002F22F0010241E80023002BF5D1AF
:10277000016B012909D101680C3151E8002F22F0C9
:10278000100241E80023002BF5D1202180F84210EF
:1027900000210163704770B5044600680169E26872
:1027A00021F44051114301612169A0680843616926
:1027B00008432168CA6841F20C639A430243CA6025
:1027C00020684169A26921F44071114341611E49A9
:1027D0002068884202D1FFF7E2FB01E0FFF7CFFB60
:1027E00000EBC00101EB0012606864218000B2FBC5
:1027F000F0F3B3FBF1F36FF018067343B2FBF0F59F
:10280000B2FBF0F605EB8305322303EB0515B5FBB0
:10281000F1F5B6FBF1F605F0F00505EB0615B2FB98
:10282000F0F6B2FBF0F0B0FBF1F06FF0180250439D
:1028300006EB800003EB0010B0FBF1F0216800F024
:102840000F002844886070BD0000003801402DE969
:10285000F843984617460D460446089E24E0701C2F
:1028600022D0FFF7F8F9A0EB0800B0421AD8CEB199
:102870002068C168490717D5802D15D0402D13D089
:102880000168C94309070FD401680025406800901A
:102890002046FFF759FF0820606484F8405001206B
:1028A000BDE8F8830320FBE72068006835EA0000F4
:1028B00004D00020B842D2D00020F1E70120F9E78F
:1028C000FEE70FB4054B10B503A9044A029800F0C7
:1028D00028F810BC5DF814FB0000F5130008140084
:1028E00000200907090E002804DB00F1E02080F831
:1028F0000014704700F00F0000F1E02080F8141D74
:10290000704702E008C8121F08C1002AFAD17047B8
:102910007047002001E001C1121F002AFBD170475F
:1029200000002DE9FF4F8DB09B460F460446002660
:1029300006E025280BD05A460F999047641C761C58
:1029400020780028F5D111B03046BDE8F08F002581
:10295000A8460122984900E0054314F8013F203BB6
:1029600002FA03F00842F7D120782E2817D114F884
:10297000010F45F004052A280ED06FF02F022078B1
:10298000A0F1300109290AD808EB880102EB4101C6
:1029900000EB0108641CF2E757F8048B641C2078F4
:1029A0006C280DD004DC4C2812D06A2811D104E028
:1029B00074280DD07A280CD10AE045F4001507E000
:1029C000617845F48015814202D1641C05F58015BB
:1029D000641C2078692844D008DC0028B3D058282B
:1029E00067D063280FD0642808D13AE0702865D0FA
:1029F000732812D075285AD078285AD05A460F9981
:102A00009047761CD5E017F8040B8DF800000020E5
:102A10008DF80100E946012003E057F8049B4FF0D0
:102A2000FF3069074FF0000501D40AE06D1C4545F1
:102A30000DDA8542FADB19F805100029F6D106E017
:102A40006D1C8542FCDB19F805100029F8D12E44D5
:102A500004E019F8010B5A460F9990476D1EF8D201
:102A6000A7E00A200021CDE90801C5F302500228A1
:102A70000CD001CFC117021E71F100020CDA002345
:102A8000D0EB030063EB01012D2208E0FF1D27F0CE
:102A90000707F7E80201EEE72A0504D52B228DF897
:102AA000282001223CE0EA073AD02022F7E70A205A
:102AB00000E010200021CDE9080107E010200021EE
:102AC00045F00405CDE908014FF00808C5F30250B0
:102AD000022810D001CF00214FF0000A2A0720D58C
:102AE0002278702A0DD0DDE908C38CF0100C5CEA66
:102AF000030C0CD015E0FF1D27F00707F7E80201D3
:102B0000EAE740228DF828204FF0010A0CE050EA55
:102B1000010306D030238DF828308DF829200222B9
:102B200092462278582A04D024A20DF120090B9253
:102B300009E026A2F9E7DDE90823FEF738FF0B9B41
:102B40009B5C09F8013D50EA0102F4D1ADEB0900AC
:102B500020300890680701D44FF001080899884593
:102B600003DD0898A8EB000000E000208046002567
:102B700006E00AA85A46405D0F9990476D1C761CE6
:102B80005545F6DB04E030205A460F999047761CF5
:102B9000B8F10001A8F10108F5DC05E019F8010B16
:102BA0005A460F999047761C0899481E08900029AC
:102BB000F4DC641CC4E609280100303132333435BA
:102BC0003637383961626364656600000000303171
:102BD00032333435363738394142434445460000B4
:102BE0000000012080F310887047002080F31088D7
:102BF000704710B5044605484FF47A7301460470D7
:102C000001220348FFF72DFC204610BD0000000004
:102C100000201800002009494FF000600860FFF70D
:102C200028F8FFF75EFDFFF79EFCFFF71CFDFFF79E
:102C300036FD03A0FFF745FEFFF765FCFEE708ED54
:102C400000E0424F4F542052554E2D310D0A0000E6
:102C50000000010202030405060708090A0B0C0D17
:102C60000E0F10100000000000000000010203041D
:102C70000607080900000000010203040000A01478
:102C80000008000000201800000004110008B8141B
:102C90000008180000209004000014110008000033
:102CA0000000010000001000000000000000001201
:102CB0007A00000000000000B8140000DC2C0408BA
:102CC000000000201C00000064120408F82C040816
:102CD0001C000020B404000074120408000000006E
:102CE00001000000100000000000000000127A0047
:082CF00080000000000000005C
:0400000508040131B9
:00000001FF
