:10B00000F03F002065ED0000EFE30000B7E6000030
:10B010000000000000000000000000000000000030
:10B02000000000000000000000000000A3E200009B
:10B030000000000000000000A3E20000A3E2000006
:10B04000A3E20000A3E200004DF30000B9E6000017
:10B05000A3E20000A3E20000A3E20000A3E20000DC
:10B06000A3E2000059EA0000A3E20000A3E200000E
:10B07000A3E200000000000000000000A3E20000C6
:10B0800000000000A3E20000A3E20000A3E2000031
:10B09000A3E20000A3E20000A3E200004DF20000E2
:10B0A000A3E20000A3E20000A3E20000A3E200008C
:10B0B000A3E20000A3E200002DFD0000F8B5C046A9
:10B0C000F8BC08BC9E467047FDEC0000F8B5C046D1
:10B0D000F8BC08BC9E467047D5EC00000027002055
:10B0E0001C000000000000000B1000200100000008
:10B0F000000000000B200020010000000000000004
:10B100008B2600200100000000000000E62900203E
:10B110000200000001000000060100000C240020D5
:10B12000C0000000000000006C2700200C000000A0
:10B1300000000000CC2400200001000000000000FE
:10B140001C2600204000000000000000F027002026
:10B150000800000000000000BB26002001000000E5
:10B16000000000005927002001000000000000003E
:10B17000782700200C000000000000001C270020A1
:10B180001800000000000000F82700200800000060
:10B1900000000000B22700200200000000000000B4
:10B1A000ED270020010000000000000028280020FA
:10B1B0000400000000000000EE2700200200000054
:10B1C00000000000E8290020080000000100000045
:10B1D000D029002001000A036E2800200200000090
:10B1E0000100000014000000F0290020060000000B
:10B1F0000100000002004030000300007829002018
:10B20000180000000100000002000000000008001B
:10B210000001020602000000000008000003000612
:10B22000D02900200C00000001000000F0290020BF
:10B230007829002078270020F82900200600000047
:10B24000010000004601001401000000DC2900207C
:10B250000A00000001000000020004C89600140566
:10B2600014010000C02900201000000001000000AF
:10B27000F8270020DC2900201C270020F8290020C6
:10B280005828002002000000000000005428002080
:10B290000200000000000000E02600202000000066
:10B2A000000000002C280020040000000000000026
:10B2B000BC2600202400000000000000842700209D
:10B2C0000C000000000000005A28002005000000CB
:10B2D00000000000902700200C000000000000008B
:10B2E0005F28002001000000000000000C0000208A
:10B2F000FF0F000000000000BE2700200200000039
:10B3000000000000CA27002002000000000000002A
:10B310000C100020FF0F000000000000D6270020C6
:10B320000200000000000000E227002002000000F0
:10B33000000000005C27002010000000000000005A
:10B340000028002008000000000000006028002005
:10B35000070000000000000008280020080000008E
:10B3600000000000702800207800000001000000AC
:10B3700087F100009C2700200C0002008AF10000E9
:10B38000B42700200A00020097F10000C027002027
:10B390000A00020089F10000902900201800020034
:10B3A00089F00000182800200800020080F1000049
:10B3B000102800200800020090F10000482700201B
:10B3C0001100020084F10000A82700200A010200F9
:10B3D00016020000A829002015000200FAF0000063
:10B3E000E4270020090002001028002010000000BF
:10B3F00000000000A82700200A0000000000000054
:10B400009C2700200C00000000000000E427002022
:10B410000900000000000000B42700200A0000001E
:10B4200000000000C02700200A000000000000000B
:10B43000482700201100000000000000A82900207B
:10B44000150000000100000053573A454849534693
:10B450004C2E312E33432E3035000000000000000A
:10B4600090290020180000000100000053573A31D5
:10B470002E30312E425F3236303130385F33313941
:10B48000375F303267280020030000000000000012
:10B49000E8280020700000000100000000003D00CE
:10B4A00000000000000000082DF5000001003C0035
:10B4B000000000000000000859E400000000110036
:10B4C000000000000000000819E700000000130061
:10B4D000000000000000000839E80000000014002F
:10B4E000000000000000000895E8000000001200C5
:10B4F0000000000000000008F1E800000100FF006B
:10B5000000000000000000086FF80000F62900208D
:10B510000100000001000000FF0000006A28002078
:10B52000030000000000000030280020140000008C
:10B53000000000005628002002000000000000006B
:10B54000F7290020010000000100000001000000B8
:10B550005C2600202F000000000000008C26002048
:10B560002F000000000000006D28002001000000F6
:10B57000000000000C20002000040000000000007B
:10B58000442800200400000000000000CC27002018
:10B590000A00000000000000D82700200A00000078
:10B5A0000000000048280020040000000000000007
:10B5B000BD29002001000000010000000100000082
:10B5C00034270020140000000000000000000020CC
:10B5D0000C000000000000005A27002002000000BC
:10B5E000000000004C2800200400000000000000C3
:10B5F000CC25002050000000000000005829002049
:10B600002000000001000000010000000300000015
:10B61000000000000000000000000000000000002A
:10B620000000000020280020202800200800000042
:10B63000000000005028002004000000000000006E
:10B64000000000000000000066666666F0B587B086
:10B650000090009B0B20002B00D1E2E10026032785
:10B660005B68049602931B88019605930396049BDE
:10B67000059A93421ED1009B1A68137859B200298B
:10B680000BDA0820002101268446049C88B28442FB
:10B6900000D9FFE07F210B401370039B002B00D0EB
:10B6A00009E1019801231178002800D15BE10B43E7
:10B6B00013705AE1009BB5009B685D191E236A68F0
:10B6C0001178194001D001232B702B78042B73D0F3
:10B6D0000AD8022B2ED043D8012B23D0049B03364B
:10B6E00001339BB20493C2E7852B00D182E0862B05
:10B6F00000D1A9E0072BF1D12989538899425FD95C
:10B70000C91A009B0298DB6840799B5D89B20341AE
:10B71000DBB28B4254D86B78002B69D101232B709C
:10B720001770DBE703930029D8D102232B7008237D
:10B730006B70D3E76978002910D05288042904D9A6
:10B740002A810139697001237CE02B899342F8D06A
:10B7500002D9013B2B81F4E70133FBE72F70BDE7F2
:10B76000298953889942B9D0009AD26810D9CB1A46
:10B770000299925D49799BB20A41D2B29A42ADD800
:10B78000029B1B79002BA9D007222A706B70DAE785
:10B7900092195B1A11789BB299429FD89378002B2B
:10B7A00005D00499009802F03FFD002896D10423AB
:10B7B0002B70029B9B78E9E729895388994202D92B
:10B7C0002F700023B4E7009A5B1AD2689BB29219DB
:10B7D00011789942F4D29378002B06D004990098FE
:10B7E00002F022FD002800D078E76B78002B47D0CC
:10B7F000013BCBE7029B00991B7A09680B712889F2
:10B800005388984207D986232B70029B9B786B70D4
:10B810000123019316E0009A1B1AD2689BB291197A
:10B820000A784978140001310C410121121BD2B26F
:10B8300001919A4200D251E786232B70029B9B789C
:10B840006B700B00039349E728895388984209D904
:10B850006B78002B01D12F7001E0013B6B7001234D
:10B8600001933BE7009A1B1AD2689BB291190A78A0
:10B870004978140001310C41121BD2B29A4204D211
:10B8800085232B70029BDB78E8E76B78002BE2D0F6
:10B89000013BBCE70C2500984D43806845196F6853
:10B8A0003878304205D164462D78A54301D0304325
:10B8B00038700131E9E6029B597A002900D1F0E69F
:10B8C000802310785B4203431370012900D0E8E61F
:10B8D00000218BB20393049B88B2834200D8E0E638
:10B8E0000C20009B48439B68082518180293037896
:10B8F0001C00AC4315D0852B01D0032B2ED1032582
:10B90000009BDF682B004B43FB189B789C46002B69
:10B9100007D000231E000595049C9C4208D8002EE9
:10B920001CD1012540680378AB4303700131D0E797
:10B93000039C9C420FD00C255D43029C2D5D042D81
:10B9400001D0862D07D1059D5D437D19AD786545F4
:10B9500001D10126049B01339BB2DDE7012340683E
:10B9600005782B43E1E7994311705288584B110039
:10B970001B88C8318B4251D99B1A9BB29C466346A7
:10B98000C82B4DD96346C83B9BB29C46009B1B68A5
:10B990005A88C8325A801A79002A00D070E05A7941
:10B9A000002A01D0013A5A719A79002A01D0013A4D
:10B9B0009A71009A50688679002E07D05A79002A29
:10B9C00004D1078891B28F4234D85E71C579002DB9
:10B9D00007D09A79002A04D1068891B2B1423CD3AB
:10B9E0009D71009B5B68DA78002AC8D01F880C2301
:10B9F000002103207B4302938BB2BB42BFD20C22B7
:10BA0000009B4A439B689A181578852D04D1557878
:10BA1000002D38D0013D55700131EDE7934202D33E
:10BA2000002007B0F0BD2B495918891AC829F7D949
:10BA3000013BA1E70C21009C5143A46861180D78DB
:10BA4000032D01D0082D06D14C680D896488AC42C5
:10BA500001D901350D810132B4E70C210098514321
:10BA6000806841180878032801D0082806D14C685E
:10BA700008896788874201D2013808810132ACE722
:10BA8000013A1A71ADE701240500147052684D4364
:10BA90001070009AD2685519AD78002DBCD0029C68
:10BAA00002321C1901920394039A9342B4D0019A72
:10BAB0001678AE4206D101225E683478144201D075
:10BAC0001A703070019A0C3303320192ECE7C046D1
:10BAD0005A270020FFFF0000F0B5D6464F464646E5
:10BAE000C0B5682871D0692800D1DBE06A2800D190
:10BAF00041E16B2800D0D0E0D34DEB7B303B9A0086
:10BB0000D21852002B7CD218303AD04914380C5C31
:10BB100007232340D40023430B5458239C46CB5C7B
:10BB20000324A343521154388246024013433C2657
:10BB3000B343AA7A303A92003C273A4013433F2558
:10BB40002B4062468B54C24A526B9046D2783A3AA6
:10BB5000D2B29201134362468B5459239C46CA5C6D
:10BB60004A3B9A436346CA5443465B79333881461D
:10BB700099440F23484618400243134062468B54B1
:10BB80004246D279303AD2B21201134362468B5404
:10BB9000B04A53793020404284469C4463469B001F
:10BBA00063445B00907984466344303B9B003B4098
:10BBB000D778303F504638405A228F5CA7433843ED
:10BBC000B043184305408D5467E09F4DEB7B303BFD
:10BBD0009A00D21852002B7CD218303A9B49413837
:10BBE0000C5C07232340D40023430B5428239C469A
:10BBF000CB5C0324A34352112438824602401343F2
:10BC00003C26B343AA7A303A92003C273A40134389
:10BC10003F252B4062468B548D4A526B9046D2781A
:10BC20003A3AD2B29201134362468B5429239C467E
:10BC3000CA5C1A3B9A436346CA5443465B7933381D
:10BC4000814699440F2348461840024313406246F8
:10BC50008B544246D279303AD2B212011343624633
:10BC60008B547C4A53793020404284469C4463463E
:10BC70009B0063445B00907984466344303B9B00A7
:10BC80003B40D778303F504638402A228F5CA7434C
:10BC90003843B043184305408D541CBC9046994628
:10BCA000A246F0BD684DEB7B303B9A00D2185200A3
:10BCB0002B7CD218303A654932380C5C072323407C
:10BCC000D40023430B5438239C46CB5C0324A3436A
:10BCD000521134388246024013433C26B343AA7AB9
:10BCE000303A92003C273A4013433F252B406246AE
:10BCF0008B54574A526B9046D2783A3AD2B292015C
:10BD0000134362468B5439239C46CA5C2A3B9A43B0
:10BD10006346CA5443465B793338814699440F23BE
:10BD2000484618400243134062468B544246D2793B
:10BD3000303AD2B21201134362468B54454A5379CA
:10BD40003020404284469C4463469B0063445B0031
:10BD5000907984466344303B9B003B40D778303F2A
:10BD6000504638403A228F5CA7433843B0431843CB
:10BD700005408D5491E7344DEB7B303B9A00D2184F
:10BD800052002B7CD218303A304923380C5C072300
:10BD90002340D40023430B5448239C46CB5C03240C
:10BDA000A343521144388246024013433C26B34316
:10BDB000AA7A303A92003C273A4013433F252B4061
:10BDC00062468B54224A526B9046D2783A3AD2B2AB
:10BDD0009201134362468B5449239C46CA5C3A3B0A
:10BDE0009A436346CA5443465B7933388146994443
:10BDF0000F23484618400243134062468B54424684
:10BE0000D279303AD2B21201134362468B54114AAE
:10BE100053793020404284469C4463469B006344EF
:10BE20005B00907984466344303B9B003B40D7786D
:10BE3000303F504638404A228F5CA7433843B043D6
:10BE4000184305408D5428E7A8290020E828002041
:10BE500070280020902900200322F0B5AC4B89B057
:10BE60001B7A0392002B14D0AA4B1B6804931B6807
:10BE700005931B880693A84B1B6807930023029326
:10BE800003936B461A89069B9A4205D30222A04B64
:10BE90001A72039809B0F0BD029B07995B00CC5A57
:10BEA000062302994B4304998968CD180C23029903
:10BEB0002E784B430499F6064968760FCB18019308
:10BEC000DB7A042E00D96CE1300003F093FE05000C
:10BED00013004C012D01E0000F21019A927A0A40D3
:10BEE000934201D99E1AF6B234416C80029B013311
:10BEF0000293C6E71C41894AA3B26B80AF88934284
:10BF000029D9874A9B1832009BB205998978402924
:10BF100026D15B08002A25D0002F27D0042B29D951
:10BF20000F24B9043A123811890F224020402740CB
:10BF3000002E50D0CF2B01D900297CD1152B00D851
:10BF400083E0002A7CD10022914200D180E00139B7
:10BF5000C9B20A227CE0714AD31A9BB20022D4E70C
:10BF6000002AD9D06F4A00269742D7D181232B705F
:10BF70000E2303932B785A0601D501230CE05BB204
:10BF8000002B0ADB0322059BDB781340934208D188
:10BF9000FF23019A137211232B70BF04BF0CAF80D3
:10BFA000A4E7022B07D10F22019B5B7A9343019AEE
:10BFB00053720923F0E7012BDFD10F22019B5B7A3B
:10BFC0001A4030231343019A53720D23E4E70131E1
:10BFD000CF3BC9B29BB2CF2B01D90329F7D1152B87
:10BFE0000DD90F2A06D10F2203290AD00131C9B277
:10BFF000052206E00132153BD2B29BB2EFE70F2AD1
:10C00000F1D0022B11D90F280AD10F2A00D1C9E093
:10C010000132D2B2052003290BD0022BDBD827E056
:10C020000130023BC0B29BB2EBE70F28EDD00329F1
:10C030001ED10321F1E70139CF3BC9B29BB279E7A9
:10C04000013A153BD2B29BB278E7002A00D17AE7D9
:10C05000022B0BD9002804D1002A11D1170010009F
:10C0600006E00138023BC0B29BB2F1E70028F3D0F2
:10C0700009038CB2120214432743000107438EE7E1
:10C08000013AD2B20A20022B00D953E7F0E71C4153
:10C09000019BA4B21F7A01200023FF2F14D17F231C
:10C0A000019A6C8013722B78012B00D01EE7FF33AE
:10C0B000FF339C4272D91A4BE418A4B2052C00D865
:10C0C00014E745232B7011E73900D94000260142BF
:10C0D00001D11E0008230133DBB2072BF4D9210064
:10C0E000100001F057FF002804D00123B3401F4384
:10C0F000019B1F720123002E08D0013EF6B2B3400F
:10C10000019A127A9A43019B1A72CCE72B70CAE704
:10C11000342700200400002008000020FF01000058
:10C1200001FEFFFFFF3F00001C41019BA4B25F7AAC
:10C130003E09032E15D02100100001F02BFF00282E
:10C140000AD1013601232B700F2336011F40019BBA
:10C150003E435E726C80A6E7002EF3D0013EF6B23D
:10C16000F2E70226F0E71C410F26019BA4B25F7A9A
:10C170003E4011D02100100001F00CFF002806D134
:10C18000013EF6B201232B700F239F43DFE7032EFE
:10C19000F8D00136F6B2F7E70126F5E7044B1C1B91
:10C1A0008BE7FEE7032900D158E7100035E7C046CA
:10C1B000FF01000010B582B00C00072A0DD1431E0C
:10C1C000984101306D4B18700A781309012B51D03A
:10C1D000002B04D0022B00D179E002B010BD684BD7
:10C1E0001B7802229343F8D1022802D14B783E2BD0
:10C1F00001D002F06BFF624B1B78022B1ED0002394
:10C200000093019321780F3319404B1E052BE4D87E
:10C210005A4B1B78022B19D05A4B198001235A48CC
:10C22000E25CC2540133072BFAD1584B06221A8024
:10C23000574B5B68002257489847CEE7534B198805
:10C24000534B5B68062253489847D8E763783E2BE8
:10C25000E2D13D3B6A46501EE25CC2540133072BDB
:10C26000FAD14B4B5B68002268469847012003F0E7
:10C2700097F9B2E7424B1B7802229343ADD102F00B
:10C2800025FF20780002F0231B0118406378184333
:10C2900006286ED93B4B1880002302343D49E25CEE
:10C2A000CA540133052BFAD1384B05221A803A4B78
:10C2B000043A1A70394B95321A60394B00221A70C1
:10C2C000334B1B6898472E4B02221A7085E72C4B84
:10C2D0001B78022B00D080E72F4B1B785BB2012B21
:10C2E00000D07AE70E331A402C4B196800201860F2
:10C2F000002925D02A4B1B780133DBB20F2B25D820
:10C3000027490B70264B1B78934223D11F4B18886B
:10C310000123411E1F4A8918E25CCA540133072BCE
:10C32000FAD1063080B2194A1080164A1188884224
:10C3300018D3194B00221A70154B5B6815489847A3
:10C3400002F0C4FE0E4B00221A7046E7144B002187
:10C350001970D7E70D4B19880D4B5B6804220D4807
:10C360009847EDE70C4B01221A700C4B95321A607E
:10C3700033E7034B00221A702FE7C0465B280020EA
:10C380005F280020BE2700200B000020CA270020C5
:10C39000842700200C0000205C280020902700202B
:10C3A0005A280020F8B56B4B00225A6005786A4B7A
:10C3B0001D70102D0ED0694A01231E001478AC4266
:10C3C00009D0013310320A2BF7D11121280002F0D5
:10C3D0000FFCF8BD0026624B1B78012B09D0022B05
:10C3E00013D0032B0CD132015E4B9B189B7A5BB2AE
:10C3F00004E032015B4B9B181B7A5BB2012B0AD025
:10C400007F21280002F0F4FBE3E73201554B9B1833
:10C410005B7A5BB2F2E7544B1B78022B0CD042786C
:10C4200089B27F2414402B00103BDFB2752F3FD818
:10C43000BB004E4FFB589F4632014A4B9B18DB7A9C
:10C440005BB2002BC5D0EAE78B1E5C4263415BB256
:10C45000002B2DD03401434B1B195C7B444B1B78C4
:10C460009C4271D834013F4B1B190C241C570023EC
:10C47000012C63D03F4A13703E2D61D03601394BF9
:10C480009E1973689847A4E78B1E5C4263415BB2B8
:10C49000DEE70B1F5C4263415BB2D9E7631E012BF1
:10C4A00004D90A2CD6D1022902D1D3E70329D1D04D
:10C4B0001321280002F09CFB8BE702238B429B4157
:10C4C0005B42C5E7092C04D00A2CC3D11229EFD155
:10C4D000C0E70229ECD1BDE701238B429B415B42BF
:10C4E000B6E704238B429B415B42B1E7CB1E5C4223
:10C4F00063415BB2ACE703238B429B415B42A7E7FE
:10C500000A238B429B415B42A2E701238B429B4162
:10C510005B429DE74B1E5C4263415BB298E78B1E1A
:10C520005C4263415BB293E78B1E5C4263415BB24A
:10C530008EE78B1E5C4263415BB289E7D30999E7C2
:10C54000044B0D4A5A6099E73321280002F050FB52
:10C550003FE7C0460828002065280020D4DC000002
:10C5600066280020C4DC00005B2800207CC5000099
:10C5700060280020642800208813000048C40000C0
:10C5800088C40000B0C40000B0C4000092C4000021
:10C59000B0C40000B0C40000B0C40000B0C40000CB
:10C5A0009CC40000B0C40000B0C40000B0C40000CF
:10C5B000B0C40000B0C4000032C50000B0C4000028
:10C5C000B0C40000BAC40000B0C40000B0C4000091
:10C5D000B0C40000B0C40000C4C40000ECC400003B
:10C5E000B0C40000B0C40000B0C40000B0C400007B
:10C5F000B0C40000D8C40000E2C40000B0C4000011
:10C60000F6C40000B0C40000B0C4000000C50000C3
:10C61000B0C400000AC5000014C50000B0C400008A
:10C62000B0C40000B0C40000B0C40000B0C400003A
:10C63000B0C400001EC50000B0C40000B0C40000BB
:10C64000B0C40000B0C40000B0C40000B0C400001A
:10C65000B0C40000B0C40000B0C40000B0C400000A
:10C66000B0C40000B0C40000B0C40000B0C40000FA
:10C67000B0C40000B0C40000B0C40000B0C40000EA
:10C68000B0C40000B0C40000B0C40000B0C40000DA
:10C69000B0C40000B0C40000B0C40000B0C40000CA
:10C6A000B0C40000B0C40000B0C40000B0C40000BA
:10C6B000B0C40000B0C40000B0C40000B0C40000AA
:10C6C000B0C40000B0C40000B0C40000B0C400009A
:10C6D000B0C40000B0C40000B0C40000B0C400008A
:10C6E000B0C40000B0C40000B0C40000B0C400007A
:10C6F000B0C40000B0C40000B0C40000B0C400006A
:10C70000B0C40000B0C40000B0C40000B0C4000059
:10C71000B0C40000B0C40000B0C40000B0C4000049
:10C72000B0C40000B0C40000B0C40000B0C4000039
:10C73000B0C40000B0C40000B0C40000B0C4000029
:10C74000B0C40000B0C40000B0C40000B0C4000019
:10C7500028C50000F0B587B0070003F075F9022284
:10C760000C255D4C7D4323889343238003F06CF9B3
:10C770005A4E33685B685B195B68636403F064F965
:10C7800031684B685A191088554BD8870623022008
:10C790005F438B68DB1919789F88014201D005211E
:10C7A00019701B78DB065B0F00D089E0917A4D4B46
:10C7B00009095B181B7A1B041F43137AFA2B00D953
:10C7C00081E004333F021B063F0A1F4303F03CF99C
:10C7D000A764032703F038F9336843495B6822698B
:10C7E0005B195B7A0A401B093B401B05134323611D
:10C7F00003F02AF933685B685B195A7A23883A4058
:10C800003A4F12021F401743278003F01DF90721FA
:10C81000336802265B685D19EA7A23690A40344965
:10C8200012040B401343236103F00EF92388314FA8
:10C83000334323807B68002B48D003F005F9A36CB9
:10C840001B0E039303F000F923691B051B0F0493D0
:10C8500003F0FAF823889B059B0F059303F0F4F887
:10C860002388B343238003F0EFF8012325791D4388
:10C870003543EDB203F0E8F8257103F0E5F81E4BFF
:10C8800025691A68082311780B43137003F0DCF84C
:10C890002369174A134023610095059A174B0499A1
:10C8A00003987D68A84703F0CFF823881E432680AD
:10C8B00003F0CAF80122237F1343237707B0F0BDAA
:10C8C000FC239B0378E7FF231B067EE703F0BCF8FD
:10C8D000227F0123F0E7C0460058004204000020F8
:10C8E00002580042ACF30000FFFFCFFFFFFCFFFF48
:10C8F000FFFFF8FF342700200000002010580042FE
:10C90000F0B5C64600B584B0594B00221A700478C1
:10C910004378002B14D0574B01321A700023564A2B
:10C920001370564A06211170554A1370552C00D0C9
:10C9300082E0504B02221A70514B00221A707BE0A9
:10C940004C4A1178052900D988E08A004D498A5857
:10C950009746002C70D1474B01221A706CE03F22A1
:10C960001440494A9278A24222D0484A01231178C1
:10C97000A1421DD00133DBB21032072BF7D13F4B60
:10C980001B781901404A8A5C012A14D0002A53D12D
:10C990001B013D4AD318DB6800209847374B06221D
:10C9A0001A70354B00221A70324B03321A7043E072
:10C9B000324A1370E3E72F4B03321A703CE0304BDE
:10C9C0001B780133DBB2082B02D82D4A137033E0F9
:10C9D0002B4B00221A70274B01321A702CE0274B88
:10C9E0001A78254801784B1CDBB203701001264AE7
:10C9F00012185118CC70D27A9A421DD81D4B0522BC
:10CA00001A7019E01D4B1B7898461F4F1D017E19A7
:10CA1000B07802F069FC0335ED19F27A290002F0D2
:10CA2000C5FB84420CD0134B01221A70124B00221A
:10CA30001A70124B06321A7004B004BC9046F0BD56
:10CA400001AC43462370082229006B46581D03F0B1
:10CA5000BDF821000E4801F0FDFDE4E7054B012281
:10CA60001A70054B00221A70044B06321A70E3E765
:10CA70000B200020E72900200B100020E6290020D1
:10CA80008B26002088F90000E8280020FA280020E2
:10CA90005C260020F8B506000B25002900D183E0B4
:10CAA000002800D180E00368002B00D17CE01A68E8
:10CAB000848810880225844276D23D48047A042C6A
:10CAC00000D173E05279013AAA426DD8394A016126
:10CAD000136001F081FE0623B18834684B43A268DD
:10CAE000B079D3180C22514362680F245218917AFE
:10CAF0005B880C40D17A1A18091BC9B292B28A40DD
:10CB00001B1A9BB28B402C4992B20A802B4A9BB2D3
:10CB1000138007222A4C2B4F637993431A00042376
:10CB2000134380226371284BD205DA67BFF34F8F1E
:10CB3000BFF36F8F02F088FF0122A37A1343A37221
:10CB400002F082FFA37A2B43A37202F07DFF012241
:10CB5000237A1343237202F077FF637A80222B43F8
:10CB60006372C023D2055B00FA50FF20C7223368EE
:10CB700092001B6800045B79B9589B050340134879
:10CB800001400B43BB508023DB053B6002F05CFFA0
:10CB900001222379134323710D4B1D7002F054FFC2
:10CBA000B088FFF7D7FD00252800F8BD0125FBE779
:10CBB0003427002004000020525800425058004200
:10CBC0000058004200E100E004E100E0FFFF00FF48
:10CBD000BD29002010B53E4B1B78012B04D03D4BE6
:10CBE0001B78012B0AD010BD3B493C4800F03CFDAE
:10CBF0000028F4D1364B00221A70F0E7354B0022A2
:10CC00001A70FFF729F900280CD101F0BFFC01F0E0
:10CC100005FA3348FEF71AFD002806D0314B0222F0
:10CC20001A7002E02F4B01221A702F4B1B78DB0782
:10CC300002D52E4B00221A80294B1B681B787F2BB4
:10CC400003D9234B01221A70CDE7294B01221A7018
:10CC5000284B264A12889A4208D8274B1B88142B47
:10CC6000C1D002F08BFB02F059F8BCE702F046FE9F
:10CC700022492348FFF70EFF0028B4D1FA239B0076
:10CC80001D4A12889A42AED08423DB051D4A1A62DF
:10CC90008E225200012199501B49153AFF3A0B6927
:10CCA0001A42FCD102F0F2FD002002F0EFFE164B1A
:10CCB00008225A60FA24A400200002F0F1FE02F0DB
:10CCC000D7FD0D4B1C80114B01221A708BE7C0461B
:10CCD000ED270020EF27002021FD0000D0290020B3
:10CCE000C029002059270020F8270020B227002063
:10CCF000BB260020871300006E2800205DF0000096
:10CD0000E829002009C2000000240040EE2700208E
:10CD1000F7B58021424A434C1369C90023400B43B5
:10CD2000136153692340194351610B24002844D0F7
:10CD300003680C2419880023009301939AB291424E
:10CD40003DD8009B0224002B37D0019B009A1B0486
:10CD50001A439446002001210F24334F0E376346B7
:10CD6000C3400B4211D0C35D1F2B3AD82F4D5A0838
:10CD700052190B4231D010251678264035431570D4
:10CD80002B4A9B181A780A431A7001302028E6D1E2
:10CD90000024284D02F058FE274F2C803E7AA642F0
:10CDA00031D102F051FE6B469B883400AB8202F019
:10CDB0004BFE009BAB6101233B722000FEBD2200B5
:10CDC0005A434568019EAA18158852682E43009D53
:10CDD0000196154300950133B0E71578A5430D433F
:10CDE000CDE7203BDBB2154D5A0852190B4206D055
:10CDF00010251678264035431570114AC1E715787D
:10CE0000A5430D43F8E702F01FFEAB8A019A1A43CF
:10CE1000AA8202F019FEAB69009A1A43AA61CCE714
:10CE200000500042FFF8FFFFACF30000300000416B
:10CE3000400000410058004234270020B00000416B
:10CE4000C000004170B588B020220021684602F081
:10CE5000C7FE01F0CDFB002801D108B070BD02F083
:10CE600079FE002500E00135ECB2032CFBD0082C44
:10CE7000F9D0200001F0E2FE0134E4B2092CF2D92D
:10CE800002F060FF682814D1344B462159714C22BE
:10CE90009A71334BD9711A72012120224942684696
:10CEA00002F09EFE6C466A4600232D4820252D4E3A
:10CEB0002AE002F047FF692808D1284B4621597122
:10CEC00052229A71264BD9711A72E5E702F03AFFA5
:10CED0006A2808D1214B522159714C229A71204B5A
:10CEE000D9711A72D8E702F02DFF6B28D4D11B4AF2
:10CEF0005223537193711A4AD3711372CCE7117094
:10CF000001330132152B06D0195C0029F7D11570B9
:10CF1000716ECD54F4E700224021684601F0E8FF2D
:10CF2000012120224942684602F05AFE00230E48A1
:10CF300020210C4D04E0227001330134182B06D05F
:10CF40001A5C002AF7D12170AA6AD154F4E70122B1
:10CF50001821684601F0CCFF7FE7C046C0270020BB
:10CF6000A8290020702800209029002030B583B027
:10CF7000002002F08FF800280BDB012002F08AF875
:10CF8000002810DB022002F085F8002812DB03B035
:10CF900030BD02F09BF8334B1988334B5B6803229A
:10CFA00032489847E9E702F091F82F4B9B6802203E
:10CFB0009847E7E72E4B1B780133DBB20F2B02D8E3
:10CFC0002B4A137002E02A4B00221A70294B188852
:10CFD000294BC018294B1C88254B1978284A0092E8
:10CFE0006B469A809A710F230B40202213436A46A6
:10CFF0001370002C0DD00022002311006944855CC1
:10D000004D7001339BB29C4205D00132062BF4D106
:10D010000CE0230002E02300052C07D8CC211A00E5
:10D020006A44517001339BB2052BF8D90721684639
:10D0300002F084F8231C062C00D906239AB20D496D
:10D040000B88D3180B800D490B889B1A9BB20B8061
:10D05000002B03D00B4B0A229A6098E702F036F8B7
:10D0600095E7C046CA270020842700200C00002036
:10D070005E280020E22700200C100020D627002088
:10D08000CCCCCCCC9027002010B582B042787F2346
:10D090001340502269460A704B7001228A70F332A5
:10D0A000CA7000220A71C8324A71022B34D0032B95
:10D0B0001BD0012B04D01221102001F099FD12E0A9
:10D0C00000242E4B1C702E4B1C702E4B1C7000200D
:10D0D00002F03BF92C4B1C700621684602F04EFA18
:10D0E0002A4B01221A7002B010BD284B1B78022B6C
:10D0F0000DD0254B00221A70244B03321A700621E2
:10D10000684602F03BFA224B224A5A60EBE77E2146
:10D11000102001F06DFDE6E71F4B1B78022BE2D0DB
:10D120001A4B1B78012B19D0144A1278002A1AD0F6
:10D13000124A00211170022B1AD0134B00221A70D0
:10D14000124B02321A70012002F002FE012002F09E
:10D150000BFE1249022002F0ADF8C4E77E21102038
:10D1600001F046FDBFE72221102001F041FDBAE7A2
:10D170007821102001F03CFDB5E7C046632800206F
:10D1800062280020612800206028002066280020F6
:10D1900008280020881300005B28002055555555AD
:10D1A000F0B5D6464F464646C0B53D4B1B7E9B0666
:10D1B0000BD53B4B20221A763A4B1B6A002B04D02E
:10D1C000384B596A1B6A042098470426354DA846F7
:10D1D000A946344B9A465BE04A46126A002A42D07E
:10D1E000796A3B6A01209847BB6A01333A6B9342E4
:10D1F0009241134037E05246926A5200E0B22A4907
:10D2000088540132240A8C543CE002F05BFB254B2D
:10D210001B6A002BDDD0234B596A3C23214AD35C87
:10D22000002B06D0936B9842D3D3136A0020984703
:10D23000CFE71C4B9B6B9842CBD11A4B1B6A00204B
:10D240009847C6E7164B1B7E334223D0144B1C8DE8
:10D25000A4B2AB6A01332A6B934292411340424617
:10D26000D26A9A42B8D00F4AD26A9A42EAD00C4A9D
:10D27000516807220A40012ABDD00A4A926AE4B2E4
:10D2800009498C54074A93623423D35C002BBCD1E8
:10D29000044FD7E71CBC90469946A246F0BDC04655
:10D2A000000400421C260020CC240020384B5A6881
:10D2B00052031B68DB0C13439B029B0A354A9363A2
:10D2C0004223137500235375110004228B691A42FF
:10D2D000FCD130491022CB681A42FCD02D4A137D74
:10D2E00080210B4313752C4B00229A611A612B4B42
:10D2F0002B4A1A62190004224B681A42FCD1274BB0
:10D30000284A5A62190008224B681A42FCD1234A63
:10D3100088234021D15010004831402243581A42FE
:10D32000FCD01E4A98234021D15010005831402291
:10D3300043581A42FCD0194ACC234021D150100046
:10D340008C31402243581A42FCD0144AD023402149
:10D35000D15010009031402243581A42FCD00F4A5D
:10D36000FC234021D1501000BC31402243581A42C6
:10D37000FCD00A4A8A235B004121D15010001900D9
:10D38000402243581A42FCD0074B084ADA617047E2
:10D39000206080000010004000140040001C00408D
:10D3A000060101000623010000080040078040003C
:10D3B000F0B5DE4657464E464546E0B583B080465A
:10D3C00000296ED00024384F0726384B9C469B46D8
:10D3D0009946009108E03648415549468A60621CEA
:10D3E0000134009991424CD97A683240012A16D012
:10D3F0009D68DA6892466A1C19698A4289410A4026
:10D4000092453FD04146095D786830400128E2D11D
:10D410006D0027484155013500214155DDE7624641
:10D420009568D26892466A1C614609698A428941B8
:10D430000A40924526D0610001204044405C000231
:10D4400082464046415C5046014301917868304035
:10D45000012809D0694609798A4615495046485538
:10D4600059468A60621CBBE7690068460079104D26
:10D47000AA4668540D0001350199090A50464155E4
:10D48000EEE7140002F010FA002802D0064B012249
:10D490009A75200003B03CBC90469946A246AB4624
:10D4A000F0BD0C00EEE7C046000400421C26002040
:10D4B0004C250020F0B5CE46474680B583B0012507
:10D4C000314CA046314A304EFF23994616E05800B1
:10D4D0002F4F3F5CBC466F466146B97101302C4905
:10D4E000085CF87101331AE06B4606331B88494625
:10D4F0000B401385244B1B7D002B20D1137E2B4228
:10D500003DD0A068E368984236D05768072038407D
:10D510000128DCD01E48C75C68468771013330693A
:10D520008342804103401848C3605068072303408A
:10D53000012BD9D16B4606331B881385DAE702F03D
:10D54000C3FA114B1B68002BBCD0434659681B7FA4
:10D55000002B08D00C4B9B699842B3D30A4B1B6835
:10D5600003209847AEE7084B9B699842AAD1064B27
:10D570001B6803209847A5E7044B01221A7503B0E6
:10D580000CBC90469946F0BD1C26002000040042C9
:10D590004C250020F0B5DE4657464E464546E0B5E0
:10D5A000C3B0622302AA13704B1E142B0ED801299C
:10D5B00052D9431C994602390123994303318BB256
:10D5C000019300220123984601212DE013212220FE
:10D5D00001F00EFB39E002AB5A465A548D1CADB235
:10D5E000013189B252465A54237A280002AA94463D
:10D5F000604400931A00616802F0E8FA009B9C46C0
:10D600006544A9B201220C34A74203D02388B34257
:10D61000F9D1E0E7434602339BB2984602239C4689
:10D62000E144019B98450BD04B461B789B461E025C
:10D630004B465B789A461E430A4C27007837E5E74D
:10D64000012A09D102A801F099FF43B03CBC9046E1
:10D650009946A246AB46F0BD3121222001F0C8FA1E
:10D66000F3E7C04670280020F7B5070001910B24AE
:10D67000002951D000284FD0294D03242B7A002BAC
:10D680004AD00124042B47D0022403685B79013B74
:10D69000A34241D8234E02F0D7F93388A343338005
:10D6A000214B1F60019BEB6001F096F880221F4B1D
:10D6B000D205DA67BFF34F8FBFF36F8F0323B372C7
:10D6C00002F0C2F90122737A802113437372184B5E
:10D6D000C9051A70C023174A5B00D150C722FF202A
:10D6E000144B920099583B6800045B799B050340FA
:10D6F000114801400B430F498B508022D2050A602C
:10D7000000232B8001F014FC061E07D10423288877
:10D710002B723400FFF71EF82000FEBD2C72FBE7D1
:10D7200034270020005800420400002004E100E0FB
:10D73000BD29002000E100E0FFFF00FF10B582B02E
:10D740000C004B1E9BB2264A934247D8062915D897
:10D75000052B43D8234B00936A4693809371117035
:10D7600000231A006A44C15C517001339AB294429A
:10D77000F7D80721684601F0E1FC2FE01A4B01229F
:10D780001A7000231949C25CCA5401339AB29442F8
:10D79000F9D80022164B1A706B465A809A809A71FB
:10D7A000230A102213436A461370547000231A0090
:10D7B0006A44C15C91700133052BF8D1072168469A
:10D7C00001F0BCFC0B4B00221A700B4B0A329A6022
:10D7D0000A4B053A1A80053C094B1C8002B010BD6B
:10D7E000FE0F0000CCCCCCCC5F2800200C10002019
:10D7F0005E2800205D28002090270020E2270020DE
:10D80000D6270020F0B583B045787F222A4084785F
:10D810002302C078264E36880343B34221D07123B9
:10D8200069460B704D708C70C870012A13D131217C
:10D83000312001F0DDF912E03121312001F0D8F979
:10D840000DE03321312001F0D3F908E0132131201C
:10D8500001F0CEF903E01221312001F0C9F903B043
:10D86000F0BD71236F463B707D70BC70F870012A6B
:10D87000F1D10F4B9A780F4B1B789A42DCD10C4BAD
:10D88000DA780D4B1B789A42DBD8094B1B798B4217
:10D89000DCD10A4B9E42E2D1094B01221A700023CF
:10D8A0006A4613710521684601F068FED7E7C04655
:10D8B0002CFB0000662800206028002003020000E6
:10D8C0006328002010B5264B1B78012B15D0254B63
:10D8D0001B78312B34D9244B1B78002B33D1224BAE
:10D8E00001221A7001F092FE204802F09FF90022F6
:10D8F0001F49052001F0DEFD25E01A4B1B78312B76
:10D900001ED9194B1B78002B05D01A4B01221A7017
:10D9100002F052F817E0144B01221A7002F0CAF814
:10D9200000280AD001F072FE104802F07FF90022B0
:10D930000F49052001F0BEFDE7E701F0ADFEF1E77C
:10D94000094B00221A70064B1B78002B06D1094B9D
:10D950001B78002B02D0074B00221A7010BDC04666
:10D96000EE2700200B2000206728002088130000ED
:10D9700041FB00006928002010B58223DB05284AFE
:10D980001A6038201861002240215A5401315A543B
:10D9900001315A5401315A543C3944241955013447
:10D9A00019553F315A5401315A5401315A544739AB
:10D9B000043419550234195503341A5501341A55D3
:10D9C0000134195550315A5401315A5401315A54C5
:10D9D00003315A5401315A5401315A5401315A54C5
:10D9E00002315A5401315A542C395A5401315A5483
:10D9F00002311E3C19555A54233902341955013449
:10DA0000195527315A543539195437315A5402317E
:10DA10005A5401315A5401315A5401315A5410BDEB
:10DA2000CFC1CE1B70B50500062002F0F6F8C4B2D7
:10DA3000682C12D0692C25D06A2C27D06B2C29D0C9
:10DA4000214BFF221A70FF2D0ED102F087F9012819
:10DA500037D01D4BFF221A7025E01B4B11221A7084
:10DA6000194B1B78AB422CD002F078F9012828D052
:10DA7000154B1D70112D15D0132D23D0142D0DD144
:10DA80006A2410E0104B13221A70E9E70E4B14229F
:10DA90001A70E5E70C4B12221A70E1E7122D02D141
:10DAA0006B2400E06824094B1C702100062001F063
:10DAB00001FC01214942032001F0FCFB012002F09E
:10DAC00047F970BD6924EEE768280020F629002098
:10DAD00010B582B004005F236A4613704378537018
:10DAE000012B0ED0022B13D0032B1DD0102B1FD0D7
:10DAF000272B22D00F2B25D00078112101F078F8A8
:10DB000004E093700321684601F038FD02B010BDB7
:10DB100002F018F96B46987063780F2BF2D106214A
:10DB2000684601F02BFDF1E700236A469370E9E7B0
:10DB30000F4B1B786A469370E4E70E4B1B786A46DE
:10DB40009370DFE780780006E3781B04184363795D
:10DB5000184323791B02184302F056F9030E6A4654
:10DB60009370030CD370030A13715071D4E7C0464D
:10DB70006628002060280020002941D010B4041C31
:10DB80004C40A44601230022002900D54942002828
:10DB900000D5404288422CD301242407A14204D25C
:10DBA000814202D209011B01F8E7E400A14204D23C
:10DBB000814202D249005B00F8E7884201D3401A53
:10DBC0001A434C08A04202D3001B5C0822438C0875
:10DBD000A04202D3001B9C082243CC08A04202D3DF
:10DBE000001BDC082243002803D01B0901D00909CF
:10DBF000E3E7101C6446002C00D5404210BC70477F
:10DC000001B5002002F008F902BDC0460029F7D096
:10DC100003B5FFF7B3FF0EBC4243891A1847C0464D
:10DC2000F8B501F011FF0221204A13888B431380BD
:10DC300001F0FEFC1E4B1F4C1F4A188819882388D0
:10DC400012685B00D1521D4B80B21B78012B02D0B1
:10DC5000022B10D0F8BD23880133238001F068F92E
:10DC6000002805D12088FEF775FD04232372F1E713
:10DC7000E3689847EEE70C210F22114B25881E68B8
:10DC800069437368002759188B7A1A40CB7A9A42F5
:10DC900001D29B1ADFB20621F8406943B3685B18D2
:10DCA0005880022323722369E3E7C04600580042EC
:10DCB000585800423427002008000020BD290020C9
:10DCC000040000201002000089D0000001010101C1
:10DCD000010000001102000085E3000001010101C4
:10DCE000010000001404000071EE000001010101B8
:10DCF000000000002203000095D500000101010191
:10DD00000000000028030000A1E000000001010164
:10DD1000010000002E010000B3F400000101010128
:10DD2000000100003104000005D8000001010100DD
:10DD3000000000003E020000ADEA00000101010108
:10DD4000010000008502000001EB0000000001015D
:10DD5000010000001F020000D1DA000001010101F2
:10DD600001000000F0B5D6464F464646C0B5824693
:10DD70001E4AD36A956A002933D0AB4234D00400DE
:10DD800001201B4A94469046184E12E04246D25C4F
:10DD900091465246013A4F4617540133326B934233
:10DDA00092411340884214D2421C0234AB4211D03B
:10DDB0001000104A576807223A40012AE6D15A005B
:10DDC0006746BF5C277001326746BA5C62700133F8
:10DDD000E4E71D00054BDD621CBC90469946A24657
:10DDE000F0BD1D000800F5E70020F3E71C26002029
:10DDF000CC24002000040042002934D0012300225A
:10DE000010B488422CD301242407A14204D28142B9
:10DE100002D209011B01F8E7E400A14204D28142C9
:10DE200002D249005B00F8E7884201D3401A1A4346
:10DE30004C08A04202D3001B5C0822438C08A0427D
:10DE400002D3001B9C082243CC08A04202D3001B33
:10DE5000DC082243002803D01B0901D00909E3E7AD
:10DE6000101C10BC704701B5002001F0D5FF02BDA9
:10DE70000029F8D003B5FFF7C1FF0EBC4243891A51
:10DE80001847C04610B51F4A137801210B43137081
:10DE9000110001224B681A42FCD11A490B7810225A
:10DEA000102003430B7080239B03CB6100230B6284
:10DEB00020338B610B61144B1A819A821A849A85E4
:10DEC0001A87442005241C520C301A520C301A5266
:10DED0000C301A520C301A520C301A520C301A52A2
:10DEE0000C301A520C301A520C301A520C301A5292
:10DEF0000B78022213430B7002224B681A42FCD1AA
:10DF000010BDC046002800400C2400201D4B1E4AB6
:10DF10001A601E4A9A81C02292025A601A00D3697E
:10DF2000002BFCD1174A136802210B431360D369FD
:10DF3000002BFCD1164B00221A629A62DA6234215D
:10DF40005A5408315A549A630021DA871A609A6049
:10DF5000DA60197519779A610A4B5A6807231340DA
:10DF6000012B09D00A4B80221A631A61054B8022CB
:10DF70009A755C3A9A757047054B40221A631A618C
:10DF8000F4E7C04600040042042110449C40000015
:10DF90001C260020F0B506241E4B44431A680020BE
:10DFA00093681C1963888B422CD02CD2C91A126832
:10DFB00089B29378402B00D149080120842921D8C7
:10DFC000002005291ED9CF250F261527A3881C0060
:10DFD0009804800F68431D1235407D431B11334068
:10DFE00040195B00C018344080B2052C0DD8D3789E
:10DFF000094A9B069B0F5B009B5A594389B2884292
:10E0000080414042F0BD591AD1E70130053C80B251
:10E01000E4B2EAE704000020ACF30000F0B5C64625
:10E0200000B51C481C4D1D4C0C239C4684441E27E7
:10E030001AE02B78012B1ED92300002226000E3671
:10E04000598819808A1892B202339E42F8D1434609
:10E050005B88E3819A1892B2D20843465A80063010
:10E0600001351034844512D0804603781F42E0D039
:10E0700000232B70F3E701332B70438823806380E8
:10E08000A380E38023816381A381E381E7E704BC6C
:10E090009046F0BD7827002054280020E02600207C
:10E0A00000B583B042787F2313408278002B07D0DD
:10E0B000032B1BD01221282000F09AFD03B000BDD5
:10E0C000013A022A0DD80023144A1370144A13701F
:10E0D000682269460A704B700221684601F04EFAC8
:10E0E000ECE73121282000F083FDE7E7013A022A1E
:10E0F0000ED80123094A1370094A137067336A4620
:10E100001370653B53700221684601F037FAD5E77A
:10E110003121282000F06CFDD0E7C04662280020A5
:10E120006128002010B51D4B1B78002B1ED01C4B06
:10E130001B88002B08D01A4A138801339BB2138026
:10E14000184A934209D810BD8223DB05802292042D
:10E150009A61012000F0A6F8EDE78223DB0580221A
:10E1600092045A61022000F09DF8ECE70C4B1B88EA
:10E17000002BE8D0591C0A4A11802E22FF3293420C
:10E18000E1D98223DB05802292045A61022000F04B
:10E1900089F8034B00221A80D5E7C0466D2800207D
:10E1A00056280020CF07000070B5BFF35F8F62B61E
:10E1B0001A4BC025AD005A5919480240C021090424
:10E1C0000A435A5104221A605A591202120AC024F0
:10E1D000240622435A5108221A60C226B6009A59D0
:10E1E000104D1540C02212022A439A5180229200FB
:10E1F0001A60C525AD005A591202120A22435A511B
:10E20000802212041A60C724A4001A591040014346
:10E2100019518022D2051A6070BDC04600E100E0AD
:10E22000FFFF00FFFF00FFFFF7B50C25C3684D435C
:10E230009C46032382684B4355196C6863442D89BF
:10E2400064889F781B78641BE41AA3B201930025AD
:10E25000436860461E88B54201D10020FEBD8D4254
:10E2600018D08378BB4215D113787B33DBB2012BF6
:10E2700015D913899C4653685B889C450AD264462D
:10E280001B1B04789BB2A34204D91B1B019C9BB2AD
:10E290009C4204D30135ADB203300C32DBE70120E0
:10E2A000DCE7FEE710B5194B1B78682B0FD0692B04
:10E2B00018D06A2B20D06B2B13D1154C5721635CDF
:10E2C00006229343400010400343635409E0104981
:10E2D00027228B5C0624A3434400062020400343EE
:10E2E0008B5410BD0A4C3721635C062293434000D7
:10E2F000104003436354F4E7054C4721635C062256
:10E3000093434000104003436354EAE7F62900209A
:10E31000E828002010B582B0042803D0002818D0C7
:10E3200002B010BD01F0CEFA0100144C2000FFF73E
:10E3300019FD002323606360238101AB55221A700D
:10E34000543A5A700E4B1B68002BE9D001A898472D
:10E35000E6E701F0B7FAFF210140084C2000FFF783
:10E3600001FD01AB22781A7000225A70044B1B6821
:10E37000002BD5D001A89847D2E7C046D827002067
:10E380004428002000B583B042787F231340012B3E
:10E3900009D0022B14D0032B1CD01221112000F025
:10E3A00027FC03B000BD50336A461370503B5370D6
:10E3B0000221684601F0E2F8012001F0C9FCF0E713
:10E3C0004F336A4613704F3B53700221684601F089
:10E3D000D5F8E6E74E336A4613704E3B5370022180
:10E3E000684601F0CBF8012001F0B2FCD9E7FEE766
:10E3F00010B5FEF7BBFD144B5B68002B04D0012B5E
:10E4000003D0013B104A536010BD0F4B00225A60ED
:10E410000E4B1B78032B0CD0022BF5D10B4B01229A
:10E420001A7000230A4A1370074A1360094A537688
:10E43000EAE7064B01221A700023054A1370024ACC
:10E440001360044A5376DFE708280020662800207E
:10E4500060280020BC26002030B583B00378144A21
:10E4600012789A420DD07E2B11D06946114B0A00CA
:10E4700030CB30C2082201F079FA00280DD003B069
:10E4800030BD411C0722002001F092FCF7E7411C3F
:10E490000722012001F08CFCF1E701F0B7F80648F3
:10E4A00001F0C4FB00220549052001F003F8E6E76E
:10E4B000F6290020C0FD00008813000041FB000089
:10E4C00010B5154B1B78012B04D0144B1B78002B77
:10E4D00018D110BD01F054FC114B1B78002B05D056
:10E4E000104B18600E4B00221A70EEE70D4B1B68A4
:10E4F000C31A142BE9D90B4B1860074B00221A7072
:10E5000001F03AF9064B01221A70044B00221A70EE
:10E5100001F052FCDDE7C0466A2800206C2800208C
:10E52000F72900204028002070B500F0A9FE00F077
:10E53000F5FB124C2000FEF7EBFB114801F028FB25
:10E540000021200001F038F90021200000F002FB3A
:10E550000121200001F030F90121200000F0FAFA39
:10E56000084C094D22000021280001F062F9A21D8B
:10E570000121280001F05DF970BDC046D0290020BE
:10E580002828002078270020C0290020F0B5C646A2
:10E5900000B5144B144A15491F000C371E260020E5
:10E5A00084460BE0107802280ED05C880C80013085
:10E5B0001070063301320231BB4210D01878064287
:10E5C000F0D060461070F4E7088880465D886D08DA
:10E5D00045444008281A80B208805880E9E704BC06
:10E5E0009046F0BD78270020582800202C280020D5
:10E5F00030B589B0164C6023E55A012120224942EA
:10E60000684601F0EDFA6946280000F0F9F9616EFC
:10E610006823E05C002813D06B461A780B789A4286
:10E6200013D100235A1CD2B2904208D91A006A446E
:10E6300052780133CC5C9442F4D0012000E00020F9
:10E64000431E9841C0B209B030BD0120F8E7C04672
:10E650007028002070B504000D0001F0CCF80028EF
:10E6600016D1EFF31083002B14D172B62D26A35DC3
:10E67000D800C01820180922290001F0A7FAA05DCF
:10E6800001300521FFF7C2FAA15562B6012000E072
:10E69000002070BD2D26A35DD800C01820180922C7
:10E6A000290001F093FAA05D01300521FFF7AEFAD1
:10E6B000A1550120EDE7FEE7F8B50024144D154EF5
:10E6C00003E077610134102C20D063001B199B00FC
:10E6D000EB181B89DBB2E1B28B42F3D173690127DE
:10E6E000A7401F42EED063001B199B0008495B58EE
:10E6F000002BE6D008006300191989004118496809
:10E700001B199B001B5808009847DAE7F8BDC04664
:10E710000C2400200028004010B5124B1B785BB27F
:10E72000012B14D0104B1B785BB2012B0FD00F4A7A
:10E730002223D05CFFF776F90D4B1878FDF7CCF962
:10E740000C4B1B78002B03D00A4B00221A7010BD13
:10E75000064B190023312222985C1A3A00F0DDFDA5
:10E76000F5E7C0466128002062280020E828002044
:10E77000F62900206928002070B5040008002E2327
:10E78000E15C013BE35C8B4215D0EFF31083002B7F
:10E7900013D172B62E25635DD900C91861180922FC
:10E7A00001F014FA605D01300521FFF72FFA615581
:10E7B00062B6012000E0002070BDCB00591861183E
:10E7C000092201F003FA2E25605D01300521FFF7D3
:10E7D0001DFA61550120EFE7134B70B51B68082443
:10E7E0001B689A78402A15D002200A24802A11D06A
:10E7F00070BD0E490C400F210B401B0214401C43FE
:10E8000001F022F950230A4D2B8001F01DF92C61F3
:10E810000020EDE71B79074A0F2BEAD980235B0123
:10E820001C431440ECE7C04604000020FFEFFFFF4C
:10E8300000580042FFF0FFFF70B5114B1B785BB230
:10E84000012B0BD00F4B1B785BB2012B06D00E4B6C
:10E850001B78002B03D00C4B00221A7070BD0B4CA0
:10E860003225605DFFF7DEF8094B1878FDF734F9C3
:10E8700021003331605D082200F04FFDEEE7C04615
:10E88000612800206228002069280020E828002054
:10E89000F629002070B5114B1B785BB2012B0BD011
:10E8A0000F4B1B785BB2012B06D00E4B1B78002B55
:10E8B00003D00C4B00221A7070BD0B4C4225605DDA
:10E8C000FFF7B0F8094B1878FDF706F9210043313E
:10E8D000605D082200F021FDEEE7C04661280020BF
:10E8E0006228002069280020E8280020F62900205E
:10E8F00070B5114B1B785BB2012B0BD00F4B1B7803
:10E900005BB2012B06D00E4B1B78002B03D00C4BB7
:10E9100000221A7070BD0B4C5225605DFFF782F823
:10E92000094B1878FDF7D8F821005331605D0822B3
:10E9300000F0F3FCEEE7C0466128002062280020CA
:10E9400069280020E8280020F629002000230E4A2C
:10E9500010B513600D4A13600D4A13600D4A136021
:10E960000D4A13600D4A536213610133936001F045
:10E97000B7F901F053FA0A4C0A4B9C4200D310BD80
:10E9800008CC9847F8E7C04650280020D82500203A
:10E99000D4250020CC250020D0250020DC25002017
:10E9A000C8B00000CCB00000F8B5002001F0A0F81D
:10E9B0000400002001F0A6F80700012001F098F8FB
:10E9C0000500012001F09EF80600002001F0A4F8E7
:10E9D000030603D4094B00221A70F8BDE41B24B2CD
:10E9E000AD1B2DB2641B372C03DD044B01221A70C2
:10E9F000F3E7024B00221A70EFE7C0466D280020B3
:10EA000070B50C00114A0023002504E00C320833D5
:10EA1000DBB2502B04D011888142F7D11D00F5E7FD
:10EA20000B4E31000B4801F01BF9A9008919230096
:10EA30002034CA781A704A885A700A68120A9A7082
:10EA400004C9DA700433A342F3D170BD70280020EA
:10EA50000C2000200004400010B5134B9B7D002BC0
:10EA60001BD0114A137EDBB2927D52B2002A15DB15
:10EA70000D4A137EDBB2927DD20703D5DB0701D5A9
:10EA8000FEF718FD084A137EDBB2917D2422114265
:10EA900003D01A4201D0FEF783FB10BD5BB2002BFE
:10EAA000E6DA00F07FF8E3E70004004200B583B047
:10EAB000104B5B68002B03D10F4B1B78012B07D148
:10EAC00043785A0610D1DB0904D00A4B0B4A5A602E
:10EAD00003B000BD7E336A461370002353700221D9
:10EAE000684600F04BFDF0E712213E2000F080F870
:10EAF000EEE7C046082800206628002088130000A2
:10EB000000B583B042787F231340012B06D0022B3F
:10EB100012D01221852000F06BF80BE0002000F0ED
:10EB200014FCC5236A461370C43B53700221684627
:10EB300000F024FD03B000BD012000F006FCC52359
:10EB40006A461370C33B53700221684600F016FDFD
:10EB5000F0E77047030010B50B20002B16D01A68A1
:10EB6000022014888C4211D392789B68402A0ED1DF
:10EB700006228D204A4380009A18908000200622A9
:10EB8000514302225B1819780A431A7010BD803A6B
:10EB9000D2B2012AF3D806224A4301489A18ECE778
:10EBA0006705000010B5104B5B8B1722134000D196
:10EBB00010BD0E4AD3870C4B80221A76693A5A83CD
:10EBC0001B7E5B0705D5084B04211A8D1A7E0A426D
:10EBD000FBD1064B1B6A002BEAD0044B596A1B6A17
:10EBE00002209847E4E7C046000400421C260020AB
:10EBF00000B583B000230093019378290AD17F23C5
:10EC00006A4613705070917003216846FEF796FDB6
:10EC100003B000BD064B074A5A60074B1B78022B16
:10EC2000EDD10B00113B012BF2D93129F0D0E6E7F1
:10EC300008280020881300005B28002070B54300DE
:10EC40001B189B000E4AD3181B7A002B17D0C60046
:10EC50000023420010188000094A1018094D0324AF
:10EC60009A089219920021009943C9005259CA404A
:10EC70004168CA540133DBB2027A9A42F0D870BDBF
:10EC8000702800200C20002010B50E4B0E4A934235
:10EC900007D30E480168002907D14368002B04D12F
:10ECA00010BD002119700133F1E704008368084AA0
:10ECB0009BB20C349B009B58426820009847800010
:10ECC0002018E7E7000000200C000020DCB0000066
:10ECD000A4FB000010B5064C2378002B07D1054B90
:10ECE000002B02D0044800E000BF0123237010BDB8
:10ECF000002700200000000000000000044B10B5B9
:10ED0000002B03D00349044800E000BF10BDC046FB
:10ED100000000000042700200000000010B584233C
:10ED2000DB058E22520000219950C22212021A6283
:10ED30000A4908220B691A42FCD100F0A7FD002005
:10ED400000F0A4FE054B00225A60142000F0A8FE3B
:10ED500000F08EFD024B14221A8010BD00240040EA
:10ED60006E28002010B50A4B98470A4B9847FFF7CA
:10ED70008BFF094BFF229343084A9360084B984747
:10ED8000084B9847084B984700F03EFBFEE7C0460B
:10ED900053EB000053EB000000B0000000ED00E07A
:10EDA0004DE9000053EB000053EB000070B5002864
:10EDB00018D0002918D000250C4A0124072605E0A8
:10EDC0006B00C35A13850135A94209D0137E234233
:10EDD000FCD053683340012BF2D0435D1385F2E73A
:10EDE000012070BD0020FCE70120FAE70008004286
:10EDF0000D4B01221A6019000B691A42FCD10A4B13
:10EE0000C222D2001A6003221A73B7329A83873A59
:10EE10009A72064A0021116001225A721A0013697F
:10EE2000002BFCD17047C046003C0042F027002078
:10EE300010B50E4B06225A6000F02AFFFEF79CFD2B
:10EE4000FEF734FA00F054FF00F0ECF8FFF75EF83C
:10EE500000F00EFFFFF716F800F0DEF9FFF7C8FF2D
:10EE6000FFF762FBFFF7A0F910BDC046004000416C
:10EE700000B583B04278120483781B021343C27832
:10EE800013430A4A934205D031211420FFF7B0FE04
:10EE900003B000BD100000F035F954236A4613702A
:10EEA0000121684600F06AFBF2E7C046FFFFFF0061
:10EEB00070B500F065FF05000A4B1C68041B0A488A
:10EEC00000F0A2FE002803D1084B9C4205D870BD7B
:10EED00000F056FF034B1860F6E7024B1D6000F090
:10EEE00029FDF4E73C2800208C2600208813000030
:10EEF00070B5040089000C4BC918203023781B061C
:10EF000065782D042B43E5782B43A5782D022B4300
:10EF100008C104348442F1D1002A00D170BD0249F5
:10EF2000024800F0B2FAF9E70C200020000440008B
:10EF30000D4A70B51068012502680C491488062234
:10EF40000B885A43A3420AD28668B65C06322E4228
:10EF500002D101339BB2F5E700200B8070BD002386
:10EF600001200B80FAE7C04604000020342700206F
:10EF700010B50A4B01221A70094B1B88094A1088E8
:10EF8000094A121A934202D21B189BB200E0064BA8
:10EF9000034A138000F09CFE10BDC046ED27002000
:10EFA000B22700206E280020FFFF000010B584B0BB
:10EFB00001900291039200280AD000290BD0002A68
:10EFC0000CD0084A01AB13CB13C2002004B010BD13
:10EFD00001204042FAE701204042F7E70120404289
:10EFE000F4E7C0468427002010B500F0C9FE0C4BA2
:10EFF0001B68C31AFA229200934201D9084B186089
:10F00000FFF756FF00F0A8FBFDF7E4FD00F0F8FC69
:10F0100000F0B0F8FFF754FA00F0D4FA10BDC04683
:10F02000302800200A4B0B4A1A600B4A9A81802232
:10F0300052025A601A00D369002BFCD1044A1368AB
:10F0400002210B431360D369002BFCD17047C046EB
:10F0500000080042040110402BF6FFFF10B5094BD9
:10F0600000221A70084B1B88142B00D110BD00F031
:10F0700085F90028FAD1054B00221A80044B013291
:10F080001A70F3E7EE2700206E280020B227002038
:10F09000ED270020022813D883000B4A9B58002B31
:10F0A00010D0012B05D08000013B074A835001207E
:10F0B00007E0800013000022C2500120404200E01F
:10F0C000002070470020FCE7902700200023074A1B
:10F0D0001370074A1370074A1370074A1370074AE0
:10F0E0001370074A13605360936070475F280020D5
:10F0F0005C2800205D2800205E2800205A2800207F
:10F100009027002010B5C0231B04984209D00A4B59
:10F1100098420AD0002800D010BD013000F0FCFB5E
:10F12000FAE7002000F0F8FBF6E7002000F0F4FB1F
:10F13000012000F0F1FBEFE7FFFFFF0010B5010039
:10F14000094C601C072200F041FD00F0FBFD20701F
:10F1500021000648FFF77EFA002801D0012010BDEB
:10F16000034800F0F7F9F9E7002800208C2600207A
:10F17000B0FC000010B500F003FE0A4B1B68C31A78
:10F18000642B05D9074B1860074A137801331370B5
:10F19000054B1B78312B02D9034B32221A70FEF734
:10F1A00091FB10BD382800200B20002010B53E2315
:10F1B00003403C3B5C1EA3415B42184080B2002AE6
:10F1C0000CDD002302E00133934207DACC5C001926
:10F1D00080B2FF28F7D9FF3880B2F4E7C043C0B24D
:10F1E00010BD13B50B006A46D41D5A68C1B2217018
:10F1F000D20505D55A69C0B2541C5C61117016BDA8
:10F2000001222100180000F0C6FD002801D020785E
:10F21000F5E701204042F2E70B4B01221A8019006A
:10F220000B691A42FCD1084BC02252001A80803A66
:10F23000FF3A1A6219001F320B691A42FCD1024BC5
:10F24000802252005A8170470024004010B50A4BBA
:10F250005B7A002B0ED0084B987AC0B233229A7298
:10F26000064B1B68002B05D0002803D0034B5968C0
:10F270001B68984710BDC046003C0042F0270020A4
:10F2800010B50021094800F039FD094908220B6931
:10F290001A42FCD100F0FAFA002000F0F7FB14202B
:10F2A00000F0FEFB00F0E4FA10BDC046A9FD00002E
:10F2B00000240040F8B505000F000A4C8022D2005F
:10F2C0000021200000F08CFC8026F6032100300095
:10F2D00000F0C6FCAD002F512100300000F0D5F841
:10F2E000F8BDC0460C20002030B53F220240550832
:10F2F0001409D3086B40634051094B4001214B4036
:10F3000001210B40DB0191084D4068404440012041
:10F31000204080011043184330BD70B584B00D000B
:10F320001400FFF7E1FF22002900FFF73FFF06006E
:10F3300001AC08222900200000F048FC26720921B7
:10F34000200000F069FB04B070BD704710B5084B99
:10F350009A8992B207494A60074A9A819B890B6849
:10F36000002B04D00B00486889681B68984710BDC3
:10F37000002400406C270020FF81FFFF70B5094B7F
:10F3800003201D78022D0BD10122074C1A7000F0CA
:10F390005BFB2388AB43238000F056FB00202071E9
:10F3A00070BDC046BD290020005800420700130070
:10F3B000350090003F1C0B050301020304050607FE
:10F3C0002021222324252627282908090A0B101189
:10F3D0001213141516172C2D2E2F70B514001600AD
:10F3E0000A004E430D00511E8A4152421440010052
:10F3F0003200180000F0CFFC864203D02900FEF74F
:10F40000FBFC0400200070BD10B50020FFF710FDCC
:10F41000074C200000F09EF82000103000F09AF811
:10F4200000F08AF900F038F9FFF7DEFDFCE7C0468E
:10F4300018F7000010B5062000F0EFFBC0B2074B34
:10F4400018700138C0B2FD2800D810BD6821062010
:10F45000FFF730FF014B68221A70F6E7F62900200B
:10F4600070B506000D00140000F024FB00280AD13E
:10F47000012E01D0200070BD21002800FFF796FC6E
:10F480000028F9D0F6E70020F5E7F8B505000C00F4
:10F4900000F0A2F926008023DB00E718A91B091958
:10F4A000200000F06BFB002802D04034BC42F5D1B4
:10F4B000F8BD704730B543001B189B00064CE3189D
:10F4C0001B899BB2834200D030BD43001D18AD00A4
:10F4D000295160194260F7E70C24002010B50B0099
:10F4E0000A004032401A1C5810C39342FBD149080D
:10F4F000024BD961024A1A80012010BD0040004130
:10F500001CA5FFFF00B585B0044B01221A7004480A
:10F510000449054AFFF74AFD05B000BD66280020F2
:10F5200039FD0000A5C30000C1FC000010B507496B
:10F5300003310748FFF720F9002800D110BD034B25
:10F54000D91C98780822FFF7E8FEF7E7E8280020A2
:10F550008C26002010B5084C2368196800F08BF841
:10F560000123002805DB23680A20196800F048FC05
:10F57000C30F584210BDC0467429002010B5054B7A
:10F58000054A5A60054B1B785BB2012B01D0FEF790
:10F59000D5F810BD0828002088130000642800203A
:10F5A000012804D8002803D1034B044A1A6070478D
:10F5B000014B034A5A60FAE7082800201027000090
:10F5C0008813000010B500F0DBFB064B1B68C31A64
:10F5D000FA229200934200D810BD024B186000F04E
:10F5E000F3FBF9E73428002010B5074B00249842BC
:10F5F00001D8200010BD00F0D3F9040000F03CFA5F
:10F600000028FBD1F5E7C046FFFF3F0010B500F032
:10F61000E3FB8223DB0520225A6025320121995425
:10F6200031315A5C0F2002405A5408225A6110BDF1
:10F630000222074B997AC9B2114202D0987A02434A
:10F640009A720122114202D0997A0A439A72704743
:10F6500000580042EFF31083002B06D172B62D2222
:10F6600083540132835462B604E000232D22835474
:10F6700001328354704770B50E00050000F0F0F9B8
:10F6800033000400020001212800FFF7A6FE001B42
:10F69000431E9841404270BD064B1B689B0707D52F
:10F6A000044A136802218B431360D369002BFCD1F9
:10F6B0007047C04600080042064B1B689B0707D4F2
:10F6C000044A136802210B431360D369002BFCD159
:10F6D0007047C04600040042064B1B689B0707D5D5
:10F6E000044A136802218B431360D369002BFCD1B9
:10F6F0007047C04600040042064B1B785BB2002BEB
:10F7000007DB044A137802210B4313709368002B24
:10F71000FCD17047002000400D0A206A756D7020F2
:10F72000746F206170700D005544535F4255494C11
:10F73000445F4150500D000010B500F049FB00F04F
:10F7400087FA00F029F800F00FFAFFF7DBFEFFF769
:10F7500071FEFDF777FB10BD00B585B001A9054826
:10F76000FFF70AF8002801D105B000BD01A800F09C
:10F770003BF9F9E75C26002010B500F001FB04001E
:10F78000002000F04AFAFF23010099432340194367
:10F790000020FFF78FFD10BD10B50021054800F0D7
:10F7A000B3FA012000F07CFA0121012000F010F9E9
:10F7B00010BDC04615E300000B2300280AD00368E3
:10F7C0001A8802238A4205D30623594301238268FB
:10F7D0008B5400231800704770B504008023DB00B1
:10F7E000C5182000FFF700FF002803D00134FF34C4
:10F7F000AC42F6D170BD10B504002D23C05C0130C1
:10F800000521FEF703FA2E23E05C081A4142484125
:10F81000C0B210BD10B58222D205082393613221F7
:10F82000535C0F20034030200343535400F0D8FAB8
:10F8300010BD0B23002809D0002A07D00C234B430E
:10F840008168C91801230B7000234A6018007047B3
:10F85000002310B5934206D103201840421E904168
:10F860009B08C01810BDC45CCC540133F2E770474C
:10F87000054A138802210B431380110002220B69F1
:10F880001A42FCD17047C04600240040054A138844
:10F8900002218B431380110002220B691A42FCD112
:10F8A0007047C04600240040054B9868DB689842CA
:10F8B00001D3C01A7047024A12691018C01AF9E73A
:10F8C0001C260020054AD36A906A834201D8C01AD8
:10F8D0007047024A126B1018C01AF9E71C26002064
:10F8E000054A136802210B431360110002220B69C1
:10F8F0001A42FCD17047C046003C0042054A93685A
:10F90000002BFCD1034BA5221A731A009368002B1D
:10F91000FCD1704700200040012808D8044BC000EB
:10F920000022C2541818427042800023437170476D
:10F930005C27002010B5054800F066F9002800D0CB
:10F9400010BD0248FFF786FEFAE7C0468C2600206D
:10F95000BFF34F8F034B044ADA60BFF34F8FC046AB
:10F96000FDE7C04600ED00E00400FA0530B50024D4
:10F97000A24207D0035D4D1E01342D5DAB42F7D08E
:10F98000581B00E0002030BD52C900002CC9000007
:10F990005EC90000BEC90000DEC9000004CA000044
:10F9A0004008034BD861034A1A8001207047C046C3
:10F9B000004000411AA5FFFF044B04225A701900B1
:10F9C0004B781342FCD030BF7047C0460004004063
:10F9D00010B5044A3424135DDBB210553C20115499
:10F9E000180010BD1C26002010B5030001301A7845
:10F9F0001201024B9B18DB68984710BDE8280020D5
:10FA000010B5044B1B78002B00D110BDFEF7CCFFC6
:10FA1000FBE7C046BB26002010B5FDF7C9FCFFF789
:10FA200051FF01000148FEF79DF910BDCC270020D1
:10FA300010B5044A136801331360FEF7D9FCFEF7D2
:10FA400071FB10BD4828002001220449CB7A1340E5
:10FA50001A4200D17047CB7AFAE7C04600580042FC
:10FA60000378002B06D0030001331A78002AFBD15B
:10FA7000181A70470020FCE7034B187D0123434010
:10FA8000012018407047C04600400041034B986178
:10FA9000190008220B691A42FCD17047002400406B
:10FAA000034B1862190020220B691A42FCD17047DF
:10FAB00000240040034B18684008012358401840B8
:10FAC0007047C0460008004210B5034B1C69FFF7A1
:10FAD000EBFE013C201A10BD1C260020034B9B6846
:10FAE000DB0602D4014BA5221A73704700200040A8
:10FAF00043001B185B000248C31858887047C04673
:10FB00007827002043001B189B000248C31818895F
:10FB10007047C0461C270020034B9A6843001B18FF
:10FB20009B00D05C7047C046C02900200302030040
:10FB3000040000000DFE00000DFE00000DFE0000A0
:10FB400010B5034B00221A70FFF764FE10BDC046CB
:10FB50000B20002010B50249024800F081F810BDCA
:10FB60000C2000200004400010B50021024800F0E5
:10FB7000D1F8FFF7B5FE10BD31FA000010B5FFF760
:10FB8000ADFC0400FFF778FF0028FBD1200010BD7A
:10FB90000B23002802D0024B186000231800704786
:10FBA000080000203FFC000051F8000015FE000096
:10FBB00015FE000015FE000010B500F01DF9024B07
:10FBC0001860586010BDC0462028002010B5002ADB
:10FBD00005D00023CC5CC45401339342FAD110BD4C
:10FBE000002A06D00300C9B282181970013393426B
:10FBF000FBD1704703B47146490840004900095AD7
:10FC000049008E4403BC70472D23C35C2E22805CC8
:10FC1000181A43425841C0B2704710B58000802383
:10FC2000DB039C46604400F0BBF810BD82B001903D
:10FC3000019B013B0193002BFAD102B070478A1857
:10FC4000914201D10020704700230B700131F7E78A
:10FC500010B5024800F08EF810BDC04601C9000082
:10FC600010B5020008008021490000F08FF810BD97
:10FC70008423DB05014A1A627047C04604C20000B3
:10FC800010B513000A001900FFF7A0FF012010BDF6
:10FC9000024B8022D2001A817047C0460004004007
:10FCA000002801D0014B98637047C0461C260020F5
:10FCB0006572722C207564732066696C6C0D00008F
:10FCC000014B024A5A607047082800208813000040
:10FCD000024B1A88801818807047C0465A270020A7
:10FCE00010B5FFF769FF00F09AF800F098F810BD22
:10FCF000014B84225A60704700400041014B18605C
:10FD0000996070476C270020014B18625962704758
:10FD10001C260020014B186059607047F027002016
:10FD2000014B01221A707047EF27002010B5FFF732
:10FD30007FFCFDF775FF10BD014B00225A60704734
:10FD400008280020014B18787047C046F62900208B
:10FD5000014B18707047C0466A280020014B187884
:10FD60007047C0466A280020014B18707047C04693
:10FD70006B280020014B18607047C04644280020C3
:10FD8000014B18687047C0464828002010B589000C
:10FD9000FFF776FF10BD10B50068FFF761FB10BDDF
:10FDA00010B500F035F810BD10B5FFF7E1F810BD43
:10FDB00010B5FCF7FFF910BD10B5FFF7C9FD10BD78
:10FDC00000FFFFFFFFFFFFFF10B500F00DF810BDB3
:10FDD00010B500F00DF810BD10B5FFF77DFC10BD9B
:10FDE00010B5FFF769FC10BD10B5FFF777FE10BD29
:10FDF00010B5FFF781FC10BD00487047582900205E
:10FE000010B5FFF7EEF910BD00687047002070478D
:10FE100000687047002070477047C04670477047C1
:020000040040BA
:1000000000000000000000000000000000000000F0
:1000100000000000000000000000000000000000E0
:1000200000000000000000000000000000000000D0
:1000300000000000000000000000000000000000C0
:00000001FF
